:020000040800F2
:1000000000050020E1020008B34200082D4100086D
:10001000B1420008D5050008554600080000000060
:10002000000000000000000000000000F94400088B
:100030001D0A000800000000B5420008FB4400084B
:10004000FB020008FB020008FB020008FB0200089C
:10005000FB020008FB020008FB020008FB0200088C
:10006000FB020008FB020008FB020008D90500089B
:10007000FB020008FB020008FB020008FB0200086C
:10008000FB020008FB020008FB020008FB0200085C
:10009000FB020008FB020008FB020008FB0200084C
:1000A000FB020008FB020008FB020008FB0200083C
:1000B000FB020008FB020008FB020008FB0200082C
:1000C000FB020008FB020008FB020008FB0200081C
:1000D000FB020008FB020008FB020008FB0200080C
:1000E000FB020008FB02000800000000FB02000801
:1000F000FB020008FB020008FB020008FB020008EC
:10010000FB020008FB020008FB020008FB020008DB
:10011000FB020008FB020008FB020008FB020008CB
:10012000FB020008FB020008FB020008FB020008BB
:10013000FB020008FB020008FB020008FB020008AB
:1001400000000000000000000000000000000000AF
:10015000FB020008FB020008FB020008FB0200088B
:10016000FB020008FB020008FB020008FB0200087B
:10017000FB020008FB020008FB0200080000000070
:10018000FB020008FB020008FB020008FB0200085B
:10019000FB020008FB020008FB020008FB0200084B
:1001A000FB020008FB020008FB0200080000000040
:1001B000FB020008FB020008FB020008FB0200082B
:1001C000FB020008FB020008000000000000000025
:1001D0000000000000000000FB020008000000001A
:1001E000000000000000000000000000000000000F
:1001F0000000000000000000FB020008FB020008F5
:10020000FB020008FB02000800000000FB020008DF
:10021000FB020008FB020008FB020008FB020008CA
:10022000FB02000800000000FB02000800000000C4
:10023000FB020008FB02000800000000FB020008AF
:10024000FB020008FB020008FB020008FB0200089A
:10025000FB020008FB020008FB020008FB0200088A
:10026000FB020008FB020008FB020008FB0200087A
:10027000FB020008FB020008FB020008000000006F
:10028000FB020008FB020008FB020008FB0200085A
:1002900000000000FB020008FB0200080000000054
:1002A00000000000FB020008FB020008FB0200083F
:1002B000FB020008FB020008FB020008FB0200082A
:1002C000FB020008FB020008FB020008DFF80CD06C
:1002D00000F02AF800480047994600080005002071
:1002E0000648804706480047FEE7FEE7FEE7FEE7D0
:1002F000FEE7FEE7FEE7FEE7FEE7FEE795450008BE
:10030000CD020008D2B201E000F8012B491EFBD259
:1003100070470022F6E710B513460A460446194610
:10032000FFF7F0FF204610BD064C074D06E0E068E1
:1003300040F0010394E8070098471034AC42F6D32C
:10034000FFF7C8FFA0470008E047000810B5324992
:1003500004460068884202D0304A904202D1D1F867
:10036000080302E02E48D0F8080310F4403F10D0F4
:1003700003F066FB6168B1F5803F06D0B1F5003F40
:1003800003D0B1F5403F26D101E0090C17E0800809
:1003900021E000214FF4002002F038FC61688A035C
:1003A000920B18D18A140C2A15D2DFE802F0140639
:1003B00006060606060B0D0F1113890C4900B0FB4B
:1003C000F1F008E0000906E0400904E0800902E0DD
:1003D000C00900E0000A13494008884204D8206898
:1003E000816821F4407108E00F49884207D82068ED
:1003F000816821F4407141F48071816010BD0B4926
:1004000088422068816804D821F4407141F4007169
:10041000F3E741F44071F0E7002002400021024080
:1004200000600258105E5F0020BCBE0040787D0175
:1004300010B5846B216E11F0500F06D0216EC906E5
:1004400025D5204600F0A0FE10BD206E40F40070BF
:10045000206620680168090707D503F07AFE90B18D
:100460002068C068800403D50DE0C06880070AD109
:10047000206E20F480702066206EC00403D4206EAD
:1004800040F001002066204600F07CFE10BDA16D0A
:10049000C96CBDE81040084710B5806B016E41F093
:1004A00040010166416E41F00401416600F06CFEBE
:1004B00010BD10B5806B00F066FE10BD70B504462F
:1004C000006881688268C1F3400112F0010F28D0F2
:1004D00039BB816801F00D01012914D18168124AEC
:1004E0001140891C816021680320086002F072F8C5
:1004F000054612E002F06EF8401B02280DD9206874
:100500008068C00709D0206E40F010002066606E41
:1005100040F001006066012070BD20688068C0075F
:10052000E8D1002070BD0000C0FFFF7F70B5044619
:100530000068816811F0010F40D18168204A1142A2
:100540002DD18168D5432940491C816002F042F8D1
:100550001C49064620681C4B884201D0984201D1B4
:100560001A4A00E01A4A9268984202F01F0200D02C
:10057000014681421DD0E2B120E0816811F0010FF7
:1005800003D181682940491C816002F023F8801B57
:1005900002280ED920680068C043C00709D0206E29
:1005A00040F010002066606E40F00100606601209F
:1005B00070BD20680168C943C907DED1002070BD45
:1005C0003F00008000200240002102400023024042
:1005D00000630258FEE70000014801F03BB800004C
:1005E00084000020294A016891423AD0274A1832F3
:1005F000914236D0254A3032914232D0234A483295
:1006000091422ED0214A603291422AD01F4A78323C
:10061000914226D01D4A9032914222D01B4AA832E4
:1006200091421ED01A4A91421BD0194A1832914267
:1006300017D0174A3032914213D0154A48329142AE
:100640000FD0134A603291420BD0114A7832914256
:1006500007D00F4A9032914203D00D4AA8329142FE
:1006600011D1CAB21823103AB2FBF3F26FF30901A9
:10067000032A02F00703074AD25CC26500D9091DAC
:1006800081650846704721F0FF01F9E7100002403C
:10069000100402408847000830B5224A012301684F
:1006A0009142CAB21BD01F4C1434A14217D01D4C2A
:1006B0002834A14213D01B4C3C34A1420FD0194C1A
:1006C0005034A1420BD0174C6434A14207D0154CD2
:1006D0007834A14203D0134C8C34A1420CD11421A4
:1006E000114C083AB2FBF1F10F4A803201F01F05BC
:1006F00004EB8101AB4010E00C4D1824103A0D447E
:10070000B2FBF4F1A82D00D80831094A01F01F040A
:1007100002EB8101064AA3408032603080E80E007F
:1007200030BD00000854025800580258F0FBFDBFCD
:100730000008024010B50279531E072B2DD8174C24
:100740000168A1421BD0154C1434A14217D0134CA0
:100750002834A14213D0114C3C34A1420FD00F4C8D
:100760005034A1420BD00D4C6434A14207D00B4C45
:100770007834A14203D0094C8C34A14203D10849FA
:10078000074C443102E00749064C443104EB820235
:10079000C0E91B2101219940416710BD085402584E
:1007A000FC580258FC08024010B583694FF0C07431
:1007B000826A0146002053B1B3F5005F15D072B1D3
:1007C000012A0CD0022A0AD0032A09D104E01AB166
:1007D000012A06D0022A03D1C96AC90100D5012025
:1007E00010BDC96AA142FAD010BD002AF7D0012A73
:1007F000F2D0022AF3D0032AF3D010BD2DE9F04F36
:10080000804E804FDFF8FC911836DFF8F8A14837AA
:100810000468856D0AF1300ADFF8ECB14C45DFF869
:10082000ECC1DFF8ECE16DD0B4426BD0544569D037
:10083000BC4267D0DFF8D081A8F11808444561D0E8
:100840005C455FD064455DD074455BD0DFF8C48102
:10085000444557D0DFF8BC8108F11808444551D011
:10086000DFF8B08108F1300844454BD0DFF8A481AF
:1008700008F14808444545D0DFF8988108F1600840
:1008800044453FD0DFF88C8108F17808444539D0E1
:10089000DFF8808108F19008444533D0DFF8748197
:1008A00008F1A80844452DD0DFF86C81444529D0D3
:1008B000DFF8648108F11408444523D0DFF858813B
:1008C00008F1280844451DD0DFF84C8108F13C08A8
:1008D000444517D0DFF8408108F15008444511D055
:1008E000DFF8348108F1640844450BD0DFF8288133
:1008F00008F17808444505D0DFF81C8108F18C0820
:10090000444509D1D0E91948C4F80480C46E1CB12B
:10091000D0E91C48C4F8048004684C452ED0B44289
:100920002CD054452AD0BC4228D0374E183EB44271
:1009300024D05C4522D0644520D074451ED0354E6D
:10094000B4421BD0334E1836B44217D0314E303635
:10095000B44213D02F4E4836B4420FD02D4E6036DD
:10096000B4420BD02B4E7836B44207D0294E903685
:10097000B44203D0274EA836B44215D190F85C603B
:100980003F2406F01F06B440AC600468256825F4D7
:10099000802525602EE09A600068C160BDE8F08F78
:1009A00099600068C260F9E71B4EB4421BD01A4E32
:1009B0001436B44217D0184E2836B44213D0164E0F
:1009C0003C36B4420FD0144E5036B4420BD0124EC7
:1009D0006436B44207D0104E7836B44203D00E4E7F
:1009E0008C36B442DAD190F85C60012406F01F0620
:1009F000B4406C60046863608368402B0368CFD1A7
:100A0000C9E700001000024088000240A000024038
:100A1000B80002401004024008540258704772B6F1
:100A2000FEE70000F8B50027044615460E4600977D
:100A300090F85C0001280BD0012084F85C0020466F
:100A4000FFF73CFD0100206E04D040F010002DE0C7
:100A50000220F8BD20F4885040F002002066206893
:100A600006F4803205F08043134D1A4383682B400F
:100A70001A4342F000428260104A20680EE0009B58
:100A80005B1C0093934209D3206E84F85C7020F0C5
:100A9000020040F0100020660120F8BD8368DB0FE3
:100AA000EDD1206E20F0020040F0010020660846E3
:100AB00084F85C70F8BD0000C0FFFE3F00F8C3255D
:100AC0002DE9F0470F4690F85C109CB004460129D0
:100AD0004FF0000915D00026DFF8F880012084F8D7
:100AE0005C0018961996216841450ED13A4D009543
:100AF000284603F02AFB8246206803F026FB60B1FB
:100B00000EE002201CB0BDE8F087206E84F85C6027
:100B100040F0200020660120F4E7BAF1000F09D070
:100B2000216E4FF0010941F020002066484684F80C
:100B30005C60E7E720684146884201D0A84201D1C5
:100B4000264800E0264840F61F72D7F800C0254B23
:100B5000BCF1000F23D0D0F808C0D7F804802CF4E3
:100B6000404C4CEA080CC0F808C0D4F800C08C45D2
:100B700001D0AC4507D18968AB6801F0010103F0F1
:100B80000103194302E0996801F001010029CDD168
:100B9000BD683968836829439343194317E0876820
:100BA00027F44047876027688F4201D0AF4207D1C2
:100BB0008968AB6801F0010103F00103194302E009
:100BC000996801F001010029B0D1816891438160E9
:100BD000ACE7000000200240002102400023024058
:100BE00000630258006002582DE9F84F4FF0000BE7
:100BF0000446FE4E0D46CDF800B0DA4690F85C0093
:100C0000FB4F012808D04FF0010984F85C90206860
:100C100003F097FA18B154E20220BDE8F88F286873
:100C200000280FDB2168B1420CD0CA69030327D02A
:100C300090FAA0F0B0FA80F000F01F0309FA03F078
:100C40000243CA61D5E900124FF00C0C20681F2343
:100C5000C1F384610CEA921C02F01F0260449340CD
:100C60009140026B9A430A430263206803F069FAD9
:100C70008046206803F061FA58EA000003D048E19A
:100C8000C0F38460D8E7AA682968206803F069FA8D
:100C90002068B04204D1C2686969C2F3C1020BE0A6
:100CA000D44A1268B9EB127F02D0C168C90605D4D4
:100CB000C2686969C2F38202520004E0C2686969CD
:100CC00002F01002520891402A69042A5AD02B6877
:100CD00000EB8202B04202F1600207D103F0F8405B
:100CE0001368084340F00040106008E0D2F800C0EC
:100CF00003F0F84008430CF0004101431160206804
:100D0000B0421CD12A69E96900EB8200026E22F030
:100D100080720A43026695F8201020682A6901292A
:100D20000AD00021B042AAD100EB8200026E22F06C
:100D300000720A430266ECE04FF00071F2E795F8AA
:100D400021202969012A17D05FF0000200EB810001
:100D5000016E21F0004111430166297E20682A6955
:100D600001290CD00021036902F01F02914023F4F5
:100D7000F0420A430261CCE04FF00042E6E74FF454
:100D80000061F0E7B04273D1002103F0D0F9000315
:100D900020684FF000016DD003F0C9F990FAA0F07F
:100DA000B0FA80F12868020369D090FAA0F0B0FA96
:100DB00080F0814204D100222068114603F0E0F95E
:100DC0002068012103F0B3F9000320684FF001010E
:100DD00058D003F0ACF990FAA0F0B0FA80F128688E
:100DE000020354D090FAA0F0B0FA80F0814204D10E
:100DF00020680022012103F0C3F92068022103F0DA
:100E000096F9000320684FF0020143D003F08FF9F8
:100E100090FAA0F0B0FA80F1286802033FD090FA6F
:100E2000A0F0B0FA80F0814204D1206800220221B3
:100E300003F0A6F92068032103F079F90003206884
:100E40004FF003012ED003F072F990FAA0F0B0FA3F
:100E500080F1286802032AD090FAA0F0B0FA80F05E
:100E6000814256D120680022032103F089F950E025
:100E700020E0FFE703F05BF9C0F3846192E7C0F381
:100E8000846096E703F053F9C0F38461A7E7C0F3E9
:100E90008460ABE703F04BF9C0F38461BCE7C0F3B7
:100EA0008460C0E703F043F9C0F38461D1E7C0F385
:100EB0008460D5E7016E2A7801F0F841B1EB826FCA
:100EC00003D1016E21F00041016620682978426E4D
:100ED00002F0F842B2EB816F03D1416E21F0004184
:100EE000416620682978826E02F0F842B2EB816F89
:100EF00003D1816E21F00041816620682978C26E9D
:100F000002F0F842B2EB816F03D1C16E21F00041D3
:100F1000C1662068816811F0010F71D1364AB04274
:100F2000EB6829680FD1D0F8B0C003F01808C1F3FE
:100F3000130322FA08F20A402CEA030C4CEA020CD2
:100F4000C0F8B0C00EE0D0F8C0C003F01808C1F37C
:100F5000130322FA08F20A402CEA030C4CEA020CB2
:100F6000C0F8C0C02548E96881427DD128680103E6
:100F70001BD090FAA0F1B1FA81F1491C01F01F01D8
:100F800009294FEA00313CD8002911D090FAA0F18C
:100F9000B1FA81F101F1010101F01F0109FA01F239
:100FA00009D100BFC0F3846109E0C0F38461E4E7C4
:100FB000C0F38461EEE790FAA0F1B1FA81F101F19A
:100FC000010101F01F0142EA816102D1C0F3846096
:100FD00003E090FAA0F0B0FA80F000F1010000F018
:100FE0001F0000EB400041EA005140E00060025861
:100FF000002102400010005CFFFF0F000000FF47CF
:1010000065E000290FD000BF90FAA0F1B1FA81F19C
:1010100001F1010101F01F0109FA01F206D100BF3F
:10102000C0F3846106E0C0F38461F1E790FAA0F1B7
:10103000B1FA81F101F1010101F01F0142EA816180
:1010400002D1C0F3846003E090FAA0F0B0FA80F01F
:10105000434A00F1010000F01F0000EB400002EBEA
:10106000005041EA000100E005E041F00071AA688B
:10107000206803F076F8D5F800C0BCF1000F26DA3E
:10108000384B20683849DFF8E490984201D0B842E4
:1010900001D10A4600E04A469268984202F0E072A6
:1010A00001D0B84209D19D68D7F8088005F0010544
:1010B00008F0010845EA080502E0B56805F00105F9
:1010C0004DB1216E4FF0010A41F0200020665046DC
:1010D00084F85CB0A1E5264DAC451CD115021AD4AC
:1010E000B042F4D1984202D0B84200D049468B6851
:1010F00042F4000023F0E07202438A601E491D485A
:101100000968B1FBF0F04000801C00E0401E009038
:101110000028FBD1DBE7194DAC450CD1D5010AD431
:10112000B042D4D1984202D0B84200D049468B6830
:1011300042F080700EE0124DAC45C8D15502C6D4C5
:10114000B042C4D1984202D0B84200D049468B6820
:1011500042F4800023F0E07202438A60B7E70000A7
:10116000000020FE002002400023024000630258DD
:10117000000052C7400D03000C000020000021C3F6
:10118000000084CB70477047704700002DE9F8439A
:101190004FF0000504002E46009502D0206E18B1D5
:1011A00008E00120BDE8F883204600F043F96566B9
:1011B00084F85C5020688168C1F3407119B181687E
:1011C0008E4A1140816020688168C1F3007181B945
:1011D00081688B4A114041F0805181608A49894879
:1011E0000968B1FBF0F0401C00E0401E00900028B0
:1011F000FBD120688168C1F3007141B9216E0126DD
:1012000041F010012166616E41F00101616602F05A
:1012100098FF216EC90600D420B1206E012640F04F
:101220001000E0E0206E20F4807040F002002066A4
:1012300020688168754D11F0010F1ED1744B754AFD
:10124000984201D0904207D19968976801F0010156
:1012500007F00107394302E0A96801F0010161B913
:10126000984201D0904201D16B4800E06B488268FF
:10127000616822F47C120A4382602168A9421FD16E
:10128000637ED4E90207E26B5B033A43082805D08A
:101290000C280FD01C280FD018280FD05FF00000AA
:1012A00000F00C0794F8200043EA47031A4342EA8F
:1012B00000400FE00420F3E70820F1E71C20EFE7EF
:1012C000627E94F82030A768E06B520342EA034242
:1012D0003843104394F82020012A04D1A28C504BAB
:1012E00003EB42421043A26A2AB1E36A02F4787225
:1012F000024343EA0200CA68A9420BD1494B1A4093
:101300000243CA602068626B016921F040611143A9
:10131000016103E0444B1A400243CA60206802F0B6
:1013200010FF0746206802F008FF07434ED12068EF
:10133000A946484506D1217E94F83820890341EA20
:10134000420103E0227E216B41EA8231C26844F20D
:1013500003039A430A43C26094F8440001282068BA
:1013600003D0016921F0010122E048450ED1D4E902
:10137000121CD4E9143502692C4F41EA0C012B43AD
:101380003A401943114341F0010111E0D4E9131728
:10139000B4F848C0DFF89880636D026908EB0C4C24
:1013A000224D394343EA0C036D1E2A401943114371
:1013B00001612068236C026922F070421A430261C5
:1013C0002068484502D02046FEF7C0FF206901286A
:1013D00020680BD0016B21F00F010163206E20F01B
:1013E000020040F0010020663046DBE6E269016B56
:1013F000521E21F00F011143EFE70000C0FFFF5F15
:10140000C0FFFF7F400D03000C0000200060025869
:1014100000200240002102400023024000630258E5
:101420000000FEFF0740F0FF03C0F0FF1FF800FCC4
:101430000100FFFFF0B5B5B0064614212EA8FEF757
:1014400068FFB8216846FEF764FF3149306888427A
:101450005BD1022000224FF400210091CDE9012050
:101460001024154606AACDE90340C023059082E862
:10147000290068460995289501F016FD08B1FFF787
:10148000CEFA2448016841F020010160006800F0B4
:10149000200033901F480830016841F001010160CD
:1014A000016801F001013391016841F0040101601C
:1014B000006803272EA9309500F004003390202007
:1014C000CDE92E07144800F077FF14482EA9CDE986
:1014D0002E47309500F070FF114C092111484FF450
:1014E000807C021584E82300D700C4E90352C314AA
:1014F0002046C4E907C56562C4E9053700F01EFC53
:1015000008B1FFF78CFAB465A66335B0F0BD0000F2
:1015100000200240D8440258000002580008025837
:1015200084000020100002402DE9F047404E0446A0
:1015300000689146DFF8FC808A46B04201D0404501
:1015400001D13D4900E03D49896801F01F0502F0E5
:10155000F8FD00286AD194F85C00012866D00120CB
:101560004FF0000784F85C0025B1052D02D0092D4D
:1015700000D003E02046FEF7D9FF18B184F85C7074
:10158000BDE8F087216E40F601632068994340452D
:1015900041F48071216600D00646864200D01DB914
:1015A000206E20F480102066206EC00404D5606E8A
:1015B00020F00600606600E067661C20A26D214BEB
:1015C0001F49D363A36D204A1A64A36D1F4ADA64CE
:1015D0002268106084F85C702068426842F0100253
:1015E0004260206888420DD194F83810C26822F019
:1015F000030242EA4102C2602068C16841F0010171
:10160000C16005E0C268216B22F003020A43C26098
:1016100021684B46A06D5246403100F06DFD2168B7
:101620000B4B8A681A40121D8A60A9E70220A7E7BF
:1016300000200240002102400023024000630258C3
:101640000060025831040008B3040008990400083F
:10165000C0FFFF7F2DE9FC5F0446F74E0020DFF856
:10166000D88300904FF41652F44808F11808A56D7D
:10167000DFF8C493DFF8C0A3016809F130092068DE
:101680000AF1480AB1FBF2F1B04201912F68D5F896
:1016900000C0DFF8ACB335D04146884232D048456F
:1016A00030D050452ED058452CD0E54918318842CD
:1016B00028D0E3493031884224D0E149483188427A
:1016C00020D0E04988421DD0DE491831884219D027
:1016D000DC493031884215D0DA494831884211D08E
:1016E000DFF860E30EF1600E70450BD0D54A78321A
:1016F000904207D0D34B9033984203D0D149A831C0
:1017000088427DD194F85C20082102F01F0201FA82
:1017100002F23A424AD0B04232D0404530D0484539
:101720002ED050452CD058452AD0C54A1832904268
:1017300026D0C34A3032904222D0C14A4832904229
:101740001ED0C04A90421BD0BE4A1832904217D0D9
:10175000BC4A3032904213D0BA4A483290420FD03D
:10176000B84A603290420BD0B64A7832904207D0E5
:10177000B44A9032904203D0B24AA832904203D188
:10178000026802F0040202E0026802F008026AB194
:10179000026822F00402026094F85C0000F01F006E
:1017A0008140A960606D40F00100606594F85C00C4
:1017B000012100F01F008140394240D02068B04232
:1017C00034D0404532D0484530D050452ED05845D1
:1017D0002CD09B4A1832904228D0994A30329042FD
:1017E00024D0974A4832904220D0964A90421DD049
:1017F000944A1832904219D0924A3032904200E016
:10180000AFE113D08F4A483290420FD08D4A6032F8
:1018100090420BD08B4A7832904207D0894A90325E
:10182000904203D0874AA83290427DD1406910F09F
:10183000800F04D0A960606D40F00200606594F8EC
:101840005C00042100F01F00814039423ED0206836
:10185000B04232D0404530D048452ED050452CD0F3
:1018600058452AD0764A1832904226D0744A3032EF
:10187000904222D0724A483290421ED0714A904221
:101880001BD0704A1832904217D06E4A30329042C4
:1018900013D06C4A483290420FD06A4A603290426C
:1018A0000BD0684A7832904207D0664A9032904214
:1018B00003D0644AA83290424ED1006810F0020F63
:1018C00004D0A960606D40F00400606594F85C008D
:1018D000102100F01F008140394258D02068B042EA
:1018E00034D0404532D0484530D050452ED05845B0
:1018F0002CD0534A1832904228D0514A303290426C
:1019000024D04F4A4832904220D04E4A90421DD0B7
:101910004C4A1832904219D04A4A3032904215D07F
:10192000484A4832904200E014E00FD0454A603205
:1019300090420BD0434A7832904207D0414A9032CD
:10194000904203D03F4AA832904207D1006800F08D
:10195000080006E0006872E70068B7E7006800F07A
:101960000400A0B1A96020680168490304D500689B
:10197000000308D5A16C07E00168C90503D401681C
:1019800021F008010160216C09B12046884794F8D4
:101990005C00202100F01F008140394279D020688E
:1019A000B04232D0404530D048452ED050452CD0A2
:1019B00058452AD0224A1832904226D0204A303246
:1019C000904222D01E4A483290421ED01D4A904278
:1019D0001BD01C4A1832904217D01A4A303290421B
:1019E00013D0184A483290420FD0164A60329042C3
:1019F0000BD0144A7832904207D0124A903290426B
:101A000003D0104AA832904203D1006800F01000C1
:101A100002E0006800F00200B0B3A96094F835005D
:101A20000428206801680FD049037ED500680003B0
:101A30002BD4616C2AE00000100002400C00002052
:101A4000700002401004024021F01601016020687D
:101A5000416921F080014161206C08B9A06C20B17E
:101A60002068016821F00801016094F85C303F2192
:101A7000012003F01F0300229940A96084F835007B
:101A800084F83420216D65E003E0E16B09B1204664
:101A90008847606D00287DD0606DC00759D02068F0
:101AA000042184F83510B0422BD0404529D0484558
:101AB00027D0504525D0584523D09D49884220D075
:101AC0009B49183188421CD099493031884218D03E
:101AD0009849884215D097491831884211D09549C4
:101AE000303188420DD093494831884209D091491C
:101AF0006031884205D08F497831884201D08D49C4
:101B00009031016821F00101016020680099019A7B
:101B1000491C0091914202D80168C907F6D10068BA
:101B2000C00710D003200FE0FFE70168C905ACD45F
:101B300003680121002223F01003036084F83510AC
:101B400084F83420A1E7012084F83500002084F8CF
:101B50003400E16C00291DD002B02046BDE8F05FE2
:101B60000847754988421DD073491431884219D0FD
:101B700071492831884215D06F493C31884211D0D3
:101B80006D49503188420DD06B496431884209D08B
:101B9000694900E084E07831884203D066498C319D
:101BA00088427DD194F85C800427016808F01F0802
:101BB00007FA08F717EA0C0F009746D04F0744D5ED
:101BC00000980F04686003D5C8033CD4A16CC1E73A
:101BD000880638D42068B0422DD0554960398842F3
:101BE00029D0484527D0504525D0584523D05049C5
:101BF000884220D04E49183188421CD04C4930319F
:101C0000884218D04B49884215D04A491831884239
:101C100011D04849303188420DD046494831884278
:101C200009D0704507D0904205D0984203D0414971
:101C3000A831884203D1016821F0080102E001685F
:101C400021F004010160216C84E7022707FA08F7FC
:101C500017EA0C0F00974ED08F074CD500980F0451
:101C6000686003D5C80344D4616C73E7880640D428
:101C70002068B0422FD02E49603988422BD0484589
:101C800029D0504527D0584525D02949884222D00F
:101C90002749183188421ED025493031884200E05A
:101CA00044E018D02349884215D02249183188428F
:101CB00011D02049303188420DD01E494831884228
:101CC00009D0704507D0904205D0984203D01949F9
:101CD000A831884203D1016821F0140102E00168B3
:101CE00021F00A010160012184F83510002084F8F8
:101CF0003400E16B2EE7082202FA08F212EA0C0F18
:101D000014D0090712D5016821F00E01016094F882
:101D10005C100120002201F01F0100FA01F169604E
:101D2000606584F8350084F8342012E7BDE8FC9F34
:101D30008800024010040240085402582DE9F05F68
:101D4000044600F047FC002C07467DD0E24E0221FD
:101D500020684FF00308DFF884934FF00005DFF8A8
:101D600080A3B042DFF87CB334D0DB4A1832904213
:101D700030D048452ED050452CD058452AD0D94A8D
:101D80001832904226D0D74A3032904222D0D54ADB
:101D9000483290421ED0D44A90421BD0D24A1832C8
:101DA000904217D0D04A3032904213D0CE4A4832B7
:101DB00090420FD0CC4A603290420BD0CA4A78325F
:101DC000904207D0C84A9032904203D0C64AA83207
:101DD00090427DD184F83510B04284F834502ED032
:101DE000BD49183188422AD0484528D0504526D0D0
:101DF000584524D0BB491831884220D0B9493031E8
:101E000088421CD0B7494831884218D0B649884228
:101E100015D0B5491831884211D0B34930318842C4
:101E20000DD0B1494831884209D0AF49603188426C
:101E300005D0AD497831884201D0AB499031016875
:101E400021F00101016008E025E100BF00F0C2FBC4
:101E5000C01B052801D920211AE120680068C007AD
:101E6000F4D1D4E902032168103418438E4694E873
:101E70008410D4E9033809683A4310439B4A40EA86
:101E80000C00676918431140103C40EA0800042F19
:101E900040EA010003D1D4E90B1211430843616801
:101EA000A1F12902052A0BD9163A032A08D9083AC2
:101EB000012A05D9083A032A02D97439032901D81D
:101EC00040F48010CEF800002068676A406900E0A6
:101ED00020E0042F20F0070047EA00070DD1D4E9E5
:101EE0000A01074349B12046FEF75EFC28B14020B5
:101EF0006065012184F83510CDE0206847612046F7
:101F0000FEF770FB94F85C203F2102F01F02914025
:101F1000816055E0764A90421BD0754B143398424D
:101F200017D0734B2833984213D0714B3C339842EF
:101F30000FD06F4B503398420BD06D4B64339842A7
:101F400007D06B4B7833984203D0694B8C3398425F
:101F50007ED184F8351084F83450664B0168A2684D
:101F600001EA030E402A74D0802A73D05FF0000289
:101F7000D4E90378D4E9053142EAD70242EAD80825
:101F80005B4AD4E9077C48EAD30848EAD10141EA30
:101F9000D701524241EA1C11142341EA0E010160AB
:101FA00020681044B0FBF3F08000E0652046FEF7A7
:101FB00019FB94F85C20012102F01F02914041605E
:101FC0002068B04257D044491831884253D0484520
:101FD00051D050454FD058454DD0424918318842D4
:101FE00049D040493031884245D03E494831884245
:101FF00041D03D4988423ED03B49183188423AD0D1
:1020000039493031884236D037494831884232D058
:102010003549603188422ED03349783188422AD000
:1020200031499031884226D02F49A831884222D0A8
:102030002F4988421FD02E49143188421BD02C4989
:102040002831884217D02A493C31884213D002E017
:102050001DE017E018E02649503188420BD0244992
:102060006431884207D022497831884203D0204920
:102070008C31884229D12046FEF70EFBA0688028CB
:102080000CD00CE0102273E74FF4804270E740213F
:10209000616584F835800120BDE8F09F6560216EA0
:1020A00020790860D4E9190141606068401E072862
:1020B00008D82046FEF73EFBE06E0560D4E91C011F
:1020C000416002E0E566256765670120656584F883
:1020D00035000020E0E70000100002404000024010
:1020E0005800024070000240100402403F8010FE81
:1020F000085402580F00FEFF2DE9F84F04008C46EB
:102100004FF00000009014D094F83400012812D051
:1021100094F835500120002184F83400012D0CD0B2
:10212000C00260650120009084F834100098BDE87A
:10213000F88F0120FBE70220F9E78C4D022620688A
:1021400084F83560A8428A4D61658A4E8A4FDFF86F
:102150002C82DFF82C92DFF82CA2DFF82CB226D0EC
:10216000A84224D0B04222D0B84220D040451ED050
:1021700048451CD050451AD0584518D0834988424C
:1021800015D082491831884211D0804930318842B7
:102190000DD07E494831884209D07C49603188425F
:1021A00005D07A497831884201D078499031016868
:1021B00021F00101016061462046FEF71FFB6B49DB
:1021C000206888422CD0A8422AD0B04228D0B842F9
:1021D00026D0404524D0484522D0504520D05845EF
:1021E0001ED06A4A90421BD0684A1832904217D0DB
:1021F000664A3032904213D0644A483290420FD03F
:10220000624A603290420BD0604A7832904207D0E6
:102210005E4A9032904203D05C4AA83290420CD180
:10222000026822F01E0242F016020260206C88B1A1
:102230002068026842F008020BE0026822F00E02F9
:1022400042F00A020260206C20B12068026842F06D
:1022500004020260206888424BD0A84249D0B042B4
:1022600047D0B84245D0404543D0484541D050457D
:102270003FD058453DD0454A90423AD0434A183263
:10228000904236D0414A3032904232D03F4A4832B2
:1022900090422ED03D4A603290422AD03B4A78325A
:1022A000904226D0394A9032904222D0374AA83202
:1022B00090421ED0364A90421BD0354A143290428A
:1022C00017D0334A2832904213D0314A3C329042E0
:1022D0000FD02F4A503290420BD02D4A6432904298
:1022E00007D02B4A7832904203D0294A8C32904250
:1022F0000DD1206E0268D20303D5026842F48072C9
:102300000260E06E18B1026842F4807202602068D8
:10231000884226D0A84224D0B04222D0B84220D051
:1023200040451ED048451CD050451AD0584518D0BD
:102330001649884215D015491831884211D01349E1
:10234000303188420DD011494831884209D00F49B7
:102350006031884205D00D497831884201D00B495F
:102360009031016841F001010160DFE61000024098
:102370002800024040000240580002407000024025
:1023800088000240A0000240B80002401004024051
:102390000854025870B5044600F01CF90546601C4C
:1023A00002D004480078044400F014F9401BA04215
:1023B000FAD370BD000000202DE9F84F03247A4DB8
:1023C00000234FF001094FF0B04B4FF00F0AE4E04B
:1023D00009FA03F6324078D00F7907F00307012F8E
:1023E00001D0022F1AD187684FEA430ED1F80CC0F2
:1023F00004FA0EF827EA08070CFA0EFC4CEA070C60
:10240000C0F808C0476891F804C0B743CCF3001C7B
:102410000CFA03FC4CEA070CC0F804C00E79F64332
:10242000B6070BD0C6684FEA43088F6804FA08FC69
:1024300026EA0C0607FA08F73743C7600E7906F05C
:102440000306022E12D1DE080F694FEA437C00EB2F
:102450008606B646366A4FEADC6C0AFA0CF807FACA
:102460000CF726EA08063743CEF820700F79066885
:102470004FEA430807F0030704FA08FC07FA08F7D5
:1024800026EA0C06374307604E6816F4403F1CD01E
:10249000464E376847F00207376036689F0706F0F8
:1024A0000206009623F0030606F1B046B6463F0F3B
:1024B000D6F80864DFF8F8800AFA07FC404526EAF7
:1024C0000C0603D14FF0000C3AE065E0DFF8E4C001
:1024D000604502D14FF0010C32E0DFF8DCC060450E
:1024E00002D14FF0020C2BE0DFF8D0C0604502D1E2
:1024F0004FF0030C24E0DFF8C8C0604502D14FF074
:10250000040C1DE0DFF8BCC0604502D14FF0050CA3
:1025100016E0DFF8B4C0604502D14FF0060C0FE0C2
:10252000DFF8A8C0604502D14FF0070C08E0DFF8E3
:10253000A0C0604502D14FF0090C01E04FF00A0C39
:102540000CFA07FC4CEA060CCEF808C44F68DBF81E
:102550000060FF0226EA020600D516435F46CBF86C
:102560000060D1F804C0DBF804605FEA8C2C26EA36
:10257000020600D516437E606E684F6826EA0206A2
:10258000BF0300D516436E602E684F6826EA020628
:10259000FF0300D516432E605B1C0A6832FA03F66F
:1025A0007FF416AFBDE8F88F80000058F44402585D
:1025B000000002580004025800080258000C02589B
:1025C000001002580014025800180258001C02584B
:1025D0000024025801488068704700000000002075
:1025E0000248816802781144816070470000002031
:1025F000032010B500F0D4F801F056FA0F4A104944
:1026000014681368C4F3032203F00F038A5CC95CE7
:1026100002F01F0201F01F01D0400A4A20FA01F126
:102620001160094908600F2000F010F808B101207E
:1026300010BD00F079F8002010BD000018440258C9
:1026400090470008100000200C00002070B50D4DD0
:1026500004462878A0B14FF47A71B1FBF0F00A4932
:102660000968B1FBF0F001F04EFD48B9102C07D21B
:1026700000222146501E00F073F800206C6070BDEF
:10268000012070BD000000200C000020154BF0B5AB
:10269000083B427813491A600B680A1F23F00103B4
:1026A0000B6043681360057BC67A827A437B2D07F3
:1026B000847B45EA0665C77B90F809C0067A90F8E6
:1026C00000E045EAC24040EA834040EA444040EA34
:1026D000074040EA0C2040EA460040EA0E0008604D
:1026E000F0BD0000A0ED00E0BFF35F8F04480021C3
:1026F0000368034A23F4803303607032116070472B
:1027000024ED00E0074A40F00100064970321060F5
:10271000086840F480300860BFF34F8FBFF36F8FBD
:102720007047000024ED00E0054808B5016841F05D
:1027300002010160006800F00200009008BD000086
:10274000F4440258002809DB410900F01F02890007
:10275000012001F1E0219040C1F800017047000024
:102760000E4BF0B41B680D46C3F30223C3F10706FA
:10277000042E00D90426191D072901D2002300E0E8
:10278000DB1E012404FA06F19C40491E2940641E08
:10279000994014402143F0BC01F05DBF0CED00E016
:1027A000064900F0070210B54FF6FF040868044B15
:1027B000204040EA02201843086010BD0CED00E004
:1027C0000000FA05134970B50A68D243520705D5CF
:1027D000096801F00701814213D118E00A6822F06C
:1027E000070202430A60FFF7F5FE0A4D4FF47A76BE
:1027F0000446083D07E000BFFFF7ECFE001BB042B7
:1028000001D9012070BD2868C0438004F4D40020A1
:1028100070BD00000C48025810B501F011F90549CF
:102820000968054AC1F30211515C01F01F01C8405B
:1028300010BD000020440258904700084A4930B5B6
:10284000494C0B1D0A680C3409681D68246802F0A5
:10285000030305F00102C1F30511C4F3CC04002900
:1028600014FB02F200EE102AF8EE400A76D0414A3C
:102870009FED3E1ADFED3E1AB7EE000A23B1012BA1
:102880005AD0022B18D15CE0374C283C23689B06B9
:1028900012D5394B246801EE901A1168C4F3C104B3
:1028A000F8EE612AE34001EE903AC1F30801F8EE38
:1028B000611A81EEA22A07E002EE101A1168F8EE02
:1028C000422A81EEA22A45E001EE901A1168F8EE44
:1028D000611A40EE811A71EE800A62EE200AC1F39D
:1028E000462101EE101AB8EE411A31EE001AC0EE80
:1028F000811ABCEEE11A80ED001A1168C1F306419D
:1029000001EE101AB8EE411A31EE001AC0EE811A2B
:10291000BCEEE11A80ED011A1168C1F3066101EE07
:10292000101AB8EE411A31EE000A80EE801ABCEEA1
:10293000C10A80ED020A30BD01EE901ADFED0F2AC8
:1029400003E001EE901ADFED0E2A1168F8EE611A2D
:1029500082EEA12AC1F30801B6E7FFE7002101607A
:102960004160816030BD00002844025800000039F9
:102970000024744C304402580090D0030024744A60
:10298000001BB74B494930B5484C0B1D0A6814343D
:1029900009681D68246802F00303C5F30012C1F33F
:1029A0000531C4F3CC04002914FB02F200EE102A16
:1029B000F8EE400A75D03F4A9FED3D1AB7EE000A87
:1029C0006BB1DFED3D1A012B01D0022B64D002EE7A
:1029D000101A1168F8EE422A81EEA22A21E0334C47
:1029E000283C23689B0612D5344B246801EE901ACC
:1029F0001168C4F3C104F8EE612AE34001EE903A95
:102A0000C1F30801F8EE611A81EEA22A0BE001EE93
:102A1000901ADFED2B2A00BFF8EE611A116882EEE2
:102A2000A12AC1F3080101EE901A1168F8EE611AAB
:102A300040EE811A71EE800A62EE200AC1F346214F
:102A400001EE101AB8EE411A31EE001AC0EE811AEA
:102A5000BCEEE11A80ED001A1168C1F3064101EEE7
:102A6000101AB8EE411A31EE001AC0EE811ABCEE0F
:102A7000E11A80ED011A1168C1F3066101EE101A26
:102A8000B8EE411A31EE000A80EE801ABCEEC10A9F
:102A900080ED020A30BD04E001EE901ADFED092A54
:102AA000BAE70021016041608160F3E728440258E1
:102AB00000000039384402580024744A0090D003C2
:102AC0000024744C001BB74B494930B5484C0B1DD2
:102AD0000A681C3409681D68246802F00303C5F302
:102AE0000022C1F30551C4F3CC04002914FB02F207
:102AF00000EE102AF8EE400A75D03F4A9FED3D1ACD
:102B0000B7EE000A6BB1DFED3D1A012B01D0022BAD
:102B100064D002EE101A1168F8EE422A81EEA22A61
:102B200021E0334C283C23689B0612D5344B2468A3
:102B300001EE901A1168C4F3C104F8EE612AE34073
:102B400001EE903AC1F30801F8EE611A81EEA22A73
:102B50000BE001EE901ADFED2B2A00BFF8EE611AB0
:102B6000116882EEA12AC1F3080101EE901A1168E2
:102B7000F8EE611A40EE811A71EE800A62EE200AC8
:102B8000C1F3462101EE101AB8EE411A31EE001AD7
:102B9000C0EE811ABCEEE11A80ED001A1168C1F393
:102BA000064101EE101AB8EE411A31EE001AC0EEDD
:102BB000811ABCEEE11A80ED011A1168C1F30661B9
:102BC00001EE101AB8EE411A31EE000A80EE801ABA
:102BD000BCEEC10A80ED020A30BD04E001EE901A9D
:102BE000DFED092ABAE70021016041608160F3E767
:102BF0002844025800000039404402580024744A16
:102C00000090D0030024744C001BB74B2DE9F04F0B
:102C1000A14A0546DFF87CA280F48070DFF880923C
:102C200089B013119F4C08439C48AAF104064FF049
:102C3000805C4FF0005828D0DFF858B285F48067E8
:102C40000F430BF1080B4FD085F400670F4360D0A2
:102C500085F480570F4372D085F400570F434FF42B
:102C600080394FF4003E69D085F400270F4373D0BC
:102C700085F480370F4370D085F480460E436DD0C5
:102C800085F400420A436AD02AE0DAF8001001F025
:102C90000701052924D2DFE801F0F9AA6A259F007F
:102CA00006A8FFF7CBFD079809B0BDE8F08F68468E
:102CB000FFF768FE0098F7E703A8FFF705FF039802
:102CC000F2E72068C0F3C10022FA00F0ECE72268C6
:102CD000D2056ED561456CD11846E5E74145E3D094
:102CE0000020E1E74846DFE7DBF8001001F460016F
:102CF000B1F5800F3BD005DC00294AD0B1F5001FAB
:102D0000EED174E0B1F5C00FECD0B1F5000FE7D112
:102D100062E0DBF8001001F0E061B1F1007F26D045
:102D200004DCB1B3B1F1807FDAD160E0B1F1407F72
:102D3000D8D0B1F1806FD3D14EE000E01BE0DAF8DB
:102D4000001001F4E041B1F5005F10D008DC01B3E0
:102D5000B1F5805FC4D14AE035E058E065E088E035
:102D6000B1F5405FBED0B1F5804FB9D134E02068F5
:102D70008000B5D5A0E7DAF8001001F4E021B1F544
:102D8000403F6DD006DC61B149457BD07145A7D18C
:102D900058E07BE0B1F5802F66D0B1F5A02F9FD130
:102DA0000DE000F06FFE7FE76846FFF7EBFD01984E
:102DB0007AE728E003A8FFF787FE049874E7216804
:102DC00089038AD48CE7DBF8001011F440310ED06F
:102DD000494510D0714583D13168256801F04051D3
:102DE0006D077FF574AF00297FF471AF69E7206844
:102DF0000001E7D55BE720688000E3D503A8FFF773
:102E000063FE059850E722689203DBD566E73068D9
:102E100010F480303AD04845D4D120680001D1D593
:102E20006846FFF7AFFD02983EE7DBF8001001F0BF
:102E3000E041B1F1405F13D008DC71B1614521D0B0
:102E40004145BFD120688000B4D449E7B1F1804F3B
:102E50000AD0B1F1A04FB2D042E7FFF7DDFC23E783
:102E600020684007AED52CE72068C005AAD533E717
:102E700008E0DAF8001011F04051A0D0614505D00B
:102E800041459FD1206800018ED429E72068800148
:102E900098D505E7504402580090D00300366E01E3
:102EA0000080BB00004402582DE9FE4F0546DFF8C4
:102EB00000A450F8081B0024FD4FC943019005F100
:102EC000280026460AF1240A009008011DD4686EE5
:102ED00050B1B0F5801F0CD0B0F5001F0ED0B0F58A
:102EE000401F1ED001240FE0386840F400303860E5
:102EF00017E00198022101F0DFF903E000980221B8
:102F000001F06AFA04000CD026462888C043C005A8
:102F100023D4A86D05281ED2DFE800F00C11161B83
:102F20001B006A6EDAF8001021F440111143CAF850
:102F30000010EAE7386840F40030386009E0019892
:102F4000002101F0B9F903E00098002101F044FAF2
:102F50000446C4B100E0012426462888DFF85083E7
:102F6000C04308F12C0840052FD4D5F8A400B0F5D3
:102F7000C00F28D010DCB8B1B0F5001F19D0B0F5E3
:102F8000800F0FD11AE0AA6DDAF8001021F00701C6
:102F90001143CAF80010E0E7B0F5000F13D0B0F508
:102FA000200F10D001240FE0386840F40030386062
:102FB00009E00198002101F07FF903E00098002169
:102FC00001F00AFA044694B126462888C043000559
:102FD00030D4D5F8A800B0F1407F29D011DCC0B1C1
:102FE000B0F1807F1AD0B0F1007F10D11BE0D5F88E
:102FF000A420D8F8001021F460011143C8F8001093
:10300000E3E7B0F1806F13D0B0F1A06F10D00124CE
:103010000FE0386840F40030386009E00198002182
:1030200001F04AF903E00098002101F0D5F90446C7
:1030300094B126462868DFF878B2C0430BF1200B24
:1030400080011FD4E86CD8B110280FD0202812D0EE
:10305000302815D0012414E0D5F8A820D8F80010A5
:1030600021F0E0611143C8F80010E3E7386840F44C
:103070000030386004E00198022101F01DF9044697
:1030800074B126462888C043C0042BD4E86DB0F53F
:10309000005F20D00DDCA0B1B0F5805F0FD115E04E
:1030A000EA6CDBF8001021F030011143CBF800107E
:1030B000E8E7B0F5405F13D0B0F5804F10D00124A1
:1030C0000FE0386840F40030386009E001980021D2
:1030D00001F0F2F803E00098002101F07DF90446C8
:1030E0008CB126462888C043800429D4286EB0F5C8
:1030F000403F23D010DC08B3B0F5803F14D0B0F5CA
:10310000003F0FD115E0EA6DDAF8001021F4E0413C
:103110001143CAF80010E5E7B0F5802F0ED0B0F5E6
:10312000A02F0BD001240AE00198012101F0C4F87E
:1031300003E00098012101F04FF9044694B12646BE
:103140002888C04340042AD4D5F8AC00B0F1405FD1
:1031500023D010DC08B3B0F1805F14D0B0F1005F71
:103160000FD115E02A6EDAF8001021F4E0211143A6
:10317000CAF80010E4E7B0F1804F0ED0B0F1A04FD4
:103180000BD001240AE00198012101F095F803E039
:103190000098012101F020F9044674B126462888E0
:1031A000C04300041FD4E86ED8B1B0F1805F0ED0E8
:1031B000B0F1005F10D0012414E0D5F8AC20D8F8AD
:1031C000001021F0E0411143C8F80010E7E738682B
:1031D00040F40030386004E00198012101F06CF8FF
:1031E000044674B126462868C043C0011ED4A86CAA
:1031F000D0B101280ED0022811D0032814D0012408
:1032000013E0EA6EDAF8001021F040511143CAF8D9
:103210000010E8E7386840F40030386004E00198B6
:10322000022101F049F804466CB126462868C043E3
:10323000400255D41F48016841F480710160FFF7D6
:10324000C9F981460EE0AA6CDBF8001021F00301F9
:103250001143CBF80010E9E7FFF7BCF9A0EB090038
:1032600064283BD813480068C005F5D5BCBBDFF81F
:103270004090B5F8B01009F14409D9F8000001F404
:10328000407100F44070884211D0D9F80010D9F88C
:10329000002021F4407142F48032C9F80020D9F8AE
:1032A000002022F48032C9F80020C9F8001003E0A1
:1032B0002C44025800480258D5F8B000B0F5807F81
:1032C00019D1FFF787F9029011E000BFFFF782F9EB
:1032D0000299411A41F28830814208D903242646D6
:1032E0002878DFF81494C043C00721D03CE0D9F817
:1032F00000008007EAD5D5F8B010C1F301200328FB
:10330000FE480DD0016821F47C510160B5F8B02071
:10331000D9F80010C2F30B021143C9F80010DFE71F
:10332000F74A036802EA111223F47C511143ECE7D7
:10333000A86F182816D005DCA0B1082808D01028DE
:1033400004D10AE020280DD028280BD001240AE05F
:103350000198012100F0B0FF03E00098012101F085
:103360003BF8044664B126462878C04380071ED443
:10337000686F062819D2DFE800F0160C1116161631
:10338000AA6FD9F8001021F038011143C9F80010D4
:10339000EAE70198012100F08FFF03E00098012186
:1033A00001F01AF804467CB100E001242646287892
:1033B000C04340071FD4D5F89000062819D2DFE893
:1033C00000F0160C111616166A6FD9F8001021F0CD
:1033D00007011143C9F80010E9E70198012100F045
:1033E0006BFF03E00098012100F0F6FF0446A4B152
:1033F00000E0012426462878C04380062BD4D5F867
:103400008C00B0F1405F24D011DC10B3B0F1805FCC
:1034100015D0B0F1005F10D116E0D5F89020D8F8A3
:10342000001021F007011143C8F80010E3E7B0F1E4
:10343000804F0ED0B0F1A04F0BD001240AE00198CC
:10344000002100F039FF03E00098022100F0C4FFE2
:10345000044694B126462878C04340062BD4D5F8BC
:103460009800B0F5406F24D011DC10B3B0F5806F38
:1034700015D0B0F5006F10D116E0D5F88C20D9F832
:10348000001021F0E0411143C9F80010E3E7B0F566
:10349000805F0ED0B0F5A05F0BD001240AE0019848
:1034A000002100F009FF03E00098022100F094FFE2
:1034B000044694B126462878C04300062BD4D5F89C
:1034C0009C00B0F5C04F24D011DC10B3B0F5005F04
:1034D00015D0B0F5804F10D116E0D5F89820D8F867
:1034E000001021F4E0511143C8F80010E3E7B0F5F3
:1034F000004F0ED0B0F5204F0BD001240AE0019808
:10350000002100F0D9FE03E00098022100F064FFE2
:10351000044654B126462878C04300071ED4D5F887
:103520008000B0F5805F0AD00FE0D5F89C20D8F875
:10353000001021F460411143C8F80010EBE7009837
:10354000022100F049FF00B10126D5F88020D9F80A
:10355000001021F440511143C9F800102878C043ED
:10356000C00613D4D5F89400B0F5807F05D100983B
:10357000022100F031FF00B10126D5F89420D8F8DF
:10358000001021F440711143C8F800102868C043AE
:10359000000316D4D5F8A00038B1B0F5803F09D0AB
:1035A000B0F5003F0BD001240AE00198002100F0A3
:1035B00083FE03E00098022100F00EFF04468CB168
:1035C00026462868C043400322D4D5F88400B0F5CD
:1035D000801F11D0B0F5001F13D0B0F5401F15D0DB
:1035E000012414E0D5F8A020D8F8001021F44031CF
:1035F0001143C8F80010E4E7386840F40030386040
:1036000004E00098012100F0E7FE04465CB1264684
:103610002868C043C0031CD4286D70B1B0F5803F4A
:1036200010D0012414E0D5F88420D9F8001021F43A
:1036300040111143C9F80010EAE7386840F400303F
:10364000386004E00198022100F036FE0446DCB147
:1036500026462868C043800005D40098022100F067
:10366000BBFE00B101262868C04380031BD4E86F6D
:10367000B8B1B0F5807F10D0B0F5007F11D0B0F5B3
:10368000407F0ED001240DE02A6DDBF8001021F4FC
:1036900080311143CBF80010DBE7386840F400308C
:1036A00038607CB326462868C043C00207D42A6F1E
:1036B000DAF8001021F000411143CAF80010286820
:1036C000C043800207D4AA6EDAF8001021F080719E
:1036D0001143CAF800102868C043400009D40748C5
:1036E000016821F4004101600168D5F8B42011435C
:1036F00001602868C04306E0544402581044025850
:10370000CFFFFF001DE007D46A6DDBF8001021F049
:1037100040511143CBF800102868C043000208D480
:10372000D5F88820D9F8001021F440011143C9F8D8
:10373000001028790024C04300F00100204309D084
:103740000EE0EA6FD9F8001021F440711143C9F876
:103750000010A8E70198002100F0AEFD00B1064678
:103760002879C04300F00200204305D101980121CF
:1037700000F0A2FD00B106462879C04300F0040025
:10378000204305D10198022100F096FD00B10646C4
:103790002879C04300F00800204305D1009800219B
:1037A00000F01AFE00B106462879C04300F0100070
:1037B000204305D10098012100F00EFE00B106461D
:1037C0002879C04300F02000044304D1009802216E
:1037D00000F002FE00B916B10120BDE8FE8F002006
:1037E000FBE700002DE9F05F04000F467ED0DFF814
:1037F0003882D8F8000000F00F00B8420CD2D8F898
:10380000001021F00F013943C8F80010D8F800006B
:1038100000F00F00B84269D12078844D40070AD5E6
:103820002069296801F07001884204D9296821F0D3
:1038300070010143296020787C4E361D00070AD5AF
:103840006069316801F07001884204D9316821F063
:103850007001014331602078C0060AD5A069316843
:1038600001F4E061884204D9316821F4E061014348
:1038700031602078DFF8B4B180060BF1080B0CD56D
:10388000E1695846DBF8002002F07002914204D949
:10389000026822F070020A430260207880070AD58D
:1038A000E068296801F00F01884204D9296821F0F5
:1038B0000F01014329602078C0073ED05B49A26810
:1038C0002868183920F47060104328606068022866
:1038D00018D0032819D00968012819D049070029F0
:1038E0004ADADFF848A1AAF1080A00E044E0DAF871
:1038F000002022F007020243CAF80020FEF76AFE09
:10390000814612E009688903E9E709688901E6E769
:10391000C905E4E7FEF75EFEA0EB090141F288303D
:10392000814202D90320BDE8F09F6168DAF8000007
:1039300000F03800B0EBC10FECD1207880070AD539
:10394000E068296801F00F01884204D2296821F05B
:103950000F0101432960D8F80010404601F00F0123
:10396000B9420BD9016821F00F01394301600068A9
:1039700000F00F00B84201D00120D4E720784007C2
:103980000AD52069296801F07001884204D22968AB
:1039900021F0700101432960207800070AD5606991
:1039A000316801F07001884204D2316821F0700161
:1039B000014331602078C0060AD5A069316801F45E
:1039C000E061884204D2316821F4E0610143316052
:1039D000207880060CD5E1695846DBF8002002F01B
:1039E0007002914204D2026822F070020A4302601F
:1039F00000F05AF80E492A682B68C2F3032203F03C
:103A00000F038A5CC95C02F01F0201F01F01D04065
:103A1000084A20FA01F11160074908600748006868
:103A2000BDE8F05FFEF712BE0020005218440258B5
:103A300090470008100000200C0000200400002027
:103A400030B500F031F80B4A0B490C4B156814687F
:103A5000C5F3032204F00F048A5C095D02F01F0223
:103A600001F01F01D040064A20FA01F119601060F0
:103A7000084630BD18440258904700081000002046
:103A80000C00002000B5FFF7DBFF05490968054A77
:103A9000C1F30211515C01F01F01C84000BD0000DC
:103AA0001C44025890470008454970B545480968CC
:103AB000434B103B11F0380208D00111082A03D003
:103AC000102A0BD0182A0BD0084670BD1968890639
:103AD000FBD51968C1F3C101C84070BD3A4870BD3B
:103AE0003749374D18310C1D24350A680968266896
:103AF0002D6802F0030406F00102C1F30511C5F3BD
:103B0000CC0515FB02F200EE102AB8EE400AE9B32C
:103B10002F4ADFED2E0AB7EE001A6CB1DFED2D1A39
:103B2000012C01D0022C43D002EE101A1068F8EEDE
:103B3000422A81EEA22A1EE01C68A40611D51B6849
:103B400001EE901A1168C3F3C103F8EE612AD84060
:103B500001EE900AC1F30800F8EE611A81EEA22A84
:103B60000BE001EE901ADFED1C2A00BFF8EE611A9F
:103B7000106882EEA12AC0F3080001EE900AF8EE68
:103B8000611A40EE201A31EE810A00E015E022EEC3
:103B9000000A1068C0F34620401C00EE900AF8EEC0
:103BA000600A80EE201ABCEEC10A10EE100A70BD49
:103BB00001EE901ADFED092AD8E7002070BD000061
:103BC000104402580090D00300366E010000003906
:103BD000304402580024744A0024744C001BB74B34
:103BE0002DE9F05F04007DD0FF4F2078FE4D18379F
:103BF000DFF8F483103DC00748D0D8F800003968DA
:103C000000F03800102815D0182803D101F0030067
:103C100002280FD06068B0F5803F12D010B1B0F527
:103C2000A02F18D0286820F480302860286820F45D
:103C3000802009E02868800328D560680028D2D059
:103C400024E0286840F480302860606888B1FEF77E
:103C5000C1FC064609E0286840F480202860F0E7AF
:103C6000FEF7B8FC801B64287ED828688003F7D54F
:103C70000CE0FEF7AFFC064605E000BFFEF7AAFC2D
:103C8000801B6428F0D828688003F7D42078800748
:103C900056D5D8F80000DFF85093396810F0380096
:103CA000A9F10C090ED0182801D188070AD0E068C4
:103CB000A8B3296821F0190101432960FEF78AFCA5
:103CC000064628E02868400702D5E06800288AD028
:103CD000E168286820F0190008432860FEF77AFCA4
:103CE000064606E0D2E000BFFEF774FC801B022807
:103CF000BAD828684007F7D5217CD9F8002022F0EF
:103D0000FE4242EA0161C9F8001019E0FEF762FCC8
:103D1000801B0228A8D828684007F7D5ECE7FFE702
:103D2000286820F001002860FEF754FC064604E0F5
:103D3000FEF750FC801B022896D828684007F7D46D
:103D40002078C00646D5D8F80000DFF89C92396884
:103D500000F03800A9F10409082812D0182805D16C
:103D600001F00300012800E0CEE00AD0E06900285D
:103D7000286820D040F080002860FEF72BFC064623
:103D800015E02868C00502D5E06980287ED194F846
:103D90002010D9F8002022F07C5242EA0161C9F8D3
:103DA000001017E0FEF716FC801B0228A0D8286838
:103DB000C005F7D5EBE720F080002860FEF70AFC8D
:103DC000064604E0FEF706FC801B022890D828680F
:103DD000C005F7D42078000729D58348616964308D
:103DE00000298146016811D041F001010160FEF710
:103DF000F1FB064605E000BFFEF7ECFB801B022846
:103E000088D8D9F800008007F6D510E021F001012C
:103E10000160FEF7DFFB064605E000BFFEF7DAFBB8
:103E2000801B022870D8D9F800008007F6D42078CB
:103E3000800623D5A0690028286810D040F480505F
:103E40002860FEF7C7FB064605E000BFFEF7C2FB91
:103E5000801B022858D828688004F7D50EE020F48B
:103E600080502860FEF7B6FB064604E0FEF7B2FB82
:103E7000801B022848D828688004F7D4207840079F
:103E800051D5DFF86891D9F8001000E015E141F450
:103E90008071C9F80010FEF79DFB064605E000BFE3
:103EA000FEF798FB801B64282ED8D9F80000C005C7
:103EB000F6D54D4EA068603601280AD008B1052815
:103EC00013D0306820F001003060306820F004002A
:103ED00002E0306840F001003060A06841F2883AAA
:103EE00098B1FEF777FB81460AE0306840F00400A5
:103EF0003060EEE7FEF76EFBA0EB0901514503D8F9
:103F000030688007F6D50EE072E0FEF763FB81466D
:103F100006E000BFFEF75EFBA0EB0901514567D844
:103F200030688007F6D4606A00287CD0DFF8B8A03B
:103F3000D8F800100AF1200A4FF6F87B0AF10408BD
:103F4000C1F3C2010329AAF104096DD0022828682F
:103F500020F08070286003D0FEF73CFB044681E02F
:103F6000FEF738FB064604E0FEF734FB801B022810
:103F700075D828688001F7D4E26A40F2F3313868D6
:103F800054F8283F884340EA021018433860217BE8
:103F90004FF4FE0C22894FF0FE47208A4902267D0D
:103FA000521E401EA1F5007189B2C2F308021143EE
:103FB000761E0CEA00400143484607EA06621143B8
:103FC000CAF80010D9F8001021F00101C9F800105A
:103FD000D8F80030266A23EA0B0343EAC601C8F882
:103FE0000010D9F8001004E01044025800480258AC
:103FF00035E0A26921F00C011143C9F800100168F5
:10400000E26921F0020111430160016841F480314D
:104010000160016841F400310160016841F48021D0
:104020000160016801E06CE020E041F00101016005
:10403000286840F080702860FEF7CCFA044604E05F
:10404000FEF7C8FA001B022809D828688001F7D5B6
:1040500057E000BFFEF7BEFA001B022802D903207A
:10406000BDE8F09F28688001F4D44AE0396801284F
:10407000DAF8000021D0A26A01F0030393421CD1B8
:10408000E26AC1F305118A4217D1216BC0F308021D
:10409000491E8A4211D1616BC0F34622491E9142EA
:1040A0000BD1A16BC0F30642491E914205D1E16BD1
:1040B000C0F30660491E814201D00120D0E7A16C07
:1040C0004646D8F80000C0F3CC00814219D0D9F898
:1040D00000004D4620F00100C9F80000FEF77AFA12
:1040E0004FEA0007FEF776FAB842FBD0A26C3068C0
:1040F00020EA0B0040EAC2003060286840F001006E
:1041000028600020ACE7401EB0F1807F10B501D3DD
:10411000012010BD4FF0E02460610F21601700F016
:104120009AFA0020A0610721216110BDFEE700EB93
:104130008100006E00F0F84070478068C0F3C00056
:1041400070478068C0F3800070478068C0F38000CB
:104150007047C06810F4406F01D000207047012004
:10416000704710B5042404EAD1540723C1F3045165
:1041700020448B408A40416999431143416110BDFD
:1041800000EB8101034B51F8600F20F00040104319
:10419000086070470060025870B58CB00024684613
:1041A000242109940A940B94FCF7B3F823480425BE
:1041B000214A4FF410130121022680E81C00C0E9B7
:1041C0000415047603224176C66180F8204084629B
:1041D000C0E90B42C463046480F84440FCF7D6FF96
:1041E00008B1FCF71CFC154809A90994FCF768FC08
:1041F00008B1FCF714FC1248062140F2FF7203924A
:104200008DE823000D486946CDE904548DF821401E
:10421000FCF7EAFC08B1FCF702FC0C210948CDE9E7
:10422000000106486946FCF7DFFC002801D0FCF7D6
:10423000F6FB0CB070BD000000200240140000200E
:104240001000C0100000B84F094808B5016841F0DF
:104250000101016000680022114600F00100009099
:104260000B20FEF77DFABDE808400B20FEF76ABA86
:10427000D84402580D4808B5016841F0800101603A
:10428000016801F080010091016841F001010160C5
:10429000016801F001010091016841F00401016031
:1042A000006800F00400009008BD0000E0440258DF
:1042B000FEE7FEE7704700002DE9F047454D044654
:1042C00089464FF0000A2868C04380070AD0414E53
:1042D000283E306820F080603060FEF77BF90746AA
:1042E000B04608E00120BDE8F08700BFFEF772F994
:1042F000C01B022867D8D8F800000001F6D4206857
:1043000029684FF4FE0721F47C313E0241EA003077
:104310002860207AA389B4F804C040022D4D2D49AD
:104320005B1E227CACF1010C1035091DA0F500705C
:1043300080B2521ECCF3080C07EA034340EA0C009B
:10434000184306EA0262104328600868626920F098
:10435000C000104308600A68A06922F020020243EE
:104360000A60281D0A6822F010020A6002684FF6EF
:10437000F873E4699A4342EAC40202600868B9F13A
:10438000000F40F010020A6011D00868B9F1010F67
:1043900011D040F400100860D8F80000444640F006
:1043A0008060C8F80000FEF715F905460DE00868C2
:1043B00040F40020EFE740F48010ECE7FEF70AF944
:1043C000401B022801D903208DE720680001F5D5A4
:1043D000504688E7284402582DE9F047454D0446E9
:1043E00089464FF0000A2868C04380070AD0414E32
:1043F000283E306820F080503060FEF7EBF807462A
:10440000B04608E00120BDE8F08700BFFEF7E2F803
:10441000C01B022867D8D8F800008000F6D4208896
:1044200029684FF4FE0721F07C713E0241EA0050FA
:104430002860207AA389B4F804C040022D4D2D498C
:104440005B1E227CACF1010C1835091DA0F5007033
:1044500080B2521ECCF3080C07EA034340EA0C007A
:10446000184306EA0262104328600868626920F473
:104470004060104308600A68A06922F40072024399
:104480000A60281D0A6822F480720A6002684FF6EA
:10449000F873E4699A4342EAC40202600868B9F119
:1044A000000F40F480720A6011D00868B9F1010F62
:1044B00011D040F080700860D8F80000444640F009
:1044C0008050C8F80000FEF785F805460DE0086842
:1044D00040F48000EFE740F40000ECE7FEF77AF8E4
:1044E000401B022801D903208DE720688000F5D504
:1044F000504688E7284402587047FEF771B800001C
:1045000030B59DB04C216846FBF703FF202113A86E
:10451000FBF7FFFE0220FEF755F91D48016821F464
:10452000404101600168002401F440411B91016891
:104530008904FCD502200A9028230990C203012196
:104540000C25CDE90012CDE90B03CDE90D10CDE925
:1045500010540F9068461294FFF742FB08B172B6F0
:10456000FEE740201A9008230501CDE9163013AB71
:10457000CDE918053F21032283E8160013A8114650
:10458000FFF730F9002801D072B6FEE71DB030BD4C
:10459000184802582748F0B5274A016841F47001CD
:1045A0000160106800F00F00072804D2106820F0A6
:1045B0000F00C01D106021490020204C10340B68F2
:1045C0001F4D43F001030B6020600B682B400B6014
:1045D000136803F00F03072B04D9136823F00F03AC
:1045E000DB1D1360154C174A1834174B261D371D59
:1045F0002060124C154D28343060261D3860371D60
:1046000023603B1D35601C1D3A60251D2E1D186062
:10461000331D22602860326018600A6843F2D204B9
:10462000064B0B4D22F4802260330A6018602C6028
:10463000F0BD000088ED00E0002000520044025868
:104640007FEDF6EA80020101000202020000FF0194
:1046500000400052FEE7090700284FEA116104DB21
:1046600000F1E02080F80014704700F00F0000F126
:10467000E02080F8141D704702E008C8121F08C12E
:10468000002AFAD170477047002001E001C1121FD3
:10469000002AFBD1704700002DED048B84B0FEF79B
:1046A00023F801208DF80F0000248DF80E00112250
:1046B0008DF8082003238DF80B308DF800004FF0A3
:1046C00010518DF80D408DF80A00684601918DF863
:1046D00001408DF809408DF80C40FDF7D7FF04200C
:1046E000FEF710F821480168890311D4BFF34F8FFA
:1046F000BFF36F8F1E490C60BFF34F8FBFF36F8FF7
:10470000016841F400310160BFF34F8FBFF36F8F39
:10471000FDF76EFFFFF7F4FEFFF7ACFDFFF794FD2A
:10472000FFF73AFD1348002140F2FF72FCF77AF9D7
:10473000114902220F48FCF7F7FE0F4C114D9FED77
:104740000F8ADFED0F8AB2EE069A208800EE100A7B
:104750000120B8EE400A20EE080AC0EE280A20EE3A
:10476000890A85ED000AFDF715FEEEE714ED00E07D
:1047700050EF00E0140000200000002433335340C9
:1047800000FF7F47000000300006101600061016DC
:1047900000000000010203040102030406070809E7
:1047A000E0470008000000201400000078460008E0
:1047B000F4470008000000240400000078460008C8
:1047C000F8470008000000300400000078460008A8
:1047D000F447000814000020EC040000884600089C
:1047E0000100000010000000000000000090D00355
:0C47F0000090D00300000000000000005A
:04000005080002CD20
:00000001FF
