:020000040800F2
:10000000081A002475040008459A0008D5850008E0
:10001000419A00085B17000845B400080000000082
:10002000000000000000000000000000B503000810
:10003000B52D00080000000011040008CDAD000837
:100040009304000893040008930400089304000834
:100050009304000893040008930400089304000824
:100060009304000893040008930400081D2200086C
:100070002D2200089304000893040008930400084C
:100080009304000893040008930400083D2F00081F
:100090009D2F0008930400089304000893040008AF
:1000A00093040008930400089304000893040008D4
:1000B000C1AF0008930400089304000893040008EB
:1000C00093040008930400089304000893040008B4
:1000D00065AC00089304000893040008930400082A
:1000E0009304000893040008000000009304000833
:1000F0009304000893040008930400089304000884
:100100009304000893040008930400089304000873
:100110009304000893040008930400089304000863
:100120009304000893040008930400089304000853
:100130009304000893040008930400089304000843
:1001400000000000000000000000000000000000AF
:100150009304000893040008930400089304000823
:100160009304000893040008930400089304000813
:1001700093040008930400089304000800000000A2
:1001800093040008930400089304000893040008F3
:1001900093040008930400089304000893040008E3
:1001A0009304000893040008930400080000000072
:1001B00093040008930400089304000893040008C3
:1001C00093040008930400080000000000000000F1
:1001D0000000000000000000930400080000000080
:1001E000000000000000000000000000000000000F
:1001F00000000000000000009304000893040008C1
:100200009304000893040008000000009304000811
:100210009304000893040008930400089304000862
:100220009304000800000000930400080000000090
:1002300093040008930400080000000093040008E1
:100240009304000893040008930400089304000832
:100250009304000893040008930400089304000822
:100260009304000893040008930400089304000812
:1002700093040008930400089304000800000000A1
:1002800093040008930400089304000893040008F2
:100290000000000093040008930400080000000020
:1002A0000000000093040008930400089304000871
:1002B000930400089304000893040008FD2F00082D
:1002C00093040008930400089304000800F002F867
:1002D00000F060F80AA090E8000C82448344AAF180
:1002E0000107DA4501D100F055F8AFF2090EBAE87E
:1002F0000F0013F0010F18BFFB1A43F0010318475A
:10030000B4E60000E4E600000A444FF0000C10F8E8
:10031000013B13F0070408BF10F8014B1D1108BF83
:1003200010F8015B641E05D010F8016B641E01F823
:10033000016BF9D113F0080F1EBF10F8014BAD1C73
:100340000C1B09D16D1E58BF01F801CBFAD505E091
:1003500014F8016B01F8016B6D1EF9D59142D6D3EB
:10036000704700000023002400250026103A28BF13
:1003700078C1FBD8520728BF30C148BF0B60704717
:100380001FB50DF031FE9DE8030000F0D7F91FBD49
:1003900010B510BD00F064FA1146FFF7F1FF0CF044
:1003A0004FFD00F082FA03B4FFF7F2FF03BC00F048
:1003B000B3FA00002C4B19680868B0E8F04F80F3DE
:1003C0000988BFF36F8F4FF0000080F311887047EA
:1003D0000000000008480068006880F308884FF0BB
:1003E000000080F3148862B661B6BFF34F8FBFF38D
:1003F0006F8F00DF00BF00BF08ED00E0DFF80C00EA
:10040000016841F470010160704700BF88ED00E0B1
:10041000EFF30980BFF36F8F134B1A681EF0100FB4
:1004200008BF20ED108A20E9F04F106009B44FF0AA
:10043000500080F31188BFF34F8FBFF36F8F0DF023
:10044000C5FA4FF0000080F3118809BC19680868EC
:10045000B0E8F04F1EF0100F08BFB0EC108A80F328
:100460000988BFF36F8F704730000024EFF30580D9
:10047000704700000A4880470A4880470A480047FA
:10048000FEE7FEE7FEE7FEE7FEE7FEE7FEE7FEE744
:10049000FEE7FEE705480649064A074B704700009D
:1004A000192F0008B5AE0008CD020008081400247A
:1004B000081A0024081600240816002470B5064601
:1004C00000F020F9056806F10B0020F00704B442A3
:1004D0009CBF002070BD2B466A68BAB11068A0426C
:1004E00010D304F1080188423CBF5068586007D31C
:1004F0005168101941601168091B0160586014604F
:10050000101D70BD13465268002AE7D121462846C7
:1005100000F000F90028DED170BD53EA020C00F0B3
:1005200069802DE9F04B4FF00006002B1FBFB3FA96
:1005300083F503FA05F424FA05F65E4012BF16436C
:10054000B2FA82F502FA05F4C5F120051EBF22FABF
:1005500005FC44EA0C04203556EA044C4FEA1444E6
:1005600018BF641C4FF000084FF00009904271EB77
:10057000030C39D3002919BFB1FA81F701FA07F644
:10058000B0FA80F700FA07F6C7F120071EBF20FA7D
:1005900007FC46EA0C062037B6FBF4FCA7EB050780
:1005A000103F07F01F0BCBF120060CFA0BFB2CFAC7
:1005B00006F644BFB3460026202FA4BF5E464FF088
:1005C000000B5BEA060C08BF4FF0010B19EB0B099F
:1005D000ABFB027C48EB0608C01B06FB02CC0BFB06
:1005E00003CC71EB0C01C1E70B460246414648467D
:1005F000BDE8F08B13B54FF000004FF00001AFF3F2
:100600000080BDE81C40704710B5203AC0F00B8058
:10061000B1E81850203AA0E81850B1E81850A0E806
:100620001850BFF4F5AF5FEA027C24BFB1E8185060
:10063000A0E8185044BF18C918C0BDE810405FEAD0
:10064000827C24BF51F8043B40F8043B08BF70474C
:10065000D20728BF31F8023B48BF11F8012B28BF51
:1006600020F8023B48BF00F8012B70474FF0000212
:100670000429C0F0128010F0030C00F01B80CCF1B4
:10068000040CBCF1020F18BF00F8012BA8BF20F822
:10069000022BA1EB0C0100F00DB85FEAC17C24BF76
:1006A00000F8012B00F8012B48BF00F8012B704720
:1006B0004FF0000200B5134694469646203922BFFB
:1006C000A0E80C50A0E80C50B1F12001BFF4F7AF46
:1006D000090728BFA0E80C5048BF0CC05DF804EB28
:1006E000890028BF40F8042B08BF704748BF20F896
:1006F000022B11F0804F18BF00F8012B7047704794
:100700007047704700487047B01300247047704727
:100710007047704738B504460A4600206946AFF373
:100720000080002808BF38BD02460099204600F02E
:1007300075F8012038BD012000F08AB8F8B5AFF394
:100740000080054600200C46102000BF0646A81970
:10075000A0420DD9324669460020AFF30080070061
:1007600008BF00F075F80098A04218BF0546C419EC
:10077000FFF7C8FF05600746F01D20F00700461987
:10078000284600F00AF8B44208BFF8BDA21B314663
:100790003868BDE8F84000F041B800210160C0E9C8
:1007A000011070471020704770B50446051FFFF711
:1007B000A9FF0068002C14BF446870BD002C18BF4E
:1007C000AC423CBF20466468F8D301680A18AA42CC
:1007D00018BF456003D12A680546114401602868A6
:1007E0004119A1421CBF6C6070BD616869602168DD
:1007F0000844286070BD10B500F00CF8006810BD0A
:1008000010B5044600F006F8046010BD00487047BB
:10081000A813002400487047A8130024034640682A
:100820008C46002818BF88423CBF03464068F8D376
:1008300018681844884207D00CF1030020F0070024
:10084000001D411A521A0146081D0A60FFF7ACBF8D
:1008500010B500F039F8BDE8104000F02FB870472F
:100860007546FFF7D3FFAE4605006946534620F0B4
:100870000700854618B020B5FFF70CFEBDE8204004
:100880004FF000064FF000074FF000084FF0000B4C
:1008900021F00701AC46ACE8C009ACE8C009ACE8FF
:1008A000C009ACE8C0098D46704710B50446AFF3E7
:1008B00000802046BDE81040FFF775BD002801D03C
:1008C00000F02AB87047000010B5012805D00021BB
:1008D00003A000F027F8012010BD09A1F8E70000EF
:1008E00053494752544D454D3A204F7574206F6619
:1008F0002068656170206D656D6F72790000000081
:100900003A2048656170206D656D6F727920636F64
:10091000727275707465640001491820ABBEFEE701
:100920002600020070B505460C460A2000E06D1C4A
:1009300000F011F835B128780028F8D102E0641CE5
:1009400000F009F814B120780028F8D1BDE8704013
:100950000A20AFF3008008B569468DF80000032037
:10096000ABBE08BD9FED201AB5EE002A00EE012AAD
:100970009FED1E1ABDEEC20AB5EEC02AF1EE10FAC6
:1009800010EE100AB8BF013800EE100A0020B8EED1
:10099000C00A32EE400A9FED162A20EE010ABCEE94
:1009A000C01A11EE101A30EE021AB0EB512F18BF18
:1009B000002102EE101A4EF2B01000FE010AC0F63D
:1009C0000000B8EE422A00EB810090ED011A30EEF3
:1009D000420AB7EE002A32EE402A20EE010A90EDDC
:1009E000001A02EE010A704783F9223E000000441B
:1009F000000000C4B0B503880D88AB4256D14588CD
:100A00004C88A54252D11488A3424FD15488A542A4
:100A10004CD105FB03FC436800254968B5EB9C0FEE
:100A2000506831D04FEA9C02524200BF93ED000A59
:100A300091ED001A30EE010A03F1100E01F11004DD
:100A400000F1100580ED000A013293ED010A91EDED
:100A5000011A30EE010A80ED010A93ED020A91EDD0
:100A6000021A30EE010A80ED020A93ED030A91EDBD
:100A7000031A30EE010A7346214680ED030A284628
:100A8000D4D12146284673461CF003020CD05242B2
:100A9000B3EC010AB1EC011A30EE010A051D013276
:100AA00080ED000A2846F3D1002000E0FD2040B28E
:100AB000B0BD018042804360704700002DE9F04FD7
:100AC0008BB0B0F800B0B0F802E0F34540F05181CF
:100AD0000B88FD229B4540F04D814F88BB4240F082
:100AE0004981BBF1000F436800F029816FF00300DA
:100AF0004C6800EB8B08CDF81CE0002700934FF00A
:100B00007E5906945E462046BBEB060009D0B9002C
:100B10002046FFF7CDFD00200130874204F1040498
:100B2000FAD104F1040AC4F80090751E10D0A8EBA5
:100B300087015046FFF7BCFD012054460130864234
:100B400004F10404FAD1002D07F101072E46DBD190
:100B5000BBF1000F009BDDF81CE000F0F0800420EA
:100B6000CDF814B000EB8E0001901846ABF10106F1
:100B700003EB8E044FEA8E021D1DCEF1000100230F
:100B800008919FED800A7746814600BF5B4580F063
:100B9000F58003FB0EF0B0EE403A09EB80010A91BC
:100BA00091ED001A0699B0EE414A01EB80000990E0
:100BB0002146304606E000BF91ED004A0138B0EE14
:100BC000423A1144B5EEC04AF1EE10FA0ADDB4EE35
:100BD000C34AB0EE442AF1EE10FAD8BFB0EE432A71
:100BE00009E000BFB1EE442AB4EEC23AF1EE10FAC9
:100BF00001DBB0EE432A0028DED1B5EE402AF1EE4B
:100C000010FA00F0BB80B0EEC13AB4EE423AF1EE19
:100C100010FA1CBFD84310EB0B0004D0002000BF1B
:100C200001308642FCD1B5EE401AF1EE10FA00F028
:100C3000A580CDE90346AEEB030C0A99BCF1010F88
:100C40004FF07E5008600AD00120294691ED002A1D
:100C500082EE012A01308742A1EC012AF6D1DDE9BA
:100C6000080100BF91ED002A82EE012A0C1D01301F
:100C700081ED002A2146F5D1ACF1010B05994FF029
:100C80000008DDF818A04846CDF80890984505D131
:100C900000EB8C060AEB8E0A33E000BF90ED001AE1
:100CA0000A9CB0EE413ABBF1000F94ED002A01EE30
:100CB000423A00F1040680ED003A15D001200024EC
:100CC00006EB040905EB040E99ED002A9EED003AAF
:100CD00001EE432A0130874204F1040489ED002A21
:100CE000EED12644DDF81CE0DDE908049AED002A87
:100CF00094ED003A01EE432A04340130AAEC012AB3
:100D0000F4D106EB8300013908F10108BED1DDF80A
:100D10000890013F049E09F10409039C03F10103BB
:100D20000198A6F101060444DDF814B005447FF4EF
:100D30002DAFB5EE401A009BF1EE10FA20D10EFB5C
:100D40000BF1002000294FF000020BD093ED000AB8
:100D5000B5EE400AF1EE10FA04D101328A4203F1F5
:100D60000403F3D38A4208BF6FF004000BB0BDE860
:100D7000F08FFD2250B20BB0BDE8F08FFB22F9E7F7
:100D80000022F7E7000000002DE9F04F88B0B0F82E
:100D900002C00B889C4540F08880B0F800E01388C2
:100DA0009E4540F08280B1F80290538899457CD1ED
:100DB0004FEA9C04476804FB09F049680CF00305FE
:100DC000029101EB0010019000202CF00303A0EB36
:100DD0009C0107EB830607914FEA89035168C5F12F
:100DE000000A00919FED330ACDE9039CCDE9050E81
:100DF0000099CE4601EB8008DDE901BC002CB0EE85
:100E0000401AE146384627D0624607993846B0EE88
:100E1000401A00BF92ED002A90ED003A03EE021A4C
:100E20001A4490ED014A92ED002A04EE021A1A4487
:100E300090ED025A92ED002A05EE021A1A4490ED46
:100E4000036A92ED002A06EE021A013100F1100049
:100E50001A44DFD1D946304655B1514690ED002AAB
:100E600099ED003A02EE031A043001319944F5D1AC
:100E700008F1040088ED001ABEF1010E0CF1040C1B
:100E80000BF1040B8046B9D1DDF80C900598DDF824
:100E900010C04844DDF818E007EB8C07BEF1010EE6
:100EA00006EB8C06A2D1002000E0FD2040B208B085
:100EB000BDE8F08F00000000B0B503880D88AB429C
:100EC00056D145884C88A54252D11488A3424FD1AF
:100ED0005488A5424CD105FB03FC436800254968B2
:100EE000B5EB9C0F506831D04FEA9C02524200BFD4
:100EF00093ED000A91ED001A30EE410A03F1100E55
:100F000001F1100400F1100580ED000A013293EDAB
:100F1000010A91ED011A30EE410A80ED010A93EDCC
:100F2000020A91ED021A30EE410A80ED020A93EDB9
:100F3000030A91ED031A30EE410A7346214680ED13
:100F4000030A2846D4D12146284673461CF00302E2
:100F50000CD05242B3EC010AB1EC011A30EE410A56
:100F6000051D013280ED000A2846F3D1002000E083
:100F7000FD2040B2B0BD00002DE9F04F83B00288E3
:100F80004B889A424DD144880B889C4249D100231A
:100F9000D1F804804FEA940C416804F0030ECDF8B8
:100FA0000080A3EB94040294140196000194CEF106
:100FB000000B4046BCF1000F1ED04746029C00BF0C
:100FC00008683D4638603744486807EB0609A85171
:100FD00001F11000D1F808A0013447F806A009EB90
:100FE0000607C968374449F806100146E8D1019957
:100FF0006C18014603E000BF009800EB8304BEF1CB
:10100000000F07D05D4600BF51F8040B013520608A
:101010003444F9D10133013A08F10408CAD100205F
:1010200000E0FD2040B203B0BDE8F08F9FED1F1A35
:1010300020EE010A9FED1F2ABDEEC01AB5EEC00AD0
:10104000F1EE10FA11EE100AB8BF013801EE100AE5
:101050000020B8EEC11A30EE410A9FED151A20EEBD
:10106000010ABCEEC01A11EE101A30EE021AB0EBF3
:10107000512F18BF002102EE101A4EF2B01000FEE0
:10108000010AC0F60000B8EE422A00EB810090EDA4
:10109000011A30EE420AB7EE002A32EE402A20EE64
:1010A000010A90ED001A02EE010A704783F9223E10
:1010B00000000044000000C410B50122114602489F
:1010C00004F08AFA10BD00000008025810B5002292
:1010D0000121024804F080FA10BD00000008025807
:1010E00010B501220821024804F076FA10BD000074
:1010F0000008025810B500220821024804F06CFADA
:1011000010BD00000008025810B50446FFF7DEFFCE
:10111000922000F011FA0622C249122000F0ECF9E8
:10112000FFF7CAFFC0480078002855D0BD48407876
:10113000000200B2BB4909780843BC49088094ED1D
:101140000C0A0846B0F9000000EE900AF8EEE00A3A
:10115000B74890ED001A60EE810A94ED081A10EE7F
:10116000810A84ED000AAF48C078000200B2AD49A0
:1011700089780843AD49088094ED0D0A0846B0F916
:10118000000000EE900AF8EEE00AA94890ED001A7F
:1011900060EE810A94ED081A10EE810A84ED010ACE
:1011A000A0484079000200B29E49097908439F494E
:1011B00008800846B0F9000000EE100AB8EEC00A38
:1011C0009B48D0ED000A20EE200AD4ED080A20EE5C
:1011D000200A84ED020A50E092484078000200B2F2
:1011E000904909780843914908800846B0F9000001
:1011F00000EE100AB8EEC00A8D48D0ED000A20EECD
:10120000200AD4ED080A20EE200A84ED000A854861
:10121000C078000200B28349897808438349088076
:101220000846B0F9000000EE100AB8EEC00A804887
:10123000D0ED000A20EE200AD4ED080A20EE200AA4
:1012400084ED010A77484079000200B275490979B6
:101250000843764908800846B0F9000000EE100AFD
:10126000B8EEC00A7248D0ED000A20EE200AD4ED94
:10127000080A20EE200A84ED020AFFF73BFF08224D
:101280006849002000F038F9FFF72AFF6548007828
:101290000F284FD164480078F0B36248C07800024C
:1012A00000B26049897808436049088094ED090AD2
:1012B0000846B0F9000000EE900AF8EEE00A5D483A
:1012C00090ED001A10EE810A84ED030A554840792A
:1012D000000200B25349097908435449088094ED4B
:1012E0000A0A0846B0F9000000EE900AF8EEE00A9B
:1012F000504890ED001A10EE810A84ED040A494826
:10130000C079000200B247498979084347490880FB
:1013100094ED0B0A084600E00DE0B0F9000000EE85
:10132000900AF8EEE00A434890ED001A10EE810AA8
:1013300084ED050A44E03B48C078000200B2394918
:1013400089780843394908800846B0F9000000EE62
:10135000100AB8EEC00A3748D0ED000A20EE200A85
:1013600084ED030A2F484079000200B22D49097923
:1013700008432E4908800846B0F9000000EE100A24
:10138000B8EEC00A2B48D0ED000A20EE200A84ED0A
:10139000040A2448C079000200B22249897908432E
:1013A000224908800846B0F9000000EE100AB8EEA5
:1013B000C00A2048D0ED000A20EE200A84ED050A7C
:1013C000FFF784FEA22000F0B7F802221549222080
:1013D00000F092F8FFF770FE12480078C000114943
:1013E000497840EA6110114908800846B0F90000C8
:1013F000B0F5806F05DB08460088A0F5006000B2FC
:1014000008800A48B0F9000000EE100AF8EEC00AA1
:10141000B4EE001AB3EE070A00EE810A84ED070A63
:1014200010BD000094020024640200249C020024E9
:10143000540200245802002470B504460D46224888
:1014400004600020214908700AF0EAFE1F4909786B
:1014500008431E4908700AF099FF1C49097808439F
:101460001A4908701DB11A4800F088F928E09FED6C
:10147000190A174880ED090A9FED170A80ED0A0A3C
:101480009FED160A80ED0B0A9FED150A80ED0C0A00
:101490009FED140A80ED0D0A9FED130A80ED0E0AF0
:1014A0009FED120A80ED0F0A90ED0F0ADFED100A92
:1014B00080EE801A80ED081A9FED0E0A80ED060A74
:1014C0000248007870BD0000A00200245E020024E3
:1014D000800C002404EABD3A8A16E4BBC76C3C3B8E
:1014E00088F418BE8014D6BA000000000A261B41FA
:1014F000C3F51C410000214270B506460C46154656
:1015000046F0800000F018F806E0552000F014F8CE
:101510002070641C681EC5B2002DF6D170BD70B578
:1015200004460D4644F0800000F006F8552000F017
:1015300003F8287070BD000001B582B04FF47A70D6
:10154000012301AA02A900900348006806F092F95D
:101550009DF804000EBD0000A002002470B50546F1
:101560000C462846FFF7E8FF2046FFF7E5FF70BD71
:1015700000B589B000200190029002200390012064
:10158000049000200590069001A90A4803F039F95B
:1015900000200346022211460090064803F085F918
:1015A00000220121034803F08FF8024803F0F0FE07
:1015B00009B000BD2C07002400B589B000200190BF
:1015C000029002200390049000200590069001A94B
:1015D0000A4803F016F90020034602221146009043
:1015E000064803F062F900221021044803F06CF869
:1015F000024803F0CDFE09B000BD0000CC07002476
:10160000D2ED020A92ED021AB6EE000A00EEC10A0D
:10161000D2ED030A92ED031A00EEC10AD0ED000AE2
:1016200020EE200AD2ED010A92ED021A60EE810A44
:1016300092ED001AD2ED031A41EE610A90ED011A03
:1016400000EE810AD2ED010A92ED031A60EE810AE2
:1016500092ED001AD2ED021A41EE210A90ED021A23
:1016600000EE810AF0EE000A20EE200A81ED000A69
:1016700092ED010AD2ED020A20EE200AD2ED000A14
:1016800092ED031A00EE810AD0ED000A60EE200A06
:1016900092ED011AD2ED011AB6EE000A01EE610ACE
:1016A000D2ED031A92ED032AB0EE401A01EEC21AEF
:1016B000D0ED011AB0EE600A01EE210AD2ED020A65
:1016C00092ED031A60EE810A92ED001AD2ED011A32
:1016D00041EE610A90ED021A00EE810AF0EE000A76
:1016E00020EE200A81ED010A92ED010AD2ED030AF3
:1016F00020EE200AD2ED000A92ED021A00EEC10A95
:10170000D0ED000A20EE200AD2ED020A92ED031A73
:1017100060EE810A92ED001AD2ED011A41EE210A23
:1017200090ED011A00EE810A92ED011AD2ED011A34
:10173000F6EE000A41EE610A92ED021AD2ED021AAB
:1017400041EE610A90ED021A00EE810AF0EE000A05
:1017500020EE200A81ED020A704700BFFEE700BFBD
:1017600000F05EFB01200BF0C4FBF9E700BF00F0C6
:1017700047FC01200BF0BDFBF9E7000070B52DED33
:10178000048B88B0044600200690079001F04CFAC4
:10179000FE4880ED000A00BF01F046FAFB48D0ED9C
:1017A000000A30EE600AF2EE040AB4EEE00AF1EE4E
:1017B00010FA14DD9FEDF60A84ED090A9FEDF50A93
:1017C00084ED0A0A9FEDF40A84ED0B0A9FEDF30AFB
:1017D00084ED0F0A9FEDF20A84ED060A5FE29FEDA9
:1017E000F10A01F0DDF99FEDF00A84ED0F0A9FED9B
:1017F000EE0A84ED090A9FEDEC0A84ED0A0A9FEDDA
:10180000EA0A84ED0B0A002673E1FFF75FFC9220E1
:10181000FFF792FE062206A91220FFF76DFEFFF7E2
:101820004BFC9DF81900000200B29DF8181040EA28
:10183000010500EE105AB8EEC00ADC48D0ED000AEF
:1018400020EE200A84ED000A9DF81B00000200B281
:101850009DF81A1040EA010500EE105AB8EEC00AD1
:10186000D248D0ED000A20EE200A84ED010A9DF84E
:101870001D00000200B29DF81C1040EA010500EEB8
:10188000105AB8EEC00AC948D0ED000A20EE200A6E
:1018900084ED020AD4ED000A60EEA00A94ED011A6C
:1018A000D4ED011A41EE210A94ED021AD4ED021A88
:1018B00041EE210AB0EE600A0AF07FFCB0EE408AE9
:1018C00094ED0F0A30EE080A84ED0F0AFFF712FCC0
:1018D000082206A90020FFF70FFEFFF701FC9DF884
:1018E00018000F2850D19DF81B00000200B29DF88F
:1018F0001A1040EA010500EE105AB8EEC00AAC48D2
:10190000D0ED000A20EE200A84ED030A94ED090AC6
:10191000D4ED030A30EE200A84ED090A9DF81D007B
:10192000000200B29DF81C1040EA010500EE105ABA
:10193000B8EEC00A9E48D0ED000A20EE200A84EDE1
:10194000040A94ED0A0AD4ED040A30EE200A84ED6C
:101950000A0A9DF81F00000200B29DF81E1040EA1E
:10196000010500EE105AB8EEC00A9148D0ED000A09
:1019700020EE200A84ED050A94ED0B0AD4ED050A49
:1019800030EE200A84ED0B0A06BBF0EE488AB0EE7A
:10199000489A002017E004F10C0101EB800191ED61
:1019A000000A03A901EB800181ED000A04F10C019A
:1019B00001EB800191ED000A694601EB800181EDA8
:1019C000000A411CC8B20328E5DB49E0B4EEE88A0E
:1019D000F1EE10FA01DDF0EE488AB4EEC98AF1EEBC
:1019E00010FA01D2B0EE489A002037E004F10C0161
:1019F00001EB800191ED000A03A901EB8001D1ED1B
:101A0000000AB4EEE00AF1EE10FA0ADD04F10C016E
:101A100001EB800191ED000A03A901EB800181ED4A
:101A2000000A04F10C0101EB800191ED000A694606
:101A300001EB8001D1ED000AB4EEE00AF1EE10FAFC
:101A40000AD204F10C0101EB800191ED000A694614
:101A500001EB800181ED000A411CC8B20328C5DBFF
:101A600038EEC90A534880ED000A002012E003A9AD
:101A700001EB800191ED000A694601EB8001D1ED97
:101A8000000A30EE600A4C4901EB800181ED000A4A
:101A9000411CC8B20328EADB464890ED000AF6EE86
:101AA000000AB4EEE00AF1EE10FA1BDC424890EDB9
:101AB000000ADFED420AB4EEE00AF1EE10FA11DCA2
:101AC00090ED010ADFED3D0AB4EEE00AF1EE10FA06
:101AD00008DC90ED020ADFED390AB4EEE00AF1EE1F
:101AE00010FA00DD0AE09FED360A01F059F8701C8B
:101AF00086B2344800888642FFF687AE00BFD4ED38
:101B00000F0A3048008800EE100AB8EE400A80EE56
:101B1000801A84ED0F1A002015E004F1240101EB76
:101B20008001D1ED000A2749098800EE101AB8EEAD
:101B3000400A80EE801A04F1240101EB800181ED5E
:101B4000001A411CC8B20328E7DBFFF7BFFAA22046
:101B5000FFF7F2FC022206A92220FFF7CDFCFFF7D7
:101B6000ABFA9DF81800C0009DF8191040EA611505
:101B7000B5F5806F02DBA5F5006005B200EE105AE6
:101B8000F8EEC00AB4EE001A1EE000008C02002439
:101B900004EABD3A8A16E4BBC76C3C3B0A261B41EB
:101BA000000020420AD7A33B00000000540200249A
:101BB0005802002460020024740C00249A99193EF3
:101BC0006F12033A90020024B3EE070A00EE810A76
:101BD00084ED060A7C480088401C00B27A490880DF
:101BE0007A4890ED000AF6EE000AB4EEE00AF1EE53
:101BF00010FA3FF7D1ADD4ED0F0A9FED751A70EED4
:101C0000C10AB0EE600A0AF005FFF6EE000AB4EE73
:101C1000E00AF1EE10FAECDC6E4890ED000A5FEDA0
:101C2000190AB4EEE00AF1EE10FAE2DC90ED010AD6
:101C30005FED1E0AB4EEE00AF1EE10FAD9DC90ED89
:101C4000020A5FED220AB4EEE00AF1EE10FAD0DCEF
:101C5000D4ED090AB0EE600A0AF0DCFEDFED5E0AA0
:101C6000B4EEE00AF1EE10FAC3DCD4ED0A0AB0EEED
:101C7000600A0AF0CFFEDFED580AB4EEE00AF1EE9A
:101C800010FAB6DCD4ED0B0AB0EE600A0AF0C2FE20
:101C9000DFED510AB4EEE00AF1EE10FAA9DC00BF64
:101CA00094ED0F0ADFED4D0A80EE801A84ED081ADC
:101CB000002680E0FFF70AFA9220FFF73DFC06229B
:101CC00006A91220FFF718FCFFF7F6F99DF8190096
:101CD000000200B29DF8181040EA010500EE105A0B
:101CE000B8EEC00A3E48D0ED000A20EE200AD4ED3E
:101CF000080A20EE200A84ED000A94ED0C0ADFEDBC
:101D0000390A20EE200AD4ED000A9FED371A00EEC2
:101D1000810A84ED0C0A9DF81B00000200B29DF8B8
:101D20001A1040EA010500EE105AB8EEC00A2C481D
:101D3000D0ED000A20EE200AD4ED080A20EE200A99
:101D400084ED010A94ED0D0ADFED260A20EE200A4B
:101D5000D4ED010A9FED241A00EE810A84ED0D0AEC
:101D60009DF81D00000200B29DF81C1040EA01051C
:101D700000EE105AB8EEC00A1948D0ED000A20EE65
:101D8000200AD4ED080A20EE200A84ED020A94ED20
:101D90000E0ADFED140A20EE200AD4ED020A9FEDB0
:101DA000121A00EE810A84ED0E0A1FED7B0A00F084
:101DB000F7FE701C86B20D4800888642FFF67AAFA7
:101DC00008B0BDEC048B70BD6602002460020024E4
:101DD000CDCC1C41740C00240AD7233CC3F51C4114
:101DE00054020024CDCC4C3FCDCC4C3E920200247A
:101DF00070B506460C461546204609F069FFDFED32
:101E0000050A9FED050A054A0021284608F0B2F9A7
:101E100070BD0000000000000000164310E1000843
:101E200008B502E001200BF064F8544890F89000E7
:101E30000028F7D0524A53495348FFF7D9FF3221BF
:101E4000524807F009FE97E0514800F0C7FE51489C
:101E500080ED000A494A4B494B480AF02DFC48489E
:101E60004D4B464A4749009047480AF027FB4648F1
:101E700090F87400012842D1424890ED230AB0EE58
:101E8000402ADFED461A9FED451ADFED440A9FED2B
:101E9000430A00224249434800F04CFB4248006894
:101EA0000BF027F8374890ED240AB0EE402ADFED1A
:101EB0003B1A9FED3A1ADFED390A9FED380A0022EE
:101EC0003A49384800F036FB374800680BF011F803
:101ED0002C4890ED220AB0EE402ADFED301A9FED3B
:101EE0002F1ADFED2E0A9FED2D0A002230492D48D2
:101EF00000F03CFC2C4800680AF0FBFF3CE0224864
:101F000090F87400C0BB9FED252ADFED241A9FEDE9
:101F1000231ADFED220A9FED210A002220492148E1
:101F200000F008FB204800680AF0E3FF9FED1B2A41
:101F3000DFED1A1A9FED191ADFED180A9FED170A47
:101F400000221A49174800F0F5FA174800680AF00D
:101F5000D0FF9FED122ADFED111A9FED101ADFED71
:101F60000F0A9FED0E0A002211490E4800F0FEFBF9
:101F70000D4800680AF0BDFF66E70000C00C0024B1
:101F8000C80E0024080E00243C0F0024100F00246B
:101F90003C030024400300240C0300240000000044
:101FA0003801002498000024440300246401002424
:101FB0009001002470B504460D461646284609F0E7
:101FC00087FE9FED0B0A84ED050A94ED050A84ED6A
:101FD000090A94ED050A84ED080ADFED060A9FED73
:101FE000060A064A0021304608F0C4F870BD000019
:101FF000CDCCCC3D00000000000016431CE10008E1
:1020000008B502E001200AF074FF6E4890F89000D5
:102010000028F7D000206C4981F8740001226B4938
:102020006B4800F0C3FC01226A496B4800F0BEFC1B
:1020300001200AF05EFF01226849654800F0B6FC05
:1020400001226749644800F0B1FC01200AF051FF09
:10205000012264495E4800F0A9FC012262495E4801
:1020600000F0A4FC614A62495748FFF7A3FF6149A9
:10207000614808F0BBFB0A21604807F0EDFC032132
:102080005F4807F0E9FC32215E4807F0E5FC97E085
:102090005D4800F0A3FD5D4880ED000A494A5449BF
:1020A00049480AF051FC5148594B464A5049009062
:1020B00045480AF02DFB444890F87400012842D1AD
:1020C0004B4890ED230AB0EE402ADFED521A9FED07
:1020D000511ADFED500A9FED4F0A00223D493E485C
:1020E00000F028FA4C4800680AF003FF404890EDE1
:1020F000240AB0EE402ADFED471A9FED461ADFEDC5
:10210000450A9FED440A00223549334800F012FA8F
:10211000414800680AF0EDFE354890ED220AB0EE25
:10212000402ADFED3C1A9FED3B1ADFED3A0A9FEDA6
:10213000390A00222C49284800F018FB364800686C
:102140000AF0D7FE3CE0204890F87400C0BB9FED39
:10215000312ADFED301A9FED2F1ADFED2E0A9FEDA9
:102160002D0A00221B491C4800F0E4F92A480068A7
:102170000AF0BFFE9FED272ADFED261A9FED251AF4
:10218000DFED240A9FED230A00221549124800F0D2
:10219000D1F9214800680AF0ACFE9FED1E2ADFED60
:1021A0001D1A9FED1C1ADFED1B0A9FED1A0A002273
:1021B0000D49094800F0DAFA174800680AF099FE5C
:1021C00066E70000C00C00243C0F00243801002406
:1021D00098000024BC010024C800002464010024ED
:1021E000E801002490010024140200248C10002433
:1021F000CC0F00241C110024D4100024AC110024A6
:10220000D6110024001200243C04002440040024C1
:102210004C030024000000004404002410B50248D0
:1022200001F038FA10BD00009409002410B50248EE
:1022300001F030FA10BD00000C0A00240146374AB4
:102240000868904249D0354A18320868904244D014
:10225000324A3032086890423FD0304A48320868EB
:1022600090423AD02D4A60320868904235D02B4ACD
:1022700078320868904230D0284A903208689042FC
:102280002BD0264AA8320868904226D0244A0868F3
:10229000904222D0224A1832086890421DD0204A2B
:1022A00030320868904218D01D4A4832086890427F
:1022B00013D01B4A6032086890420ED0184A783218
:1022C0000868904209D0164A90320868904204D0BB
:1022D000134AA8320868904201D1012000E0002092
:1022E000B0B10A78103A1823B2FBF3F000F00702FD
:1022F0000C4B9A5CCA65032805D90A686FF309027A
:10230000121D8A6503E00A686FF309028A6503E01B
:10231000086820F0FF008865886D70471000024053
:10232000100402409CE0000810B502682B4C0368C2
:10233000A34222D0294C14340368A3421DD0274C59
:1023400028340368A34218D0244C3C340368A342C9
:1023500013D0224C50340368A3420ED01F4C643477
:102360000368A34209D01D4C78340368A34204D00B
:102370001A4C8C340368A34201D1012300E00023EE
:102380008BB10378083B1424B3FBF4F1144B03EB3B
:1023900081030366124B8033436601F01F0401235F
:1023A000A340836618E00378103B1824B3FBF4F1D4
:1023B0000C4B9A4204D80B4BA83B9A4200D30831ED
:1023C000094B03EB81030366074B8033436601F03F
:1023D0001F040123A340836610BD00000854025867
:1023E00000580258B8040240000802400179A9B31D
:1023F000082940D8204B02689A4222D01E4B143341
:1024000002689A421DD01C4B283302689A4218D0A9
:10241000194B3C3302689A4213D0174B5033026871
:102420009A420ED0144B643302689A4209D0124B80
:10243000783302689A4204D00F4B8C3302689A4278
:1024400001D1012200E000224AB14A1E0B4B03EBEE
:102450008202C266094A4032026708E00BE04A1E67
:10246000074B03EB8202C266054A403202674A1EEE
:10247000012393404367704708540258005902589B
:1024800000090240014600208A69D2B98A6A32B145
:10249000012A0DD0022A03D0032A10D10EE000BF7A
:1024A000CA6A02F08072B2F1807F00D1012007E099
:1024B000CA6AB2F1C07F00D1012001E000E000BF94
:1024C00036E08A69B2F5005F1BD18A6A32B1012A0F
:1024D00007D0022A03D0032A11D10AE000BF01204D
:1024E0000EE0CA6A02F08072B2F1807F00D1012052
:1024F00006E0CA6AB2F1C07F00D1012000E000BF4F
:1025000016E08A6A32B1012A05D0022A04D0032AD1
:102510000CD103E000BF00BF012008E0CA6A02F04E
:102520008072B2F1807F00D1012000E000BF00BFC7
:10253000704700002DE9F7432DED060B2DED048BC0
:1025400004460E461546B0EE418BB0EE429A022D7F
:1025500000DD0025002D7DD1F2EE090A9DED040A73
:1025600000F0F2FA8DED040AF3EE0E0A9DED050A75
:1025700000F0EAFA8DED050AF0EE080AB0EE490A1D
:1025800000F0E2FAB0EE409A1020B2EE091AFAEE2C
:10259000090A9DED040A0AF042FA6D4908800C20F0
:1025A000B3EE0E1AFBEE0E0A9DED050A0AF037FA9D
:1025B000684908800C20B2EE041AFAEE040AB0EE64
:1025C000490A0AF02CFA644908800C209FED631A2E
:1025D000DFED630AB0EE480A0AF021FA614908808B
:1025E0000C20B1EE041ADFED5E0AB0EE680A0AF0C4
:1025F00016FA5D490880B06860605548008800128E
:1026000084F8280052480178292001555148008853
:10261000C0F307112A2001554E4800780007000E2C
:102620005049098840EA21212B2001554D48017865
:102630002C2001554C480088C0F307112D2001556E
:10264000494800780007000E4349098840EA2121E3
:102650002E2000E00BE001553F4801782F20015566
:1026600004F12802211D206802F082F86AE0012DA1
:1026700035D19FED3B0AB0EE408A9FED390AF0EE6E
:10268000408A9FED370AB0EE409A04AF0DF114086E
:10269000B06800F580706060387884F82800797838
:1026A00029200155B9782A200155F9782B200155A8
:1026B00098F800102C20015598F801102D20015594
:1026C00098F802102E20015598F803102F2001557C
:1026D00004F12802211D206802F04AF832E0022DA0
:1026E00030D19FED1F0A8DED040A9FED1D0AB0EE5B
:1026F000408A9FED1B0AF0EE408A9FED190AB0EE6A
:10270000409A05AFB06800F500706060387884F8D2
:102710002800797829200155B9782A200155F978BF
:102720002B20015500212C2001552D2001552E2054
:1027300001552F20015504F12802211D206802F0C7
:1027400017F800BFBDEC048B09B0BDE8F0830000B2
:102750004002002442020024440200240000FA4304
:102760000000000046020024480200242DE9F7433F
:102770002DED060B2DED048B04460E461546B0EEEE
:10278000418BB0EE429A022D00DD0025002D7DD157
:10279000F2EE080A9DED040A00F0D6F98DED040A68
:1027A000DFED790A9DED050A00F0CEF98DED050A01
:1027B000F7EE000AB0EE490A00F0C6F9B0EE409A12
:1027C0001020B2EE081AFAEE080A9DED040A0AF08B
:1027D00026F96E4908800C209FED6B1ADFED6C0A1C
:1027E0009DED050A0AF01BF96A4908800C20B3EE3A
:1027F000021AFBEE020AB0EE490A0AF010F9664925
:1028000008800C209FED651ADFED650AB0EE480ADE
:102810000AF005F9634908800C20B1EE041ADFEDD7
:10282000600AB0EE680A0AF0FAF85F490880B068FA
:10283000606056480088001284F8280053480178E8
:102840002920015553480088C0F307112A2001555B
:10285000504800780007000E5249098840EA2121BB
:102860002B2001554F4801782C2001554E480088F7
:10287000C0F307112D2001554B4800780007000ECA
:102880004549098840EA21212E2000E00BE001554E
:10289000414801782F20015504F12802211D2068AC
:1028A00001F066FF6AE0012D35D19FED3D0AB0EEE3
:1028B000408A9FED3B0AF0EE408A9FED390AB0EE68
:1028C000409A04AF0DF11408B06800F580706060A4
:1028D000387884F82800797829200155B9782A2099
:1028E0000155F9782B20015598F800102C2001553E
:1028F00098F801102D20015598F802102E2001554E
:1029000098F803102F20015504F12802211D20689A
:1029100001F02EFF32E0022D30D19FED210A8DED26
:10292000040A9FED1F0AB0EE408A9FED1D0AF0EEEB
:10293000408A9FED1B0AB0EE409A05AFB06800F5E3
:1029400000706060387884F8280079782920015573
:10295000B9782A200155F9782B20015500212C2027
:1029600001552D2001552E2001552F20015504F130
:102970002802211D206801F0FBFE00BFBDEC048B86
:1029800009B0BDE8F0830000000034424A02002490
:10299000000034C24C0200244E0200240000FA431E
:1029A00000000000500200245202002470B50446CA
:1029B0000D461646A8686060FF2084F82800FF21B5
:1029C000292001552A2001552B2001552C20015585
:1029D0002D2001552E20015536B1012E08D0022E92
:1029E0000AD0032E10D10BE0FC212F2001550CE062
:1029F000FD212F20015508E0FE212F20015504E084
:102A0000FB212F20015500E000BF00BF04F1280288
:102A1000211D206801F0ACFE70BD70B505460C4666
:102A2000287800F00F00208028780011A081A87875
:102A3000697840EA0121E181E8780001297940EADA
:102A4000211121826879297901F00F0140EA0121E1
:102A50006182608A0C21F2EE040ABAEE040A0AF0DE
:102A600008FE84ED070AE0891021F2EE090ABAEEA9
:102A7000090A0AF0FEFD84ED050A208A0C21F3EE16
:102A80000E0ABBEE0E0A0AF0F4FD84ED060AA879E0
:102A900000EE100AB8EE400A84ED080AE87900EE6C
:102AA000100AB8EE400A84ED090A70BD70B50546FB
:102AB0000C46287800F00F00208028780011A081B3
:102AC000A878697840EA0121E181E8780001297954
:102AD00040EA211121826879297901F00F0140EA49
:102AE00001216182608A0C21F3EE020ABBEE020A28
:102AF0000AF0BFFD84ED070AE0891021F2EE080A12
:102B0000BAEE080A0AF0B5FD84ED050A208A0C2108
:102B1000DFED0B0A9FED0B0A0AF0ABFD84ED060A10
:102B2000A87900EE100AB8EE400A84ED080AE879A8
:102B300000EE100AB8EE400A84ED090A70BD0000EC
:102B400000003442000034C2B4EEE00AF1EE10FAA4
:102B500002DDB0EE600A0AE0B1EE601AB4EEC10A1E
:102B6000F1EE10FA03D2B1EE601AB0EE410A7047EE
:102B700008B50848406800900749009809688842ED
:102B800004D206480068401C0449086002490098C5
:102B9000086008BD001000E0100100240C010024B2
:102BA0000C494868F0EE400A00BF0A494968091A12
:102BB00001EE101AF8EE411A074991ED001AB8EE2D
:102BC000411A20EE811AF4EEC11AF1EE10FAECD39C
:102BD00070470000001000E00001002410B52DED4A
:102BE000028B82B004460E4840680190206801992B
:102BF000081A00EE100AF8EE400A0A4890ED000AA2
:102C0000B8EE400A80EE801AB0EE418A019820604A
:102C1000FFF7AEFFB0EE480A02B0BDEC028B10BD6C
:102C2000001000E00001002410B52DED028B00F033
:102C300059F80F4890ED000AB8EE400A808800EE7F
:102C4000900AF8EE600A9FED0B1A00EE810A084820
:102C5000C08800EE900AF8EE600A9FED071A00EEB9
:102C6000810AB0EE408AB0EE480ABDEC028B10BD7E
:102C7000F80000246F12833ABD378635124909687F
:102C800041F08071104A11600021104A51601146D4
:102C9000096841F0010111600D4941430D4A11607D
:102CA000114609684FF47A72B1FBF2F10A4A1160D9
:102CB00008490968064AB1FBF2F1084A116000218F
:102CC000074A116070470000FCED00E0001000E0D2
:102CD00040420F00000100240401002408010024E8
:102CE0000C01002438B5294840680090FFF740FFE8
:102CF000274800684FF0FF31A0FB013100981818F9
:102D000041F10001234A03C22348002321490268FC
:102D100003C9FDF702FC214A03C220480CC81E4823
:102D200000680024A2FB001503FB005002FB040214
:102D30001848D0E90030591A60EB0200184AC2E97D
:102D40000010164800681749086017480023144906
:102D5000026803C9FDF7E1FB1249888008468088B4
:102D60001149096841430E48D0E90030591A60F111
:102D700000000E4AC2E900100D4800230B4902680A
:102D800003C9FDF7CAFB0749C88038BD001000E041
:102D90000C0100241801002400010024200100245B
:102DA00028010024F800002404010024300100243C
:102DB000080100247047D2ED020A92ED021AB6EE25
:102DC000000A00EEC10AD2ED030A92ED031A00EEEA
:102DD000C10AD0ED000A20EE200AD2ED010A92EDE0
:102DE000021A60EE810A92ED001AD2ED031A41EE4A
:102DF000210A90ED011A00EE810AD2ED010A92ED4E
:102E0000031A60EE810A92ED001AD2ED021A41EE29
:102E1000610A90ED021A00EE810AF0EE000A20EE3F
:102E2000200A81ED000A92ED010AD2ED020A20EE9D
:102E3000200AD2ED000A92ED031A00EEC10AD0ED8D
:102E4000000A60EE200A92ED011AD2ED011AB6EEE8
:102E5000000A01EE610AD2ED031A92ED032AB0EEE8
:102E6000401A01EEC21AD0ED011AB0EE600A01EE6E
:102E7000210AD2ED020A92ED031A60EE810A92ED68
:102E8000001AD2ED011A41EE210A90ED021A00EE6D
:102E9000810AF0EE000A20EE200A81ED010A92ED8F
:102EA000010AD2ED030A20EE200AD2ED000A92EDCB
:102EB000021A00EE810AD0ED000A20EE200AD2EDBF
:102EC000020A92ED031A60EE810A92ED001AD2ED29
:102ED000011A41EE610A90ED011A00EE810A92EDAD
:102EE000011AD2ED011AF6EE000A41EE610A92EDE6
:102EF000021AD2ED021A41EE610A90ED021A00EEBA
:102F0000810AF0EE000A20EE200A81ED020A7047E5
:102F100072B600BFFEE700000748006840F00200FC
:102F20000549086000BF04480838006800F40050F4
:102F30000028F8D0704700000C48025810B502482D
:102F400001F0CCFD10BD00002C07002470B5044634
:102F50000D460F4920684968884204D10C4928462B
:102F6000FFF75BFD12E00B4920684968884204D1F5
:102F700008492846FFF751FD08E0074920684968DD
:102F8000884203D104492846FFF790FD70BD000038
:102F900038010024640100249001002410B5024887
:102FA00001F09CFD10BD0000CC07002470B5044664
:102FB0000D460F4920684968884204D10C492846CB
:102FC000FFF72BFD12E00B4920684968884204D1C5
:102FD00008492846FFF721FD08E0074920684968AD
:102FE000884203D104492846FFF760FD70BD000008
:102FF000BC010024E80100241402002410B502489A
:1030000001F06CFD10BD00006C08002410B50146F5
:103010004A6B0868D0F884004FF6FC74A04340EA7D
:1030200082000C68C4F884000868D0F8840020F49A
:103030007F04088F44EA00400C68C4F88400886B61
:1030400002440868D0F888004FF6FC74A04340EAB8
:1030500082000C68C4F888000868D0F8880020F462
:10306000FE04888F44EA00400C68C4F88800C86BEE
:1030700002EB40020868D0F8A0004FF6FC74A043B1
:1030800040EA82000C68C4F8A0000868D0F8A000EC
:1030900020F4FE044020405A44EA00400C68C4F882
:1030A000A000D1E9104004FB00220868D0F8B0006D
:1030B0004FF6FC74A04340EA82000C68C4F8B000EC
:1030C0000868D0F8B00020F4FE04B1F8480044EAE3
:1030D00000400C68C4F8B000D1E9124004FB0022A3
:1030E0000868D0F8AC004FF6FC74A04340EA8200B8
:1030F0000C68C4F8AC00D1E9144004FB0022086855
:10310000D0F8F0004FF6FC74A04340EA82000C684F
:10311000C4F8F0000868D0F8F00020F47C14B1F88E
:10312000580044EA00400C68C4F8F000886D02EBD7
:1031300040020868D0F8C0004FF6FC74A04340EA93
:1031400082000C68C4F8C0000868D0F8C00020F401
:103150007C14B1F85C0044EA00400C68C4F8C0007C
:103160000868D0F8C00020F07C5491F8600044EA70
:1031700000600C68C4F8C0002A4C486B04EB800067
:10318000C866CC6E886B04EB80040C670C6FC86B50
:1031900004EBC0044C67D1E9100460434C6F04EBAE
:1031A00080048C67D1E9120460438C6F04EB8004C7
:1031B000CC67D1E914046043CC6F04EB8004802019
:1031C00044504458886D04EBC004842044508C6EF5
:1031D000C86D60438424645804EB80048820445004
:1031E0008C6E086E60438824645804EB8004902041
:1031F000445040580C4CA04209D99831486840F0DE
:1032000020004860032001F89809012010BDCB6E12
:1032100002E0002018601B1D902040589842F8D80A
:103220000020F3E700AC0040FCD300402DE9F04162
:10323000054614461E46D1F804C0BCF1000F0AD161
:10324000D1F810C0D1F808804CEA080CB1F8008021
:103250004CEA88430BE0D1F810C04CF0804CD1F818
:1032600008804CEA080CD1F800804CEA080391F879
:103270002080D1F81CC04CEA086CD1F818804CEAC8
:10328000080CD1F814804CEA080CB1F80C804CEA18
:103290000847D5F868C00CFB06FCD5F8848008EB1D
:1032A0008C021360121D1760121D002019E000F13E
:1032B000030C14F80CC04FEA0C6800F1020C14F86F
:1032C0000CC048EA0C4800F1010C14F80CC048EAA4
:1032D0000C2C14F800804CEA080CC2F800C0121D37
:1032E000001DDFF81480D1F80CC018F80CC084451C
:1032F000DDD8BDE8F0810000A4E0000870B5044608
:103300000CB9012070BD94F83500022803D080204C
:1033100060650120F6E7DC492068884249D0DA4937
:1033200018312068884244D0D7493031206888421B
:103330003FD0D5494831206888423AD0D2496031DF
:103340002068884235D0D04978312068884230D012
:10335000CD499031206888422BD0CB49A8312068D4
:10336000884226D0C9492068884222D0C7491831EE
:10337000206888421DD0C54930312068884218D065
:10338000C24948312068884213D0C0496031206862
:1033900088420ED0BD4978312068884209D0BB49A7
:1033A00090312068884204D0B849A831206888420A
:1033B00001D1012000E00020F0B3042084F83500A2
:1033C000B149206888424BD0AF4918312068884203
:1033D00046D0AD4930312068884241D0AA494831B1
:1033E000206888423CD0A84960312068884237D0A4
:1033F000A54978312068884232D0A34990312068AD
:1034000088422DD0A049A8312068884228D09F4901
:103410002068884224D09D491831206888421FD0F6
:103420009A493031206888421AD09849483120683A
:10343000884215D0954900E020E06031206888423C
:103440000ED0924978312068884209D08F49903156
:103450002068884204D08D49A8312068884206D16E
:103460002068006820F001002168086009E12068F8
:10347000006820F001002168086002E1206800680F
:1034800020F00E00216808607F492068884249D0FA
:103490007D4918312068884244D07B49303120680A
:1034A00088423FD078494831206888423AD07649EE
:1034B00060312068884235D073497831206888426D
:1034C00030D071499031206888422BD06E49A831A4
:1034D0002068884226D06D492068884222D06B49F6
:1034E0001831206888421DD06849303120688842F0
:1034F00018D0664948312068884213D0634960314A
:10350000206888420ED0614978312068884209D00D
:103510005E4990312068884204D05C49A831206817
:10352000884206D12068006820F001002168086008
:1035300005E02068006820F0010021680860524919
:103540002068884270D050491831206888426BD07A
:103550004D4930312068884266D04B494831206857
:10356000884261D048496031206888425CD0464931
:1035700078312068884257D043499031206888428A
:1035800052D04149A831206888424DD03F49206837
:10359000884249D03D4918312068884244D03B498F
:1035A0003031206888423FD038494831206888420D
:1035B0003AD0364960312068884235D03349783175
:1035C0002068884230D031499031206888422BD021
:1035D0002E49A8312068884226D02D49206888428B
:1035E00022D02B491431206888421DD02849283127
:1035F0002068884218D026493C312068884213D080
:1036000023495031206888420ED021496431206816
:10361000884209D01E4978312068884204D01C496C
:103620008C312068884201D1012000E00020D8B10F
:10363000206E006820F48070216E0860A56D94F8FB
:103640005C0000F01F01012088406860D4E9191077
:103650004860E06E40B1E06E006820F48070E16E7A
:103660000860D4E91C104860012084F8350000BFD0
:10367000002084F8340000BF206D10B12046216D79
:10368000884700203EE6000010000240100402407F
:10369000085402582DE9F84F044600200090FE48D7
:1036A00000684FF41651B0FBF1FAA66DD4F85880BB
:1036B0003768D8F80090F9492068884249D0F7491E
:1036C00018312068884244D0F4493031206888425B
:1036D0003FD0F2494831206888423AD0EF49603102
:1036E0002068884235D0ED4978312068884230D052
:1036F000EA499031206888422BD0E849A8312068F7
:10370000884226D0E6492068884222D0E449183110
:10371000206888421DD0E24930312068884218D0A4
:10372000DF4948312068884213D0DD496031206884
:1037300088420ED0DA4978312068884209D0D849C9
:1037400090312068884204D0D549A8312068884249
:1037500001D1012000E0002000287DD094F85C0019
:1037600000F01F01082088403840002868D0CB496D
:103770002068884249D0C94918312068884244D01D
:10378000C6493031206888423FD0C449483120685A
:1037900088423AD0C14960312068884235D0BF495B
:1037A00078312068884230D0BC4990312068884206
:1037B0002BD0BA49A8312068884226D0B849206861
:1037C000884222D0B6491831206888421DD0B449B9
:1037D00030312068884218D0B14948312068884289
:1037E00013D0AF496031206888420ED0AC4978319F
:1037F0002068884209D0AA4990312068884204D0C4
:10380000A749A8312068884204D12068006800F0E8
:10381000040003E02068006800F0080080B1206820
:10382000006820F004002168086094F85C0000F053
:103830001F0108208840B060606D40F001006065A5
:1038400094F85C0000F01F01012088403840E8B384
:1038500092492068884200E0B7E24BD08F49183186
:103860002068884246D08D4930312068884241D056
:103870008A494831206888423CD0884960312068B4
:10388000884237D0854978312068884232D08349D0
:103890009031206888422DD08049A8312068884224
:1038A00028D07F492068884224D07D49183120687B
:1038B00088421FD07A493031206888421AD078492E
:1038C00048312068884215D0754900E026E0603113
:1038D000206888420ED0724978312068884209D029
:1038E0006F4990312068884204D06D49A831206822
:1038F000884204D12068406900F0800002E020681E
:103900000068002050B194F85C0000F01F01012015
:103910008840B060606D40F00200606594F85C0023
:1039200000F01F01042088403840E8B35B4920685C
:1039300088424BD0594918312068884246D05749AF
:1039400030312068884241D054494831206888424B
:103950003CD0524960312068884237D04F49783195
:103960002068884232D04D499031206888422DD05D
:103970004A49A8312068884228D0494920688842AD
:1039800024D047491831206888421FD0444930313B
:10399000206888421AD0424948312068884215D0B0
:1039A0003F496031206800E024E088420ED03C4965
:1039B00078312068884209D039499031206888429E
:1039C00004D03749A8312068884204D120680068B3
:1039D00000F0020002E020680068002050B194F876
:1039E0005C0000F01F0104208840B060606D40F072
:1039F0000400606594F85C0000F01F01102088400E
:103A00003840E8B325492068884251D0234918310D
:103A1000206888424CD0214930312068884247D004
:103A20001E4948312068884242D01C4960312068D4
:103A300088423DD0194978312068884238D01749EA
:103A400090312068884233D01449A83120688842D8
:103A50002ED01349206888422AD011491831206895
:103A6000884225D00E4930312068884220D00C4948
:103A70004831206888421BD009496031206800E045
:103A80004DE0884214D006497831206888420FD032
:103A900003499031206805E028000024100002400E
:103AA00010040240884203D0FE492068884204D1B5
:103AB0002068006800F0080003E02068006800F05B
:103AC000040060B394F85C0000F01F0110208840EF
:103AD000B0602068006800F4802080B12068006831
:103AE00000F4002028B9206CC8B12046216C88471A
:103AF00015E0A06C98B12046A16C88470FE02068C3
:103B0000006800F4807028B92068006820F0080080
:103B100021680860206C10B12046216C884794F819
:103B20005C0000F01F0120208840384000287DD034
:103B3000DD492068884249D0DB4918312068884235
:103B400044D0D9493031206888423FD0D6494831E5
:103B5000206888423AD0D44960312068884235D004
:103B6000D14978312068884230D0CF4990312068DF
:103B700088422BD0CC49A8312068884226D0C94938
:103B8000A8392068884221D0C649903920688842E7
:103B90001CD0C44978392068884217D0C14960399F
:103BA0002068884212D0BF494839206888420DD029
:103BB000BC4930392068884208D0BA491839206891
:103BC000884203D0B7492068884204D12068006841
:103BD00000F0100003E02068006800F0020028B345
:103BE00094F85C0000F01F0120208840B06094F839
:103BF000350004282DD12068006820F016002168C7
:103C000008602068406920F0800021684861206CCD
:103C100008B9A06C28B12068006820F0080021686D
:103C2000086094F85C0000F01F0100E03FE03F20D6
:103C30008840B060012084F8350000BF002084F87F
:103C4000340000BF206D10B12046216D8847BDE8CB
:103C5000F88F2068006800F4802080B12068006838
:103C600000F4002028B9606C08B32046616C8847D6
:103C70001DE0E06BD8B12046E16B884717E0206873
:103C8000006800F4807068B92068006820F01000B7
:103C900021680860012084F8350000BF002084F806
:103CA000340000BFE06B10B12046E16B8847606DC7
:103CB00000287AD0606D00F00100E8B3042084F899
:103CC00035007949206888424BD0774918312068FF
:103CD000884246D0744930312068884241D07249C8
:103CE0004831206888423CD06F4960312068884262
:103CF00037D06D4978312068884232D06A49903196
:103D0000206888422DD06849A8312068884228D090
:103D10006449A8392068884223D0624990392068D4
:103D200088421ED05F4978392068884219D05D49A1
:103D300060392068884200E040E012D05949483993
:103D4000206888420DD0574930392068884208D011
:103D5000544918392068884203D052492068884263
:103D600006D12068006820F001002168086005E0A5
:103D70002068006820F001002168086000BF0098FA
:103D8000401C0090504500D905E02068006800F014
:103D900001000028F3D100BF2068006800F0010096
:103DA00020B1032084F8350003E00DE0012084F801
:103DB000350000BF002084F8340000BFE06C00280C
:103DC00002D02046E16C8847D9E138492068884212
:103DD00022D036491431206888421DD03349283119
:103DE0002068884218D031493C312068884213D07D
:103DF0002E495031206888420ED02C496431206809
:103E0000884209D0294978312068884204D027495E
:103E10008C312068884201D1012000E00020002878
:103E2000D2D02068056894F85C0000F01F010420DF
:103E3000884000EA0900D8B305F00400C0B394F844
:103E40005C0000F01F0104208840C8F8040005F45D
:103E5000004080B105F4803030B9A06C0028B3D0A8
:103E60002046A16C88478AE1206C0028ACD020460F
:103E7000216C884783E105F02000E8BB0A492068EF
:103E8000884253D008491831206888424ED00649EC
:103E900030312068884249D003494831206888423F
:103EA00044D006E0B8040240100002400854025812
:103EB0004FE0B44960312068884237D0B149783149
:103EC0002068884232D0AF499031206888422DD096
:103ED000AC49A8312068884228D0AB492068884284
:103EE00024D0A9491831206888421FD0A649303112
:103EF000206888421AD000E025E0A34948312068B4
:103F0000884213D0A0496031206888420ED09E4973
:103F100078312068884209D09B49903120688842D6
:103F200004D09949A8312068884206D120680068E9
:103F300020F008002168086005E02068006820F093
:103F4000040021680860206C10B32046216C88476B
:103F500015E194F85C0000F01F010220884000EA9F
:103F60000900E8B305F00200D0B394F85C0000F05B
:103F70001F0102208840C8F8040005F4004070B119
:103F800005F4803028B9606C10B12046616C884718
:103F9000F5E0E06BF0B32046E16B8847EFE005F019
:103FA0002000C0BB7749206888424ED0754918313F
:103FB0002068884249D0734930312068884244D013
:103FC00070494831206888423FD06E49603120688E
:103FD00088423AD06B4978312068884235D000E079
:103FE0004EE068499031206888422ED06549A8315A
:103FF0002068884229D064492068884225D06249D7
:1040000018312068884220D05F49303120688842CA
:104010001BD001E06EE02DE05B494831206888420A
:1040200013D059496031206888420ED05649783102
:104030002068884209D0544990312068884204D0D1
:104040005149A8312068884206D12068006820F0D4
:1040500014002168086005E02068006820F00A006C
:1040600021680860012084F8350000BF002084F832
:10407000340000BFE06BE8B32046E16B88477EE088
:1040800094F85C0000F01F010820884000EA090055
:1040900080B305F0080068B33A49206888424BD0E5
:1040A000384918312068884246D036493031206876
:1040B000884241D033494831206888423CD0314958
:1040C00060312068884237D02E4978312068884294
:1040D00032D02C499031206888422DD02949A8310E
:1040E0002068884228D028492068884224D0264960
:1040F000183100E043E0206888421DD02249303169
:104100002068884218D0204948312068884213D05E
:104110001D496031206888420ED01B4978312068E3
:10412000884209D0184990312068884204D0164945
:10413000A8312068884206D12068006820F01C0061
:104140002168086005E02068006820F00E00216802
:10415000086094F85C0000F01F0101208840C8F856
:1041600004000120606584F8350000BF002084F859
:10417000340000BFE06C10B12046E16C884700BFFE
:1041800065E5000010000240100402402DE9F041F6
:10419000044601F027FA804614B90120BDE8F081F9
:1041A000FE492068884249D0FC491831206888427D
:1041B00044D0FA493031206888423FD0F74948312D
:1041C000206888423AD0F54960312068884235D06D
:1041D000F24978312068884230D0F0499031206827
:1041E00088422BD0ED49A8312068884226D0EC497E
:1041F0002068884222D0EA491831206888421DD0C0
:10420000E74930312068884218D0E54948312068B4
:10421000884213D0E2496031206888420ED0E049DC
:1042200078312068884209D0DD4990312068884281
:1042300004D0DB49A8312068884201D1012000E088
:104240000020002873D0606A00B100BF022084F80B
:10425000350000BF002084F8340000BFCF4920683B
:10426000884249D0CD4918312068884244D0CB4992
:104270003031206888423FD0C849483120688842A0
:104280003AD0C64960312068884235D0C349783178
:104290002068884230D0C1499031206888422BD0B4
:1042A000BE49A8312068884226D0BD49206888428E
:1042B00022D0BB491831206888421DD0B84930311E
:1042C0002068884218D0B64948312068884213D007
:1042D000B3496031206888420ED0B14978312068F6
:1042E000884209D0AE4990312068884204D0AC4958
:1042F000A8312068884206D12068006820F00100BB
:104300002168086005E02068006820F0010021684D
:1043100008600DE001F066F9A0EB0800052807D958
:1043200020206065032084F83500012036E769E02D
:104330002068006800F001000028EBD120680568C3
:1043400098480540D4E9020108432169084361699E
:104350000843A1690843E1690843216A084305430A
:10436000606A042803D1D4E90B010843054360685F
:10437000292802D360682E2817D960683F2802D305
:104380006068422811D96068472802D360684828CD
:104390000BD960684F2802D36068522805D960683D
:1043A000742804D36068772801D8012000E0002039
:1043B00008B145F48015206805602068456925F03E
:1043C0000705606A0543606A04280DD1A06A0543A9
:1043D000E06A48B12046FEF755F828B140206065F4
:1043E000012084F83500D9E6206845612046FDF7B4
:1043F00025FF064694F85C0000F01F013F2088402E
:10440000B0609EE068492068884222D06649143135
:10441000206888421DD0644928312068884218D01D
:1044200061493C312068884213D05F49503120688F
:1044300088420ED05C4964312068884209D05A49CC
:1044400078312068884204D057498C3120688842EE
:1044500001D1012000E00020E0B3534920688842E8
:1044600022D051491431206888421DD04E4928314C
:104470002068884218D04C493C312068884213D0CB
:1044800049495031206888420ED04749643120683C
:10449000884209D0444978312068884204D0424992
:1044A0008C312068884201D1012000E0002000B159
:1044B00000BF022084F8350000BF002084F83400DB
:1044C00000BF2068056839480540A068402802D12F
:1044D000102106E02EE0A068802801D1C10100E093
:1044E0000021E06841EAD001206941EAD001606919
:1044F00041EAD001A06941EAD001E06941EAD00176
:10450000206A41EA101005432068056026492068AA
:10451000401A1421B0FBF1F08000E0652046FDF761
:104520008DFE074694F85C0000F01F0101208840D2
:10453000786006E040206065032084F835000120A3
:104540002CE61649206888427AD014491831206830
:10455000884275D0114930312068884270D00F49A7
:104560004831206888426BD00C496031206888420D
:1045700066D00A4978312068884261D00749903175
:10458000206888425CD00549A8312068884257D00D
:1045900003492068884253D0014909E010000240D5
:1045A000100402403F8010FE085402580F00FEFF26
:1045B00018312068884243D03749206888423FD06C
:1045C00035491831206888423AD033493031206863
:1045D000884235D0304948312068884230D02E4951
:1045E0006031206888422BD02B497831206888427E
:1045F00026D02A492068884222D0284914312068D0
:1046000088421DD0254928312068884218D0234986
:104610003C312068884213D02049503120688842BC
:104620000ED01E4964312068884209D01B49783178
:104630002068884204D019498C312068884201D111
:10464000012000E0002000B32046FDF76DFEA068C9
:10465000802801D1002060602079216E0860D4E9B3
:1046600019104860606860B16068082809D8204661
:10467000FDF7BCFE0020E16E0860D4E91C10486024
:1046800003E00020E066206760670020606501208D
:1046900084F83500002081E54004024008540258A7
:1046A00070B5044600F09EFF06462546681C10B112
:1046B00004480078054400BF00F094FF801BA84226
:1046C000FAD370BD2400002430B5034693F8984017
:1046D000012C01D0022C3ED11868806D084030B901
:1046E0001868C06D40F001001D68E8650EE01868AC
:1046F000806D0840884206D11868C06D40F0020005
:104700001D68E86502E003201D68E86501F400709B
:1047100030B11868D0F8E00010431D68C5F8E0001B
:1047200001F4806030B11868D0F8E40010431D68CF
:10473000C5F8E40000BF1868406D0B4D0D402843DC
:104740001D6868650948006840EA9170074D286057
:1047500000BF002030BDD3F89C0040F00200C3F839
:104760009C000120F6E70000FFFFCF3F14A80040A7
:104770002DE9F04104460E461746706800B900E086
:1047800000BF94F89800022832D12068D0F8C00009
:1047900000F07C5040B9D4F89C0040F02000C4F8F0
:1047A0009C000120BDE8F0812068D0F8C40000F42E
:1047B000001038B1D4F89C0040F40070C4F89C009C
:1047C0000120EFE72068D0F8C400C0F304452B4671
:1047D0003A4631462046FEF729FD0120A8402168CF
:1047E000C1F8D0000120A840C4F894000020D9E707
:1047F000D4F89C0040F00800C4F89C000120D1E7E8
:104800007047F0B5024692F89860012E01D0022E52
:1048100043D1C868072800D100BF086818BBC86822
:10482000072800D000BFC86807280BD1088A4FF0BE
:10483000605747EA0040CF6940EA07208F6940EAA5
:1048400007040AE0087A80070F7B40EAC7600F8AF6
:1048500040EA07404F6940EA0704D76E486807EB13
:1048600080031C6017E0C868072800D000BF0F7BDA
:10487000086940EA4774C868072801D18D6903E0D8
:104880000F7A486940EA8775176F486807EBC003DD
:104890001C601B1D1D600020F0BDD2F89C0040F084
:1048A0000200C2F89C000120F6E770B50446049DA2
:1048B00094F8980001280AD1080140EA820040EAF1
:1048C000430028432668C6F88000002070BDD4F855
:1048D0009C0040F00400C4F89C000120F6E77047FB
:1048E000704700002DE9F04304460D469C46002326
:1048F00094F89880B8F1020F74D1402D38D1206817
:10490000D0F8A00000F4FE0040B9D4F89C0040F0BC
:104910002000C4F89C000120BDE8F0832068D0F896
:10492000A40000F07F0038B9D4F89C0040F48070F7
:10493000C4F89C000120EFE72068D0F8A400C0F381
:10494000006040B12068D0F8A0004FF00109B9EB39
:10495000D07F00D101232068D0F8A400C0F3052047
:104960000344606C5843D4F8749009EB80014BE029
:10497000412D38D12068D0F8B00000F4FE0038B9DD
:10498000D4F89C0040F02000C4F89C000120C3E74C
:104990002068D0F8B40000F07F0038B9D4F89C004B
:1049A00040F48070C4F89C000120B5E72068D0F87E
:1049B000B400C0F3006040B12068D0F8B0004FF000
:1049C0000109B9EBD07F00D101232068D0F8B400F1
:1049D000C0F305200344E06C5843D4F8789009EB09
:1049E000800111E06DE0206DA84207D8D4F89C004A
:1049F00040F02000C4F89C0001208DE7606D684302
:104A0000D4F87C9009EB8001086800F08040506089
:104A1000506820B90868C0F38A40106003E0086855
:104A200020F060401060086800F000509060086856
:104A300000F000401061091D088880B2D06108684C
:104A4000C0F30340D060086800F48010506108682B
:104A500000F4001090610868C0F3066010620868F6
:104A6000C00F5062091D0F46002603E0B85D0CF828
:104A70000600761CDFF85C90D06819F80000B042A0
:104A8000F4D8402D03D12068C0F8A83017E0412D9C
:104A900003D12068C0F8B83011E0202D06D20120E3
:104AA000A840D4F80090C9F8980008E005F01F0964
:104AB000012000FA09F0D4F80090C9F89C00002009
:104AC0002AE7D4F89C0040F00800C4F89C000120BC
:104AD00022E70000A4E00008704700002DE9F04F35
:104AE0008DB00446EF4800688707EE48001D006857
:104AF00007EA80772068006D00F470482068406DF8
:104B000000EA08082068006D00F00F092068406D79
:104B100000EA09092068006D00F0F00A2068406D85
:104B200000EA0A0A2068006D00F0715B2068406DA1
:104B300000EA0B0B2068006D00F060700C9020689C
:104B4000406D0C9908400C902068456D2068066DFA
:104B5000C5F3002070B1C6F3002058B100BF4FF478
:104B60008070216808650020CE49086000BF20469B
:104B7000FFF7B2FFC5F38020C8B1C6F38020B0B103
:104B80002068D0F8DC000A902068D0F8E4000A9988
:104B900008400A9000BF4FF480602168086500203B
:104BA000C049086000BF20460A9900F011FC67B1B7
:104BB00000BFBD48384021680865B80FB949086092
:104BC00000BF39462046FFF71BFEB8F1000F0ED09C
:104BD00000BFB54808EA0000216808654FEA9870F0
:104BE000B049086000BF4146204600F0F3FBB9F130
:104BF000000F0ED000BFAC4809EA0000216808652C
:104C00004FEA9970A749086000BF4946204600F066
:104C10009BFBBAF1000F0ED000BFA3480AEA0000C8
:104C2000216808654FEA9A709E49086000BF5146A6
:104C3000204600F09BFBC5F3C02070B1C6F3C02036
:104C400058B100BF4FF40060216808650020954905
:104C5000086000BF204600F0BEFBC5F34020C8B18D
:104C6000C6F34020B0B12068D0F8D8000B9020687F
:104C7000D0F8E0000B9908400B9000BF4FF4007093
:104C80002168086500208749086000BF20460B990D
:104C900000F09FFBC5F3C04070B1C6F3C04058B1EF
:104CA00000BF4FF400202168086500207D4908609E
:104CB00000BF204600F046FBC5F3004070B1C6F3CC
:104CC000004058B100BF4FF48030216808650020D3
:104CD0007449086000BF204600F079FBC5F38040AE
:104CE00070B1C6F3804058B100BF4FF480202168F6
:104CF000086500206B49086000BF204600F066FB95
:104D0000C5F3404088B1C6F3404070B100BF4FF4D6
:104D100000302168086500206249086000BFD4F8AF
:104D20009C0040F08000C4F89C000C9870B100BF5B
:104D30005D490C980840216808650C98800F594916
:104D4000086000BF20460C99FFF7CAFDBBF1000FB9
:104D500010D000BF54480BEA0000216808654FEAF4
:104D60009B705049086000BFD4F89C0040EA0B00DB
:104D7000C4F89C004D49206888427DD160688068F5
:104D800000F00300002877D06068006A00F00F0090
:104D900009906068406A0999084009906068006A53
:104DA00000F0300008906068406A08990840089058
:104DB0006068006A00F4C07007906068406A0799F4
:104DC000084007906068006A00F4FC400690606844
:104DD000406A0699084006906068006A00F4F02076
:104DE00005906068406A0599084005906068406ACF
:104DF00002906068006A0190099830B10998616872
:104E000008622046099900F0DEFA089830B1089847
:104E1000616808622046089900F0D7FA0298C0F34A
:104E20008010A0B10198C0F3801080B16068C06BA1
:104E3000000C04906068C06B00F03F0003904020BD
:104E4000616808622046DDE9032100F0BDFA079899
:104E500030B10798616808622046079900F0B2FAFD
:104E6000069840B1069861680862D4F89C000699DB
:104E70000843C4F89C0000E00AE0059840B105989A
:104E800061680862D4F89C0005990843C4F89C0046
:104E9000D4F89C0010B12046FFF721FD0DB0BDE80D
:104EA000F08F000010A80040FFFFCF3F00A000409F
:104EB00070B594B004464C22B34901A8FBF7A4FB9B
:104EC00014B9012014B070BDB0492068884203D1E4
:104ED000206800F580706060A068B0F5407F00D168
:104EE00000BF206C00B100BFA06C00B100BF206DFE
:104EF00000B100BF206E00B100BFD4E91710084414
:104F000000B100BF94F8980028B9002084F89900F7
:104F1000204600F03DF92068806920F010002168EB
:104F2000886100F05FFB05460EE000F05BFB401B74
:104F30000A2809D99834606840F0010060600320B5
:104F400004F898090120BDE72068806900F0080096
:104F50000828EAD02068806940F001002168886153
:104F600000F040FB05460EE000F03CFB401B0A2829
:104F700009D99834606840F001006060032004F8AB
:104F8000980901209EE72068806900F00100002850
:104F9000EAD02068806940F0020021688861207CA6
:104FA000012806D12068806920F0400021688861CE
:104FB00005E02068806940F0400021688861607CDD
:104FC000012806D12068806940F48040216888610A
:104FD00005E02068806920F4804021688861A07C19
:104FE000012806D12068806920F4805021688861FA
:104FF00005E02068806940F480502168886120685D
:10500000806920F44070A1680843216888612068A5
:10501000806920F0A400216888612068006920F080
:10502000100021680861E068012806D120688069C5
:1050300040F004002168886120E0E068F0B1E06899
:10504000022815D02068806940F0800021688861BE
:105050002068006940F0100021680861E0680328BA
:105060000CD12068806940F020002168886105E04B
:105070002068806940F0200021688861207E401E01
:105080004106E069401E41EA0020216A491E0843AA
:10509000A18A491E40EA01402168C861A068B0F5B4
:1050A000407F0FD1A06A401EE16A491E40EA0121FB
:1050B000206B401E41EA0011A08C401E41EA0040D6
:1050C0002168C860206E38B12068D0F8C000616ED9
:1050D00008432168C1F8C000D4E91710084460B142
:1050E0002068D0F8C80020F0070001AAA16E52F88D
:1050F000211008432168C1F8C800206C60B1206805
:10510000D0F8BC0020F0070001AA616C52F8211011
:1051100008432168C1F8BC00A06C68B12068D0F8D1
:10512000BC0020F0700101AAE06C52F8200041EAB6
:1051300000102168C1F8BC00206D68B12068D0F86B
:10514000BC0020F4E06101AA606D52F8200041EA41
:1051500000202168C1F8BC000C492068884205D1B4
:105160006068806820F0030061688860002044F86F
:10517000940FA06001202071943C2046FDF746FF6B
:10518000064630469EE60000B4E0000800A000405D
:1051900010B586B00446142101A8FBF789FA6249CC
:1051A000206888423CD161480068401C5F49086023
:1051B0000846006801280DD100BF5D48006840F432
:1051C00080705B4908600846006800F480700090B9
:1051D00000BF00BF00BF56480C38006840F0080010
:1051E00053490C3908600846006800F00800009038
:1051F00000BF00BF03200190022002900020039016
:1052000004900920059001A94A4800F0E5F8002221
:105210000621132000F0A4FA132000F08DFA81E09B
:105220004549206888423CD140480068401C3F49BD
:1052300008600846006801280DD100BF3C4800689E
:1052400040F480703A4908600846006800F48070B5
:10525000009000BF00BF00BF35480C38006840F028
:10526000020033490C3908600846006800F002006B
:10527000009000BF00BF602001900220029000203B
:10528000039004900920059001A92C4800F0A4F88F
:1052900000220521142000F063FA142000F04CFADB
:1052A00040E02749206888423CD120480068401CE3
:1052B0001E4908600846006801280DD100BF1C483F
:1052C000006840F480701A4908600846006800F4DD
:1052D0008070009000BF00BF00BF15480C38006808
:1052E00040F0080012490C3908600846006800F0D8
:1052F0000800009000BF00BF4FF440500190022012
:1053000002900020039004900520059001A909480F
:1053100000F062F8002205219F2000F021FA9F2072
:1053200000F00AFA06B010BD00A0004018000024EA
:10533000EC440258000C025800A40040000402583B
:1053400000D400407047000070B504460D46064B7F
:10535000A3F1280240212046FFF7C4FA0249A1F137
:105360002800FDF7F3FD70BD380C002470B504462D
:105370000D46064BA3F1280241212046FFF7B2FA61
:105380000249A1F12800FDF711FE70BD6C0C00244C
:10539000014691F8980001280CD1022081F898006C
:1053A0000868806920F001000A6890610020C1F857
:1053B0009C007047D1F89C0040F00400C1F89C00AC
:1053C0000120F6E770477047704770477047704795
:1053D0007047704770477047F8B502460B4600218A
:1053E0006D4DD2E001278F401E6806EA0704002CAD
:1053F00072D01E7906F00306012E04D01E7906F045
:105400000306022E13D190684F000326BE40B0431E
:105410004F00DE68BE4030439060506801268E40E9
:10542000B0431E79C6F300168E40304350601E799B
:1054300006F00306032E09D0D0684F000326BE40B5
:10544000B0434F009E68BE403043D0601E7906F0E6
:105450000306022E13D1CF0802F1200656F82700CA
:105460004E07F70E0F26BE40B0434F07FF0E1E69D2
:10547000BE403043CF0802F1200646F827001068EE
:105480004F000326BE40B0431E7906F003064F00CE
:10549000BE40304310605E6806F44036002E73D084
:1054A00000BF3E4E366846F002063C4F3E603E4628
:1054B000366806F00206009600BF00BF384E8F081F
:1054C00056F827008E07370F0F26BE40B043354EE3
:1054D000B24202D1002629E056E0334EB24201D159
:1054E000012623E0314EB24201D102261EE0304EA9
:1054F000B24201D1032619E02E4EB24201D1042658
:1055000014E02D4EB24201D105260FE02B4EB242DF
:1055100001D106260AE02A4EB24201D1072605E053
:10552000284EB24201D1092600E00A268F073F0F1C
:10553000BE4030431A4E8F0846F827004FF0B04661
:105540003068A0435E6806F4801606B120434FF031
:10555000B04630607068A0435E6806F4001606B17D
:1055600020434FF0B04670606868A0435E6806F460
:10557000003606B1204368602868A0435E6806F4E0
:10558000803606B120432860491C1E68CE40002E9C
:105590007FF428AFF8BD000080000058F4440258A2
:1055A000080400580000025800040258000802587D
:1055B000000C02580010025800140258001802583B
:1055C000001C025800240258024613690B400BB11C
:1055D000012000E0002070470AB1816101E00B0466
:1055E0008361704701480068704700001C00002478
:1055F0000348006803490978084401490860704776
:105600001C0000242400002410B5032000F0E6F85C
:1056100001F08AF910490968C1F303210F4A515C6E
:1056200001F01F0120FA01F40B48006800F00F00A0
:105630001146085C00F01F0024FA00F008490860D9
:10564000084804600F2000F00FF808B1012010BDD9
:1056500000F05AF80020FAE71844025800E1000868
:105660002C00002428000024F0B58BB00446102C38
:105670000AD2002221461C2000F072F81C2000F003
:105680005BF81D48046002E001200BB0F0BD00BFD4
:105690001A48006840F00100184908600846006890
:1056A00000F00100019000BF00BF02A903A801F0B3
:1056B000CDF8089E1EB901F025F9054602E001F07B
:1056C00021F945000E48B5FBF0F0471E4FF0804031
:1056D0000C49086040F2E7310A48C1604760002188
:1056E0000161816002F072FB18B9064802F0A6FB66
:1056F000CBE70120C9E7000020000024E84402585D
:1057000040420F00D00A002408B500BF09480068D5
:1057100040F00200074908600846006800F00200F7
:10572000009000BF00BF00220F21901E00F018F86B
:1057300008BD0000F44402580146084600280DDB6D
:1057400000BF00BF00F01F0301229A4043099B00E5
:1057500003F1E023C3F8002100BF00BF00BF704782
:105760002DE9F05F80460D46164606F0E1FA074641
:1057700039462A46334601F00700C0F1070ABAF15C
:10578000040F02D94FF0040A01E0C0F1070AD14624
:1057900000F1040ABAF1070F02D24FF0000A01E04B
:1057A000A0F1030AD4464FF0010A0AFA09FAAAF155
:1057B000010A0AEA020A0AFA0CFA4FF0010B0BFA84
:1057C0000CFBABF1010B0BEA030B4AEA0B0421467D
:1057D000404606F0B5FABDE8F09F000000BF00F0BB
:1057E0000702064B19684FF6FF031940044B0B43A1
:1057F00043EA0221014B196000BF70470CED00E045
:105800000000FA0570B5044615480068C0F3800032
:1058100048B91348006800F00700A04201D00120F9
:1058200070BD0020FCE70E48006820F00700204310
:105830000B490860FFF7D6FE054607E0FFF7D2FEEA
:10584000401BB0F57A7F01D90120E9E70448083808
:105850000068C0F340300028F0D00020E0E70000EE
:105860000C4802582DE9F04104460025A8464FF0A7
:105870000062D4E900101140002013465940404016
:10588000014331D1606E48B1B0F5801F0DD0B0F545
:10589000001F11D0B0F5401F16D114E0FE4800687B
:1058A00040F40030FC49086010E0022104F10800D7
:1058B00004F0DCFF054609E0022104F1280005F0B0
:1058C00087F8054602E001E0012500BF00BF55B999
:1058D000F1482430006820F44010616E0843EE491E
:1058E0002431086000E0A8464FF48072D4E900102B
:1058F0001140002013465940404001432ED1A06D75
:1059000005281BD2DFE800F0030A11181900E2484D
:10591000006840F40030E049086011E0002104F123
:10592000080004F0A3FF05460AE0002104F1280066
:1059300005F04EF8054603E002E001E0012500BF56
:1059400000BF55B9D4482430006820F00700A16D8D
:105950000843D1492431086000E0A8464FF4806232
:10596000D4E9001011400020134659404040014343
:105970003DD1D4F8A400B0F5C00F24D007DC68B145
:10598000B0F5001F11D0B0F5800F1FD114E0B0F5B5
:10599000000F19D0B0F5200F18D116E0BE480068EE
:1059A00040F40030BC49086012E0002104F1080016
:1059B00004F05CFF05460BE0002104F1280005F02F
:1059C00007F8054604E003E002E001E0012500BF1E
:1059D00000BF5DB9B0482C30006820F46000D4F8F6
:1059E000A4100843AC492C31086000E0A8464FF4ED
:1059F0000062D4E90001104000211346584049409C
:105A000008433DD1D4F8A800B0F1407F24D007DC92
:105A100068B1B0F1807F11D0B0F1007F1FD114E0E8
:105A2000B0F1806F19D0B0F1A06F18D116E09A488C
:105A3000006840F400309849086012E0002104F149
:105A4000080004F013FF05460BE0002104F12800D4
:105A500004F0BEFF054604E003E002E001E001259A
:105A600000BF00BF5DB98C482C30006820F0E060BA
:105A7000D4F8A810084388492C31086000E0A846F3
:105A80004FF00073D4E90010194000205940404005
:105A9000014328D1E06CA8B1102804D0202809D0F7
:105AA000302810D10DE07C48006840F400307A497D
:105AB00008600AE0022104F1080004F0D7FE054660
:105AC00003E002E001E0012500BF00BF55B97248C4
:105AD0002030006820F03000E16C08436E4920312E
