:020000040800F2
:10000000700B00242D0400084F2C0008932B0008CF
:100010004D2C0008E5050008213100080000000013
:100020000000000000000000000000006D03000858
:100030008106000800000000C9030008992E00088E
:100040004B0400084B0400084B0400084B04000854
:100050004B0400084B0400084B0400084B04000844
:100060004B0400084B0400084B0400084B04000834
:100070004B0400084B0400084B0400084B04000824
:100080004B0400084B0400084B040008A5060008B8
:100090004B0400084B0400084B0400084B04000804
:1000A0004B0400084B0400084B0400084B040008F4
:1000B0004B040008353000084B0400084B040008CE
:1000C0004B0400084B0400084B0400084B040008D4
:1000D0004B0400084B0400084B0400084B040008C4
:1000E0004B0400084B040008000000004B0400080B
:1000F0004B0400084B0400084B0400084B040008A4
:100100004B0400084B0400084B0400084B04000893
:100110004B0400084B0400084B0400084B04000883
:100120004B0400084B0400084B0400084B04000873
:100130004B0400084B0400084B0400084B04000863
:1001400000000000000000000000000000000000AF
:100150004B0400084B0400084B0400084B04000843
:100160004B0400084B0400084B0400084B04000833
:100170004B0400084B0400084B040008000000007A
:100180004B0400084B0400084B0400084B04000813
:100190004B0400084B0400084B0400084B04000803
:1001A0004B0400084B0400084B040008000000004A
:1001B0004B0400084B0400084B0400084B040008E3
:1001C0004B0400084B040008000000000000000081
:1001D00000000000000000004B04000800000000C8
:1001E000000000000000000000000000000000000F
:1001F00000000000000000004B0400084B04000851
:100200004B0400084B040008000000004B040008E9
:100210004B0400084B0400084B0400084B04000882
:100220004B040008000000004B0400080000000020
:100230004B0400084B040008000000004B040008B9
:100240004B0400084B0400084B0400084B04000852
:100250004B0400084B0400084B0400084B04000842
:100260004B0400084B0400084B0400084B04000832
:100270004B0400084B0400084B0400080000000079
:100280004B0400084B0400084B0400084B04000812
:10029000000000004B0400084B04000800000000B0
:1002A000000000004B0400084B0400084B04000849
:1002B0004B0400084B0400084B0400084B040008E2
:1002C0004B0400084B0400084B04000800F002F83F
:1002D00000F03CF80AA090E8000C82448344AAF1A4
:1002E0000107DA4501D100F031F8AFF2090EBAE8A2
:1002F0000F0013F0010F18BFFB1A43F0010318475A
:100300003C3A00006C3A0000103A24BF78C878C12B
:10031000FAD8520724BF30C830C144BF04680C600B
:10032000704700000023002400250026103A28BF53
:1003300078C1FBD8520728BF30C148BF0B60704757
:100340001FB503F0ABFC1FBD10B510BD00F0EEF8FB
:100350001146FFF7F5FF02F0F5FE00F00CF903B4CB
:10036000FFF7F2FF03BC00F013F900002C4B1968F3
:100370000868B0E8F04F80F30988BFF36F8F4FF043
:10038000000080F3118870470000000008480068F2
:10039000006880F308884FF0000080F3148862B68C
:1003A00061B6BFF34F8FBFF36F8F00DF00BF00BF99
:1003B00008ED00E0DFF80C00016841F47001016015
:1003C000704700BF88ED00E0EFF30980BFF36F8F47
:1003D000134B1A681EF0100F08BF20ED108A20E999
:1003E000F04F106009B44FF0500080F31188BFF354
:1003F0004F8FBFF36F8F03F089FA4FF0000080F347
:10040000118809BC19680868B0E8F04F1EF0100F99
:1004100008BFB0EC108A80F30988BFF36F8F704774
:1004200018000024EFF30580704700000A48804759
:100430000A4880470A480047FEE7FEE7FEE7FEE776
:10044000FEE7FEE7FEE7FEE7FEE7FEE705480649B2
:10045000064A074B70470000890600085D2F000818
:10046000CD02000870050024700B002470070024E2
:100470007007002410B5203AC0F00B80B1E8185086
:10048000203AA0E81850B1E81850A0E81850BFF47E
:10049000F5AF5FEA027C24BFB1E81850A0E818501D
:1004A00044BF18C918C0BDE810405FEA827C24BF71
:1004B00051F8043B40F8043B08BF7047D20728BFFF
:1004C00031F8023B48BF11F8012B28BF20F8023B4E
:1004D00048BF00F8012B70474FF0000200B51346EB
:1004E00094469646203922BFA0E80C50A0E80C5054
:1004F000B1F12001BFF4F7AF090728BFA0E80C5005
:1005000048BF0CC05DF804EB890028BF40F8042BFD
:1005100008BF704748BF20F8022B11F0804F18BF6A
:1005200000F8012B7047704770477047754600F020
:100530002BF8AE4605006946534620F00700854675
:1005400018B020B5FFF782FFBDE820404FF000064D
:100550004FF000074FF000084FF0000B21F00701AB
:10056000AC46ACE8C009ACE8C009ACE8C009ACE8EE
:10057000C0098D46704710B50446AFF30080204691
:10058000BDE81040FFF7EBBE004870470C050024A3
:1005900001491820ABBEFEE72600020070470000AC
:1005A00010B58AB00024022001210194CDE9041481
:1005B000CDE902400A4801A9069400F0A2F90222FE
:1005C000074800231146009400F0DAF9044800229D
:1005D000012100F051F9024800F0C9FD0AB010BD38
:1005E000FC020024FEE7000070B5054600780C46CA
:1005F00000F00F0008802878F2EE040ABAEE040A30
:1006000000098881B5F8010040BAC881E8782979E5
:10061000000140EA111020822879697900F00F006A
:1006200041EA002060820C2103F02EF884ED070AD5
:10063000E0891021F2EE090ABAEE090A03F024F863
:1006400084ED050A208A0C21DFED0B0A9FED0B0AD1
:1006500003F01AF884ED060AA87900EE100AB8EE45
:10066000400A84ED080AE87900EE100AB8EE400A64
:1006700084ED090A70BD000000003442000034C25D
:10068000704772B6FEE70000054805490839026860
:1006900042F00202026008688004FCD57047000046
:1006A0000C480258014800F04FBA0000FC02002438
:1006B000F0B503684FF6FC716D4C426BD3F8845073
:1006C0008D4345EA8205C3F88450036853F8845F7C
:1006D000068F25F47F0545EA06451D60836B654D51
:1006E0009F180268D2F888308B4343EA8703C2F828
:1006F0008830026852F8883F868F23F4FE0343EA6D
:1007000006431360066856F8A03FC26B8B4307EBA5
:10071000420243EA82033360076857F8A03FB0F80B
:10072000406023F4FE0343EA06433B60D0E9103601
:1007300003FB06220368D3F8B0608E4346EA8206C4
:10074000C3F8B0600368B0F84860D3F8B07027F41D
:10075000FE0747EA0646C3F8B060D0E912670368AF
:1007600006FB0722D3F8AC608E4346EA8206C3F844
:10077000AC60D0E91467036806FB0722D3F8F06089
:100780008E4346EA8206C3F8F0600368B0F858600A
:10079000D3F8F07027F47C1747EA0646C3F8F060F8
:1007A0000368876D53F8C06F02EB47028E4346EA39
:1007B000820119600168B0F85C20D1F8C03023F4E0
:1007C0007C1343EA0242C1F8C020016890F860201F
:1007D000D1F8C03023F07C5343EA0262C1F8C02054
:1007E000416B04EB8101C166826B01EB82020267FF
:1007F000C36B02EBC3024267D0E91034634302EBE0
:1008000083028267D0E91234634302EB8302C2673A
:10081000D0E91434634302EB8302C0F88020836D77
:1008200002EBC303C0F88430C46D826E544303EB03
:100830008403C0F88830046E544303EB8402C0F88C
:100840009020AA420AD9D0F89C20032142F020022D
:10085000C0F89C2080F898100120F0BD002200E034
:1008600004C1D0F890308B42FAD80020F0BD0000CF
:1008700000AC0040FCD3004010B590F89830012B3C
:1008800009D0022B07D0D0F89C1041F00201C0F82B
:100890009C10012010BD03689C6D0C4203D1DC6DDF
:1008A00044F0010404E09C6D31EA04041FD00324E9
:1008B000DC658B0505D50368D3F8E0401443C3F825
:1008C000E0404B0505D50368D3F8E4401443C3F872
:1008D000E4400068084A01EA0203446D074A1C43E9
:1008E0004465106840EA91701060002010BDDC6D16
:1008F00044F00204DCE70000FFFFCF3F14A80040F3
:10090000704770B590F89820012A09D0022A07D0C4
:10091000D0F89C1041F00201C0F89C10012070BD7D
:100920000B68CA6883B10B69072A43EA427325D072
:100930000C7A4A6942EA84724968006F00EBC10090
:10094000C0E90032002070BD072A0DD00C7AD6060F
:100950000D8A4B6943EA847246EA0543C06E4968D2
:100960001A4340F82120EDE70B8A4FF06055D1E99A
:10097000062442EA034245EA0423EFE78A69DBE7FB
:1009800030B590F89850039C012D07D0D0F89C10FA
:1009900041F00401C0F89C10012030BD0D01016838
:1009A00045EA820040EA43002043C1F8800000206D
:1009B00030BD704770470000F0B590F898500024A3
:1009C000022D04D0D0F89C1041F0080129E0402904
:1009D00005D0412929D0056D8D4219D942E005681D
:1009E000D5F8A06016F4FE0F12D0D5F8A4607606F4
:1009F00013D0D5F8A460F60105D5D5F8A06016F09F
:100A0000004F00D50124D5F8A470466F456C24E052
:100A1000D0F89C1041F0200103E0D0F89C1041F484
:100A20008071C0F89C100120F0BD0568D5F8B06059
:100A300016F4FE0FECD0D5F8B4607606EDD0D5F8FC
:100A4000B460F60105D5D5F8B06016F0004F00D5BA
:100A50000124D5F8B470866FC56CC7F305273C44F4
:100A6000654302E0456DC66F4D4306EB85052E6874
:100A700016F0804656602E6836D026F06046166026
:100A8000D5F800C000262E4F0CF0005CC2F808C05C
:100A9000D5F800C00CF0004CC2F810C0B5F804C086
:100AA0001FFA8CFCC2F81CC0D5F804C0CCF3034C70
:100AB000C2F80CC0D5F804C00CF4801CC2F814C0F5
:100AC000D5F804C00CF4001CC2F818C0D5F804C056
:100AD000CCF3066CC2F820C0D5F804C008354FEA44
:100AE000DC7CC2F824C008E0C6F38A46C7E700BF32
:100AF00015F806C003F806C0761CD2F80CC017F82B
:100B00000CC0B445F4D840290AD041290CD0202982
:100B10004FF001020CD200688A40C0F898200DE026
:100B20000068C0F8A84009E00068C0F8B84005E0D7
:100B3000006801F01F018A40C0F89C200020F0BD31
:100B4000C43C0008704700002DE9FF5FDFF80CB3DC
:100B500004460BF10401DBF8000025680F68AA4683
:100B60008007D5F85090696DD5F850806E6D2A6D6C
:100B7000D5F854C02B6D00EA8770009009F47049D5
:100B80006F6D286D01EA09010191DAF85410DAF865
:100B90005490DAF8505008F00F0806EA080602965A
:100BA00002F0F00203F071536FEA09061F4000F0F3
:100BB00060700CEA020CCDF80CC0F20501EA0009E5
:100BC0000CD4E843C00509D400214FF48073CAF85F
:100BD0005030CBF800102046FFF7B4FF700512D458
:100BE000E84340050FD4206800234FF48068D0F814
:100BF000DC20D0F8E410C0F85080CBF80030114071
:100C0000204600F0D3FADFF858A2009850B12268CD
:100C1000830F00EA0A001065CBF8003020460099E7
:100C2000FFF76EFE019850B12268830F00EA0A00B8
:100C30001065CBF800302046019900F0B9FA02980F
:100C400050B12268830F00EA0A001065CBF800302B
:100C50002046029900F078FA039850B12268830F79
:100C600000EA0A001065CBF800302046039900F036
:100C70007DFA30050CD4E843000509D42368002030
:100C80004FF400621A65CBF80000204600F091FA9C
:100C9000B00512D4E84380050FD4206800234FF438
:100CA0000078D0F8D820D0F8E010C0F85080CBF809
:100CB00000301140204600F07AFA30030CD4E843AB
:100CC000000309D4236800204FF400221A65CBF8F2
:100CD0000000204600F036FAF0030CD4E843C003CD
:100CE00009D4236800204FF480321A65CBF8000045
:100CF000204600F05AFA70030CD4E843400309D4AC
:100D0000226800204FF480231365CBF800002046B2
:100D100000F04AFAB0030FD4E84380030CD42368F0
:100D200000204FF400321A65CBF80000D4F89C0084
:100D300040F08000C4F89C00B9F1000F0BD022688D
:100D40004FEA997309EA0A001065CBF8003049466A
:100D50002046FFF72FFE5FB12268BB0F07EA0A00AB
:100D60001065CBF80030D4F89C003843C4F89C00E0
:100D70003C492068884268D1606881468068800765
:100D800063D0D9F82060D9F82410D9F82080D9F898
:100D90002400D9F820C0D9F82470D9F82030D9F827
:100DA0002450D9F8202003F4FC4306F00F0AD9F8A8
:100DB00024601D40D9F824B008F030080CF4C07C41
:100DC00002F4F02211EA0A0100EA080807EA0C0717
:100DD00006EA0206D9F820A004D0C9F8201020465F
:100DE00000F0DFF9B8F1000005D061680862414603
:100DF000204600F0D8F96FEA0B0040060ED46FEAE7
:100E00000A0040060AD460684021C36BC26B0162CD
:100E10002046190C02F03F0200F0C4F92FB16068BF
:100E200007623946204600F0BBF935B160680562BB
:100E3000D4F89C002843C4F89C0036B16068066270
:100E4000D4F89C003043C4F89C00D4F89C000028DF
:100E500002D02046FFF7ADFDBDE8FF9F10A800407F
:100E6000FFFFCF3F00A000402DE9F04194B08D4935
:100E70004C2204466846FFF7FDFA64B18A4D2068AB
:100E8000A84202D100F58070606094F898004FF09D
:100E9000000820B108E0012014B0BDE8F081204630
:100EA00084F8998000F002F92068816921F010012E
:100EB000816100F08DFA0327064604E000F088FA0D
:100EC000801B0A2811D8206880690007F6D42068A2
:100ED000816941F00101816100F07AFA06460DE076
:100EE00000F076FA801B0A2808D9D4F89C0040F05C
:100EF0000100C4F89C0084F89870CCE720688069F1
:100F0000C007EDD02068816941F002018161207C39
:100F100001282068816937D041F040018161607CFF
:100F200001282068816932D021F480418161A07C50
:100F30000128206881692DD041F4805181612068A9
:100F4000A268816921F4407111438161206881693F
:100F500021F0A40181612068016921F01001016183
:100F6000E068012819D010B302281BD020688169DD
:100F700041F0800181612068016941F01001016147
:100F8000E06803280ED012E021F04001C6E741F4EA
:100F90008041CBE721F48051D0E72068816941F09E
:100FA000040103E02068816941F020018161207E15
:100FB0006FF0FF02D4E90773A68A1102400602EB24
:100FC0000727A0F10070384327685B1E184301EB28
:100FD00006463043F861A068B0F5407F11D104F1B6
:100FE0002800A68C6FF00F0C89C801EB0641401E4B
:100FF00002EB0322104322680CEB0713184308434B
:10100000D060206E30B12068626ED0F8C0101143FD
:10101000C0F8C010D4E917126846D14209D021683F
:10102000A36E51F8C82F50F8233022F007021A435C
:101030000A60216C49B12168626C51F8BC3F50F8DC
:10104000226023F0070232430A60A16C51B121688B
:10105000E36C51F8BC2F50F8233022F0700242EAC2
:1010600003120A60216D51B12168626D51F8BC3FD5
:1010700050F8220023F4E06242EA00200860206871
:10108000A84204D16068816821F003018160C4F83E
:1010900094800121C4F89C8084F898102046FFF7C2
:1010A00007FBF9E6D43C000800A0004010B5B4B03E
:1010B000044614212EA8FFF70FFAB8216846FFF75F
:1010C0000BFA1D492068884234D100204FF40041BA
:1010D000CDE900104A0368461B9200F0C5FA08B13A
:1010E000FFF7CFFA1548016841F48071016000688C
:1010F00000F48070339011480C38016841F0080109
:10110000016000680923032100F0080033900020EB
:101110002E9102222EA9CDE92F20CDE931030848D6
:1011200000F048F800220521132000F041FA1320B6
:1011300000F030FA34B010BD00A00040EC4402587A
:10114000000C025870470000064B402110B5A3F177
:1011500028021C46FFF730FC20460349BDE810403A
:10116000FFF742BA0405002480000024704790F87D
:101170009810012907D0D0F89C1041F00401C0F864
:101180009C1001207047022180F89810002201680D
:101190008B6923F001038B61C0F89C2010467047D7
:1011A0007047704770477047704770477047704787
:1011B000704770472DE9F84F03247A4D00234FF014
:1011C00001094FF0B04B4FF00F0AE4E009FA03F6C3
:1011D000324078D00F7907F00307012F01D0022F9A
:1011E0001AD187684FEA430ED1F80CC004FA0EF802
:1011F00027EA08070CFA0EFC4CEA070CC0F808C0F6
:10120000476891F804C0B743CCF3001C0CFA03FC08
:101210004CEA070CC0F804C00E79F643B6070BD0B1
:10122000C6684FEA43088F6804FA08FC26EA0C06F1
:1012300007FA08F73743C7600E7906F00306022E57
:1012400012D1DE080F694FEA437C00EB8606B646F2
:10125000366A4FEADC6C0AFA0CF807FA0CF726EA51
:1012600008063743CEF820700F7906684FEA430826
:1012700007F0030704FA08FC07FA08F726EA0C0649
:10128000374307604E6816F4403F1CD0464E37681F
:1012900047F00207376036689F0706F0020600969F
:1012A00023F0030606F1B046B6463F0FD6F80864B1
:1012B000DFF8F8800AFA07FC404526EA0C0603D15D
:1012C0004FF0000C3AE065E0DFF8E4C0604502D181
:1012D0004FF0010C32E0DFF8DCC0604502D14FF086
:1012E000020C2BE0DFF8D0C0604502D14FF0030CB8
:1012F00024E0DFF8C8C0604502D14FF0040C1DE0C7
:10130000DFF8BCC0604502D14FF0050C16E0DFF8F5
:10131000B4C0604502D14FF0060C0FE0DFF8A8C062
:10132000604502D14FF0070C08E0DFF8A0C060452F
:1013300002D14FF0090C01E04FF00A0C0CFA07FC47
:101340004CEA060CCEF808C44F68DBF80060FF02D8
:1013500026EA020600D516435F46CBF80060D1F8B6
:1013600004C0DBF804605FEA8C2C26EA020600D594
:1013700016437E606E684F6826EA0206BF0300D5FA
:1013800016436E602E684F6826EA0206FF0300D5FA
:1013900016432E605B1C0A6832FA03F67FF416AF20
:1013A000BDE8F88F80000058F4440258000002584D
:1013B0000004025800080258000C0258001002589D
:1013C0000014025800180258001C02580024025849
:1013D00001488068704700000400002402488168CA
:1013E000027811448160704704000024032010B586
:1013F00000F0FEF800F066FF0F4A10491468136809
:10140000C4F3032203F00F038A5CC95C02F01F02DD
:1014100001F01F01D0400A4A20FA01F11160094988
:1014200008600F2000F010F808B1012010BD00F096
:101430009FF8002010BD000018440258203D00080D
:10144000140000241000002410B5102804468AB0AF
:101450002CD2002201461D2000F0AAF81D2000F029
:1014600099F8174804601748016841F002010160CB
:10147000006809A900F002000890684600F0C0FE6C
:101480000598B0B100F00CFF40000F4900220F4C4E
:10149000B0FBF1F10E4840F2E7330460C0E90332DB
:1014A000491EC0E9011201F03FFA28B101200AB03B
:1014B00010BD00F0F5FEE8E7054801F067FAF6E731
:1014C00008000024E844025840420F000004004095
:1014D0009C030024154BF0B5083B427813491A6071
:1014E0000B680A1F23F001030B6043681360057B40
:1014F000C67A827A437B2D07847B45EA0665C77BE3
:1015000090F809C0067A90F800E045EAC24040EA47
:10151000834040EA444040EA074040EA0C2040EA69
:10152000460040EA0E000860F0BD0000A0ED00E0BB
:10153000BFF35F8F044800210368034A23F480331C
:10154000036070321160704724ED00E0074A40F0FC
:101550000100064970321060086840F4803008606D
:10156000BFF34F8FBFF36F8F7047000024ED00E093
:10157000074882B0016841F0020101600068002262
:101580000F2100F002000090901E02B000F010B891
:10159000F4440258002809DB410900F01F028900C9
:1015A000012001F1E0219040C1F8000170470000E6
:1015B0000E4BF0B41B680D46C3F30223C3F10706BC
:1015C000042E00D90426191D072901D2002300E0AA
:1015D000DB1E012404FA06F19C40491E2940641ECA
:1015E000994014402143F0BC01F09BBD0CED00E09C
:1015F000064900F0070210B54FF6FF040868044BD7
:10160000204040EA02201843086010BD0CED00E0C5
:101610000000FA05134970B50A68D243520705D590
:10162000096801F00701814213D118E00A6822F02D
:10163000070202430A60FFF7CBFE0A4D4FF47A76A9
:101640000446083D07E000BFFFF7C2FE001BB042A2
:1016500001D9012070BD2868C0438004F4D4002063
:1016600070BD00000C4802582DE9FE4F0546DFF81A
:1016700000A450F8081B0024FD4FC943019005F158
:10168000280026460AF1240A009008011DD4686E3D
:1016900050B1B0F5801F0CD0B0F5001F0ED0B0F5E2
:1016A000401F1ED001240FE0386840F4003038603D
:1016B00017E00198022101F0CBFA03E00098022123
:1016C00001F056FB04000CD026462888C043C00514
:1016D00023D4A86D05281ED2DFE800F00C11161BDC
:1016E0001B006A6EDAF8001021F440111143CAF8A9
:1016F0000010EAE7386840F40030386009E00198EB
:10170000002101F0A5FA03E00098002101F030FB70
:101710000446C4B100E0012426462888DFF850833F
:10172000C04308F12C0840052FD4D5F8A400B0F52B
:10173000C00F28D010DCB8B1B0F5001F19D0B0F53B
:10174000800F0FD11AE0AA6DDAF8001021F007011E
:101750001143CAF80010E0E7B0F5000F13D0B0F560
:10176000200F10D001240FE0386840F400303860BA
:1017700009E00198002101F06BFA03E000980021D4
:1017800001F0F6FA044694B126462888C0430005C5
:1017900030D4D5F8A800B0F1407F29D011DCC0B119
:1017A000B0F1807F1AD0B0F1007F10D11BE0D5F8E6
:1017B000A420D8F8001021F460011143C8F80010EB
:1017C000E3E7B0F1806F13D0B0F1A06F10D0012427
:1017D0000FE0386840F40030386009E001980021DB
:1017E00001F036FA03E00098002101F0C1FA044646
:1017F00094B126462868DFF878B2C0430BF1200B7D
:1018000080011FD4E86CD8B110280FD0202812D046
:10181000302815D0012414E0D5F8A820D8F80010FD
:1018200021F0E0611143C8F80010E3E7386840F4A4
:101830000030386004E00198022101F009FA044602
:1018400074B126462888C043C0042BD4E86DB0F597
:10185000005F20D00DDCA0B1B0F5805F0FD115E0A6
:10186000EA6CDBF8001021F030011143CBF80010D6
:10187000E8E7B0F5405F13D0B0F5804F10D00124F9
:101880000FE0386840F40030386009E0019800212A
:1018900001F0DEF903E00098002101F069FA044646
:1018A0008CB126462888C043800429D4286EB0F520
:1018B000403F23D010DC08B3B0F5803F14D0B0F522
:1018C000003F0FD115E0EA6DDAF8001021F4E04195
:1018D0001143CAF80010E5E7B0F5802F0ED0B0F53F
:1018E000A02F0BD001240AE00198012101F0B0F9EA
:1018F00003E00098012101F03BFA044694B126462A
:101900002888C04340042AD4D5F8AC00B0F1405F29
:1019100023D010DC08B3B0F1805F14D0B0F1005FC9
:101920000FD115E02A6EDAF8001021F4E0211143FE
:10193000CAF80010E4E7B0F1804F0ED0B0F1A04F2C
:101940000BD001240AE00198012101F081F903E0A4
:101950000098012101F00CFA044674B1264628884B
:10196000C04300041FD4E86ED8B1B0F1805F0ED040
:10197000B0F1005F10D0012414E0D5F8AC20D8F805
:10198000001021F0E0411143C8F80010E7E7386883
:1019900040F40030386004E00198012101F058F96A
:1019A000044674B126462868C043C0011ED4A86C02
:1019B000D0B101280ED0022811D0032814D0012460
:1019C00013E0EA6EDAF8001021F040511143CAF832
:1019D0000010E8E7386840F40030386004E001980F
:1019E000022101F035F904466CB126462868C0434F
:1019F000400255D41F48016841F480710160FFF72F
:101A0000E7FC81460EE0AA6CDBF8001021F0030130
:101A10001143CBF80010E9E7FFF7DAFCA0EB09006F
:101A200064283BD813480068C005F5D5BCBBDFF877
:101A30004090B5F8B01009F14409D9F8000001F45C
:101A4000407100F44070884211D0D9F80010D9F8E4
:101A5000002021F4407142F48032C9F80020D9F806
:101A6000002022F48032C9F80020C9F8001003E0F9
:101A70002C44025800480258D5F8B000B0F5807FD9
:101A800019D1FFF7A5FC029011E000BFFFF7A0FC01
:101A90000299411A41F28830814208D9032426462E
:101AA0002878DFF81494C043C00721D03CE0D9F86F
:101AB00000008007EAD5D5F8B010C1F30120032853
:101AC000FE480DD0016821F47C510160B5F8B020CA
:101AD000D9F80010C2F30B021143C9F80010DFE778
:101AE000F74A036802EA111223F47C511143ECE730
:101AF000A86F182816D005DCA0B1082808D0102837
:101B000004D10AE020280DD028280BD001240AE0B7
:101B10000198012101F09CF803E00098012101F0F7
:101B200027F9044664B126462878C04380071ED4AE
:101B3000686F062819D2DFE800F0160C1116161689
:101B4000AA6FD9F8001021F038011143C9F800102C
:101B5000EAE70198012101F07BF803E000980121F8
:101B600001F006F904467CB100E0012426462878FD
:101B7000C04340071FD4D5F89000062819D2DFE8EB
:101B800000F0160C111616166A6FD9F8001021F025
:101B900007011143C9F80010E9E70198012101F09C
:101BA00057F803E00098012101F0E2F80446A4B1DF
:101BB00000E0012426462878C04380062BD4D5F8BF
:101BC0008C00B0F1405F24D011DC10B3B0F1805F25
:101BD00015D0B0F1005F10D116E0D5F89020D8F8FC
:101BE000001021F007011143C8F80010E3E7B0F13D
:101BF000804F0ED0B0F1A04F0BD001240AE0019825
:101C0000002101F025F803E00098022101F0B0F86E
:101C1000044694B126462878C04340062BD4D5F814
:101C20009800B0F5406F24D011DC10B3B0F5806F90
:101C300015D0B0F5006F10D116E0D5F88C20D9F88A
:101C4000001021F0E0411143C9F80010E3E7B0F5BE
:101C5000805F0ED0B0F5A05F0BD001240AE00198A0
:101C6000002100F0F5FF03E00098022101F080F868
:101C7000044694B126462878C04300062BD4D5F8F4
:101C80009C00B0F5C04F24D011DC10B3B0F5005F5C
:101C900015D0B0F5804F10D116E0D5F89820D8F8BF
:101CA000001021F4E0511143C8F80010E3E7B0F54B
:101CB000004F0ED0B0F5204F0BD001240AE0019860
:101CC000002100F0C5FF03E00098022101F050F868
:101CD000044654B126462878C04300071ED4D5F8E0
:101CE0008000B0F5805F0AD00FE0D5F89C20D8F8CE
:101CF000001021F460411143C8F80010EBE7009890
:101D0000022101F035F800B10126D5F88020D9F87C
:101D1000001021F440511143C9F800102878C04345
:101D2000C00613D4D5F89400B0F5807F05D1009893
:101D3000022101F01DF800B10126D5F89420D8F851
:101D4000001021F440711143C8F800102868C04306
:101D5000000316D4D5F8A00038B1B0F5803F09D003
:101D6000B0F5003F0BD001240AE00198002100F0FB
:101D70006FFF03E00098022100F0FAFF04468CB1E7
:101D800026462868C043400322D4D5F88400B0F525
:101D9000801F11D0B0F5001F13D0B0F5401F15D033
:101DA000012414E0D5F8A020D8F8001021F4403127
:101DB0001143C8F80010E4E7386840F40030386098
:101DC00004E00098012100F0D3FF04465CB12646F0
:101DD0002868C043C0031CD4286D70B1B0F5803FA3
:101DE00010D0012414E0D5F88420D9F8001021F493
:101DF00040111143C9F80010EAE7386840F4003098
:101E0000386004E00198022100F022FF0446DCB1B2
:101E100026462868C043800005D40098022100F0BF
:101E2000A7FF00B101262868C04380031BD4E86FD8
:101E3000B8B1B0F5807F10D0B0F5007F11D0B0F50B
:101E4000407F0ED001240DE02A6DDBF8001021F454
:101E500080311143CBF80010DBE7386840F40030E4
:101E600038607CB326462868C043C00207D42A6F76
:101E7000DAF8001021F000411143CAF80010286878
:101E8000C043800207D4AA6EDAF8001021F08071F6
:101E90001143CAF800102868C043400009D407481D
:101EA000016821F4004101600168D5F8B4201143B4
:101EB00001602868C04306E05444025810440258A8
:101EC000CFFFFF001DE007D46A6DDBF8001021F0A2
:101ED00040511143CBF800102868C043000208D4D9
:101EE000D5F88820D9F8001021F440011143C9F831
:101EF000001028790024C04300F00100204309D0DD
:101F00000EE0EA6FD9F8001021F440711143C9F8CE
:101F10000010A8E70198002100F09AFE00B10646E3
:101F20002879C04300F00200204305D10198012127
:101F300000F08EFE00B106462879C04300F0040090
:101F4000204305D10198022100F082FE00B106462F
:101F50002879C04300F00800204305D100980021F3
:101F600000F006FF00B106462879C04300F01000DB
:101F7000204305D10098012100F0FAFE00B1064689
:101F80002879C04300F02000044304D100980221C6
:101F900000F0EEFE00B916B10120BDE8FE8F002072
:101FA000FBE700002DE9F05F04000F467ED0DFF86C
:101FB0003882D8F8000000F00F00B8420CD2D8F8F0
:101FC000001021F00F013943C8F80010D8F80000C4
:101FD00000F00F00B84269D12078844D40070AD53F
:101FE0002069296801F07001884204D9296821F02C
:101FF00070010143296020787C4E361D00070AD508
:102000006069316801F07001884204D9316821F0BB
:102010007001014331602078C0060AD5A06931689B
:1020200001F4E061884204D9316821F4E0610143A0
:1020300031602078DFF8B4B180060BF1080B0CD5C5
:10204000E1695846DBF8002002F07002914204D9A1
:10205000026822F070020A430260207880070AD5E5
:10206000E068296801F00F01884204D9296821F04D
:102070000F01014329602078C0073ED05B49A26868
:102080002868183920F470601043286060680228BE
:1020900018D0032819D00968012819D04907002948
:1020A0004ADADFF848A1AAF1080A00E044E0DAF8C9
:1020B000002022F007020243CAF80020FFF788F947
:1020C000814612E009688903E9E709688901E6E7C2
:1020D000C905E4E7FFF77CF9A0EB090141F288307C
:1020E000814202D90320BDE8F09F6168DAF8000060
:1020F00000F03800B0EBC10FECD1207880070AD592
:10210000E068296801F00F01884204D2296821F0B3
:102110000F0101432960D8F80010404601F00F017B
:10212000B9420BD9016821F00F0139430160006801
:1021300000F00F00B84201D00120D4E7207840071A
:102140000AD52069296801F07001884204D2296803
:1021500021F0700101432960207800070AD56069E9
:10216000316801F07001884204D2316821F07001B9
:10217000014331602078C0060AD5A069316801F4B6
:10218000E061884204D2316821F4E06101433160AA
:10219000207880060CD5E1695846DBF8002002F073
:1021A0007002914204D2026822F070020A43026077
:1021B00000F088F80E492A682B68C2F3032203F066
:1021C0000F038A5CC95C02F01F0201F01F01D040BE
:1021D000084A20FA01F111600749086007480068C1
:1021E000BDE8F05FFFF730B90020005218440258F4
:1021F000203D0008140000241000002408000024E2
:1022000070B5144C3F220260124A24680832131D34
:10221000114D04F00704446016681C1D06F4706636
:102220008660166806F00F06C660126802F070023B
:1022300002611A6802F0700242611A6802F4E062F8
:102240008261226802F07002C261286800F00F000B
:10225000086070BD104402580020005230B500F0F4
:1022600031F80B4A0B490C4B15681468C5F303226F
:1022700004F00F048A5C095D02F01F0201F01F01E7
:10228000D040064A20FA01F119601060084630BDBE
:1022900018440258203D00081400002410000024B7
:1022A00000B5FFF7DBFF05490968054AC1F30211D4
:1022B000515C01F01F01C84000BD00001C440258E1
:1022C000203D0008454970B545480968434B103B1F
:1022D00011F0380208D00111082A03D0102A0BD0BF
:1022E000182A0BD0084670BD19688906FBD51968F5
:1022F000C1F3C101C84070BD3A4870BD3749374D80
:1023000018310C1D24350A68096826682D6802F00A
:10231000030406F00102C1F30511C5F3CC0515FB5A
:1023200002F200EE102AB8EE400AE9B32F4ADFEDC0
:102330002E0AB7EE001A6CB1DFED2D1A012C01D078
:10234000022C43D002EE101A1068F8EE422A81EEF9
:10235000A22A1EE01C68A40611D51B6801EE901A83
:102360001168C3F3C103F8EE612AD84001EE900A68
:10237000C1F30800F8EE611A81EEA22A0BE001EE2B
:10238000901ADFED1C2A00BFF8EE611A106882EE89
:10239000A12AC0F3080001EE900AF8EE611A40EE9F
:1023A000201A31EE810A00E015E022EE000A1068E2
:1023B000C0F34620401C00EE900AF8EE600A80EE62
:1023C000201ABCEEC10A10EE100A70BD01EE901A80
:1023D000DFED092AD8E7002070BD00001044025844
:1023E0000090D00300366E010000003930440258DE
:1023F0000024744A0024744C001BB74B2DE9F05F95
:1024000004007DD0FF4F2078FE4D1837DFF8F483AD
:10241000103DC00748D0D8F80000396800F03800F7
:10242000102815D0182803D101F0030002280FD07E
:102430006068B0F5803F12D010B1B0F5A02F18D071
:10244000286820F480302860286820F4802009E083
:102450002868800328D560680028D2D024E0286846
:1024600040F480302860606888B1FEF7B1FF06460E
:1024700009E0286840F480202860F0E7FEF7A8FF14
:10248000801B64287ED828688003F7D50CE0FEF70F
:102490009FFF064605E000BFFEF79AFF801B6428F9
:1024A000F0D828688003F7D42078800756D5D8F86C
:1024B0000000DFF85093396810F03800A9F10C09DA
:1024C0000ED0182801D188070AD0E068A8B329687F
:1024D00021F0190101432960FEF77AFF064628E042
:1024E0002868400702D5E06800288AD0E16828689B
:1024F00020F0190008432860FEF76AFF064606E050
:10250000D2E000BFFEF764FF801B0228BAD828681B
:102510004007F7D5217CD9F8002022F0FE4242EA9C
:102520000161C9F8001019E0FEF752FF801B022874
:10253000A8D828684007F7D5ECE7FFE7286820F01F
:1025400001002860FEF744FF064604E0FEF740FF66
:10255000801B022896D828684007F7D42078C00648
:1025600046D5D8F80000DFF89C92396800F03800B2
:10257000A9F10409082812D0182805D101F0030098
:10258000012800E0CEE00AD0E0690028286820D0C9
:1025900040F080002860FEF71BFF064615E0286823
:1025A000C00502D5E06980287ED194F82010D9F8C2
:1025B000002022F07C5242EA0161C9F8001017E0C5
:1025C000FEF706FF801B0228A0D82868C005F7D5B3
:1025D000EBE720F080002860FEF7FAFE064604E0F4
:1025E000FEF7F6FE801B022890D82868C005F7D4B5
:1025F0002078000729D58348616964300029814625
:10260000016811D041F001010160FEF7E1FE0646CC
:1026100005E000BFFEF7DCFE801B022888D8D9F851
:1026200000008007F6D510E021F001010160FEF7FF
:10263000CFFE064605E000BFFEF7CAFE801B02285B
:1026400070D8D9F800008007F6D42078800623D50A
:10265000A0690028286810D040F480502860FEF758
:10266000B7FE064605E000BFFEF7B2FE801B02285B
:1026700058D828688004F7D50EE020F480502860F0
:10268000FEF7A6FE064604E0FEF7A2FE801B022827
:1026900048D828688004F7D42078400751D5DFF85F
:1026A0006891D9F8001000E015E141F48071C9F893
:1026B0000010FEF78DFE064605E000BFFEF788FE1F
:1026C000801B64282ED8D9F80000C005F6D54D4EE1
:1026D000A068603601280AD008B1052813D03068F8
:1026E00020F001003060306820F0040002E0306823
:1026F00040F001003060A06841F2883A98B1FEF7DE
:1027000067FE81460AE0306840F004003060EEE782
:10271000FEF75EFEA0EB0901514503D83068800743
:10272000F6D50EE072E0FEF753FE814606E000BFEC
:10273000FEF74EFEA0EB0901514567D830688007CF
:10274000F6D4606A00287CD0DFF8B8A0D8F8001072
:102750000AF1200A4FF6F87B0AF10408C1F3C2011E
:102760000329AAF104096DD00228286820F080709E
:10277000286003D0FEF72CFE044681E0FEF728FE19
:10278000064604E0FEF724FE801B022875D8286860
:102790008001F7D4E26A40F2F331386854F8283FF8
:1027A000884340EA021018433860217B4FF4FE0C46
:1027B00022894FF0FE47208A4902267D521E401E84
:1027C000A1F5007189B2C2F308021143761E0CEA2A
:1027D00000400143484607EA06621143CAF8001068
:1027E000D9F8001021F00101C9F80010D8F8003024
:1027F000266A23EA0B0343EAC601C8F80010D9F899
:10280000001004E0104402580048025835E0A26964
:1028100021F00C011143C9F800100168E26921F0B0
:10282000020111430160016841F4803101600168D7
:1028300041F400310160016841F4802101600168C8
:1028400001E06CE020E041F001010160286840F007
:1028500080702860FEF7BCFD044604E0FEF7B8FD7A
:10286000001B022809D828688001F7D557E000BF6F
:10287000FEF7AEFD001B022802D90320BDE8F09F41
:1028800028688001F4D44AE039680128DAF80000A9
:1028900021D0A26A01F0030393421CD1E26AC1F382
:1028A00005118A4217D1216BC0F30802491E8A42E2
:1028B00011D1616BC0F34622491E91420BD1A16B2D
:1028C000C0F30642491E914205D1E16BC0F3066098
:1028D000491E814201D00120D0E7A16C4646D8F8BC
:1028E0000000C0F3CC00814219D0D9F800004D4659
:1028F00020F00100C9F80000FEF76AFD4FEA00076A
:10290000FEF766FDB842FBD0A26C306820EA0B00EF
:1029100040EAC2003060286840F0010028600020D2
:10292000ACE770477047704710B5040003D094F8C7
:102930003D0010B107E0012010BD002084F83C00EC
:10294000204600F022F8022084F83D002068211D76
:1029500000F076FB012084F8480084F83E0084F8FB
:102960003F0084F8400084F8410084F8420084F875
:10297000430084F8440084F8450084F8460084F855
:10298000470084F83D00002010BD704790F83D10CE
:10299000012901D0012070471A4A022180F83D1018
:1029A0000168CB6843F00103CB60006890421AD005
:1029B000B0F1804F17D01449884214D0134988428F
:1029C00011D0134988420ED0124988420BD01249C7
:1029D000884208D01149884205D01149884202D066
:1029E0001049884207D181680F4A1140062906D054
:1029F000B1F5803F03D0016841F001010160002082
:102A00007047000000000140000400400008004042
:102A1000000C00400004014000180040004001404C
:102A200000E0004000E400400700010070472DE98D
:102A3000F041044600680027C6680569A90713D558
:102A4000B10711D5FA1E0261012121772068806942
:102A50008007204602D0FFF7E9FF04E000F08BF882
:102A6000204600F089F82777680716D5700714D537
:102A7000226802206FF004011161207720688069CC
:102A800010F4407F204602D0FFF7D0FF04E000F0B2
:102A900072F8204600F070F82777280715D5300720
:102AA00013D5226804206FF0080111612077206897
:102AB000C0698007204602D0FFF7B8FF04E000F0AD
:102AC0005AF8204600F058F82777E80616D5F006A1
:102AD00014D5226808206FF010011161207720685A
:102AE000C06910F4407F204602D0FFF79FFF04E04A
:102AF00000F041F8204600F03FF82777E80708D0BB
:102B0000F00706D021686FF001000861204600F050
:102B100035F8280601D4A80408D5300606D5216862
:102B20006FF4025008612046FFF7FCFEE80508D567
:102B3000300606D521686FF4807008612046FFF7E3
:102B4000F0FE680608D5700606D521686FF04000D3
:102B50000861204600F01CF8A8060AD5B00608D582
:102B600021686FF0200008612046BDE8F041FFF7C2
:102B7000DABEBDE8F0817047704700000068034985
:102B8000884201D1FEF72ABC7047000000040040D3
:102B90007047FEE71748002170B5154C1D25816070
:102BA000032604600A23C1600422017401244174D5
:102BB00081744661C0E90635C0E90836C0E90A35C6
:102BC0008463C0E90C31C0E90F12C0E91121C0E9EA
:102BD0001321C0E91521C0E91712C0E91912FEF747
:102BE00043F9002803D0BDE87040FDF74ABD70BD31
:102BF00000A00040FC02002400B587B006491C225A
:102C00006846FDF737FC0021684600F0E3FA034907
:102C1000086007B000BD0000A83C000800000024C8
:102C2000094808B5016841F080010160016801F0C0
:102C300080010091016841F008010160006800F026
:102C40000800009008BD0000E0440258FEE7FEE7DF
:102C50002DE9F047454D044689464FF0000A2868A3
:102C6000C04380070AD0414E283E306820F0806083
:102C70003060FEF7ADFB0746B04608E00120BDE836
:102C8000F08700BFFEF7A4FBC01B022867D8D8F866
:102C900000000001F6D4206829684FF4FE0721F4F3
:102CA0007C313E0241EA00302860207AA389B4F8E2
:102CB00004C040022D4D2D495B1E227CACF1010C5D
:102CC0001035091DA0F5007080B2521ECCF3080C1F
:102CD00007EA034340EA0C00184306EA0262104385
:102CE00028600868626920F0C000104308600A6824
:102CF000A06922F0200202430A60281D0A6822F01F
:102D000010020A6002684FF6F873E4699A4342EAD7
:102D1000C40202600868B9F1000F40F010020A60B6
:102D200011D00868B9F1010F11D040F4001008600B
:102D3000D8F80000444640F08060C8F80000FEF774
:102D400047FB05460DE0086840F40020EFE740F43B
:102D50008010ECE7FEF73CFB401B022801D9032062
:102D60008DE720680001F5D5504688E728440258D1
:102D70002DE9F047454D044689464FF0000A286882
:102D8000C04380070AD0414E283E306820F0805072
:102D90003060FEF71DFB0746B04608E00120BDE8A5
:102DA000F08700BFFEF714FBC01B022867D8D8F8D5
:102DB00000008000F6D4208829684FF4FE0721F037
:102DC0007C713E0241EA00502860207AA389B4F861
:102DD00004C040022D4D2D495B1E227CACF1010C3C
:102DE0001835091DA0F5007080B2521ECCF3080CF6
:102DF00007EA034340EA0C00184306EA0262104364
:102E000028600868626920F44060104308600A681E
:102E1000A06922F4007202430A60281D0A6822F4A5
:102E200080720A6002684FF6F873E4699A4342EAD6
:102E3000C40202600868B9F1000F40F480720A60B1
:102E400011D00868B9F1010F11D040F0807008600E
:102E5000D8F80000444640F08050C8F80000FEF763
:102E6000B7FA05460DE0086840F48000EFE740F44B
:102E70000000ECE7FEF7ACFA401B022801D9032062
:102E80008DE720688000F5D5504688E72844025831
:102E9000012000F093F9FBE7502010B580F3118872
:102EA000BFF34F8FBFF36F8F00F030FE18B10449AE
:102EB0004FF080500860002080F3118810BD0000A2
:102EC00004ED00E070B59CB04C216846FDF704FBB2
:102ED000202113A8FDF700FB0220FEF79BFB1E48F4
:102EE000016821F4404101600168002401F440417F
:102EF0001B9101688904FCD502200A9028230990BF
:102F0000C20301210D910425CDE90012CDE90B0387
:102F10000C261294CDE90E50CDE910646846FFF7F7
:102F20006DFA08B172B6FEE740201A900823050139
:102F3000CDE9163013ABCDE918053F21032283E814
:102F4000160013A81146FFF72DF8002801D072B61D
:102F5000FEE71CB070BD0000184802582D48F0B5BF
:102F60002D4A016841F470010160106800F00F0003
:102F7000072804D2106820F00F00C01D10602749F8
:102F80000020264C10340B68254D43F001030B60E4
:102F900020600B682B400B60136803F00F03072BB6
:102FA00004D9136823F00F03DB1D13601B4C1D4A6B
:102FB00018341D4B261D371D2060184C1B4D28341E
:102FC0003060261D3860371D23603B1D35601C1D99
:102FD0003A60251D2E1D1860331D22602860326066
:102FE00018600B680D4A0D4C23F48023D4320B601B
:102FF000603420601068C0040BD4136843F2D20020
:103000000B4943F4805313600860106820F480502B
:103010001060F0BD88ED00E000200052004402582E
:103020007FEDF6EA80020101000202020000FF01CA
:10303000004000520148FFF7FABC00009C03002446
:103040002DE9F0472C4B4FF0804A2C4D02689842F6
:103050002B4E2C4F2C4C09D0504507D0A84205D000
:10306000B04203D0B84201D0A04205D1D1F804C08B
:1030700022F070024CEA0202DFF890C0DFF8908084
:103080009842DFF8909015D0504513D0A84211D047
:10309000B0420FD0B8420DD0A0420BD0604509D04D
:1030A000404507D0484505D01B4DA84202D01B4DD6
:1030B000A84203D1CD6822F440722A438E684D693C
:1030C00022F08002C6620E682A439842866207D0C8
:1030D000A04205D0604503D0404501D0484501D10C
:1030E000096901630368012143F00403036041613E
:1030F0000260BDE8F08700000000014000040040CD
:1031000000080040000C0040000401400040014065
:10311000004401400048014000E0004000E400405D
:10312000FEE7090700284FEA116104DB00F1E02007
:1031300080F80014704700F00F0000F1E02080F8E4
:10314000141D70471FB50024009401940294039449
:10315000FEF7EEF901208DF80C001F218DF8081004
:1031600087228DF809208DF80D008DF80000684643
:103170008DF80A408DF80E408DF8014001948DF8CD
:103180000B408DF80F40FEF7A5F90420FEF7DEF99D
:10319000FEF72CF9FFF796FEFFF742FDFFF7FAFC6A
:1031A000FDF7FEF9FFF728FD00F00FF8FEE7842891
:1031B00001464FF0000000D0C81C704710B500B9A0
:1031C000012000F03FFB002010BD10B500F060FBB7
:1031D000002010BD7FB50D4641690446B0F90800D6
:1031E00081B1A16971B1FFF7E2FFD4E905122B4665
:1031F0008DE807002269D4E9001000F05CFC039020
:1032000004B070BDFFF7D3FF03A92B46CDE9000141
:10321000228AD4E9001092B200F020FC012801D0EB
:103220000020EDE70398EBE72DE9F041184C0F463D
:103230000546E6682068001D00F03AFA38B92268B1
:103240000121206992F82C20914088432061681C5C
:1032500007D137B12168BDE8F0410E48091D00F0E3
:103260006DBA20683544B5424560216805D2A06B2F
:10327000091DBDE8F04100F049BA606B091D00F07E
:1032800045FAA06A854200D2A562BDE8F08100003F
:1032900018000024C40400242DE9F041054600F084
:1032A00059FA2E4C2E4FA068401CA060206810B127
:1032B000606940B32DE02560A068012829D100266F
:1032C00006EB860007EB800000F012FA761C072E52
:1032D000F6D323488C3000F00BFA2148A03000F0E0
:1032E00007FA1F48B43000F003FA1D48C83000F058
:1032F000FFF91B48DC3000F0FBF919488C306063A3
:103300001430A06305E0E86A2168C96A814200D8E8
:1033100025600120616A491C6162E96A226988406E
:103320001043206101EB8100291D07EB800000F0B4
:1033300005FA00F02FFA606900280CD02068E96ACD
:10334000C06A884207D207494FF080500860BFF337
:103350004F8FBFF36F8FBDE8F0810000180000248D
:10336000E803002404ED00E010B5044690F8510095
:1033700058B101280CD002280FD0502080F31188BA
:10338000BFF34F8FBFF36F8FFEE7206B00F016FA8D
:103390002046BDE8104000F011BA10BD11484FF4AE
:1033A000705110B5420706D00E49C01D20F007002D
:1033B000411AC1F570510C4C002301440839A4F1A5
:1033C000180221F00701C4E900030C1A11604B60D8
:1033D0000B60C0E9001494604FF0004154605161EB
:1033E00010BD0000000000206C000024144E4FF0BF
:1033F0008058144CDFF85090A6F1C80712E000BFC7
:1034000000F0A8F9F068C568281D00F051F9A0681F
:10341000401EA0606068401E606000F0BBF9284656
:10342000FFF7A2FF60680028EAD138680128F9D9BF
:10343000C9F80080BFF34F8FBFF36F8FF2E7000032
:10344000B00400241800002404ED00E02DE9F0474A
:103450009A4681466FF00303DDE9098403EB82029B
:10346000089E206B104420F00707780707D05020F3
:1034700080F31188BFF34F8FBFF36F8FFEE74FF0DC
:10348000000561B1002023180A5C83F834200A5C2F
:1034900012B1401C1028F6D384F8435001E084F8A0
:1034A0003450072E00D30626E662201DC4E91165BC
:1034B00000F029F904F1180000F025F9E564C6F1DF
:1034C0000700A06184F850505246246149463846AE
:1034D000646200F0C1F8B8F1000F206001D0C8F8B4
:1034E0000040BDE8F087000030B5114900E011460A
:1034F0000A688242FBD34B685C18844203D144685B
:10350000084623444B6043681D18954209D1084C76
:10351000183C2468A24209D052681A4442600A68E2
:1035200012680260814200D0086030BD0460F9E793
:103530006C0000240648416B096829B1416BC968D9
:10354000C9684968816270474FF0FF31FAE70000AF
:103550001800002408484068401C4FF0500080F3D9
:10356000118804D0BFF34F8FBFF36F8FFEE7BFF317
:103570004F8FBFF36F8FFEE7740000242DE9F041F9
:103580000027044600F0BAF9324E306808B9FFF758
:1035900005FF706904424ED1C4B3083460070ED0F1
:1035A00004F00700C0F108000444600707D0502071
:1035B00080F31188BFF34F8FBFF36F8FFEE72CB3FB
:1035C0007068844237D82348183001460D6801E0FE
:1035D00028460D466968A14202D229680029F7D120
:1035E00031688D4227D0076829680160083768680C
:1035F000011B10290FD92819420708D0502080F349
:103600001188BFF34F8FBFF36F8FFEE713E0416068
:103610006C60FFF769FF69687068401A7060B26893
:10362000904200D2B060002072691143C5E90001E8
:10363000F068401CF06000F0CFFA780707D0502007
:1036400080F31188BFF34F8FBFF36F8FFEE73846CB
:10365000BDE8F0815400002470B5041F094E231FFB
:103660004FF0807521F0010125601C1F1960A0F149
:1036700020010B1F266044380A606FF002051D60B0
:1036800070BD00005535000801EE100A70EEC00A4A
:103690000120B8EEC11A8840401E21EE201A00EE2B
:1036A000900AF8EEE01AC1EE210A30EE800A704767
:1036B000D0E9013201699A60D0E901235A604A6871
:1036C000824201D182684A60002202610868401E7D
:1036D000086008687047000010B5044C802304603F
:1036E00004F154000860136010BD0000A80000241D
:1036F0004FF0FF3300F108010022C0E9011302601E
:10370000C1600161704700210161704730B50B68ED
:103710005A1C02D000F1080202E0026904E02246CD
:10372000546825689D42FAD953684B6099608A6055
:10373000516008610168491C016030BD42684A60FF
:1037400093688B6093685960916008610168491CB7
:1037500001607047502080F31188BFF34F8FBFF393
:103760006F8F0A494868401C486001280CD10848FE
:10377000006810F0FF0F07D0502080F31188BFF3CE
:103780004F8FBFF36F8FFEE7704700007400002477
:1037900004ED00E00849486828B1401E486001D1A6
:1037A00080F311887047502080F31188BFF34F8F4A
:1037B000BFF36F8FFEE700007400002470B500288F
:1037C0002AD0164DA0F1080461686869014207D14A
:1037D000502080F31188BFF34F8FBFF36F8FFEE748
:1037E00022683AB1502080F31188BFF34F8FBFF3A6
:1037F0006F8FFEE78143616000F080F86068696860
:10380000084468602046FFF76FFE2869401C286165
:10381000BDE8704000F0E0B970BD00005400002425
:103820004FF0E020002101614FF47A72816107239B
:1038300003490968B1FBF2F1491E41610361704718
:1038400010000024020010B514D00F48006B38B1EE
:10385000502080F31188BFF34F8FBFF36F8FFEE7C7
:1038600000F04CF800211046FFF7DEFC00F0B4F940
:10387000002807D105494FF080500860BFF34F8FF3
:10388000BFF36F8F10BD00001800002404ED00E0AE
:1038900010B586B0002405AA04A9039403A80494D3
:1038A000FFF71AFFDDE9030100940023CDE90110C1
:1038B00010480EA1059A00F0FEF80F490028C862D2
:1038C00011D0502080F31188BFF34F8FBFF36F8F5B
:1038D00001224FF0FF3088624A61CC6006B0BDE83B
:1038E000104000F041B806B010BD000049444C45FE
:1038F00000000000ED330008180000240248016BAE
:10390000491C016370470000180000241448016B33
:1039100011B10121C16170470021C16111490269E2
:10392000B2FA82F2C2F11F0202EB820251F8223097
:103930006BB101EB820101F108034A6852684A60E9
:103940009A4201D152684A60D168016070475020A4
:1039500080F31188BFF34F8FBFF36F8FFEE7000036
:1039600018000024E803002437481CB537490268D2
:103970008A4207D1502080F31188BFF34F8FBFF3E5
:103980006F8FFEE731490068491E884207D15020F9
:1039900080F31188BFF34F8FBFF36F8FFEE72C4981
:1039A000FF200A780192087008788DF800009DF8D1
:1039B00000209DF8000002F0F002824207D0502063
:1039C00080F31188BFF34F8FBFF36F8FFEE79DF831
:1039D000002007201F4C02F050022270A06005E07A
:1039E0009DF8002052008DF80020401E9DF8002018
:1039F0001206F5D40328A06007D0502080F3118868
:103A0000BFF34F8FBFF36F8FFEE74FF44070A0609E
:103A1000019808700C482030016841F47001016081
:103A2000016841F070410160FFF7FAFE002060601C
:103A3000FCF7C0FC0848016841F040410160FCF718
:103A4000A5FC00201CBD000000ED00E071C20F418C
:103A500000E400E07400002434EF00E02DE9FF5F93
:103A6000994616468A4683469000DDE90E87FFF7A1
:103A700085FD05001CD05420FFF780FD040014D004
:103A80000020256384F851004B46CDE90087CDE93D
:103A90000240324651465846FFF7D8FC2046FFF711
:103AA000FBFB012004B0BDE8F09F2846FFF786FE2F
:103AB0004FF0FF30F6E7F0B585B0DDE90B740A9DF5
:103AC000A7B1DCB154262763022684F85160002791
:103AD00003970DF1100C0095CDE901C4FFF7B6FC7A
:103AE0002046FFF7D9FB049805B0F0BD502080F3C5
:103AF0001188BFF34F8FBFF36F8FFEE7502080F325
:103B00001188BFF34F8FBFF36F8FFEE72DE9F041B0
:103B10002F4C206B002728B1A069401CA0613846BB
:103B2000BDE8F081E668761CE66013D1606B006842
:103B300038B1502080F31188BFF34F8FBFF36F8FE0
:103B4000FEE7606BA16B6163A063206A401C20628A
:103B5000FFF7F0FCDFF87C80A06A864209D3606B37
:103B60000068A0B1606BC068C5686868864211D201
:103B7000A0622068C06A00EB800158F8210001288B
:103B800000D90127E0690028C9D00127C7E74FF015
:103B9000FF30EDE7281DFFF78BFDA86A18B105F18E
:103BA0001800FFF785FDE96A01202269884010436B
:103BB000206101EB810108EB8100291DFFF7BEFDAB
:103BC0002068E96AC06A8142C9D30127C7E70000BB
:103BD00018000024E80300242DE9F0472C4D286B41
:103BE0000024264638B1FFF7B5FD286B401E286338
:103BF000286B40B147E0502080F31188BFF34F8F0E
:103C0000BFF36F8FFEE7234F0120A968D9B3A7F157
:103C1000B40980463868E8B1F868C46804F118004F
:103C2000FFF746FD201DFFF743FDE16A2A6908FA08
:103C300001F01043286101EB810109EB8100211D96
:103C4000FFF77CFD2968E06AC96A8842E2D3C5F8BB
:103C50001C80DFE70CB1FFF76DFCAC6944B147464F
:103C6000FFF754FF00B1EF61641EF9D10020A86195
:103C7000E86940B1084901264FF080500860BFF361
:103C80004F8FBFF36F8FFFF785FD3046BDE8F0879C
:103C9000180000249C04002404ED00E04FF0407064
:103CA000E1EE100A70470000303D0008912E000838
:103CB0000000000000000000800000000000000084
:103CC000000000000001020304050607080C1014A0
:103CD000182030400000000000000000000000003C
:103CE00000000000000000000100000002000000D1
:103CF00003000000040000000000000005000000B8
:103D000000000000000000000000000006000000AD
:103D1000000000000000000000000000070000009C
:103D20000000000001020304010203040607080961
:103D300064656661756C745461736B006C3D00085A
:103D400000000024A8000000080300086C3D0008E3
:103D500000000020003C000024030008143E00087E
:103D6000A8000024C80A0000240300080000000086
:103D70000100000010000000000000000090D003CF
:103D80000090D003000000000000000000000000D0
:103D90000000000000000000000000000000000023
:103DA0000000000000000000000000000000000013
:103DB0000000000000000000000000000000000003
:103DC00000000000000000000000000000000000F3
:103DD00000000000000000000000000000000000E3
:103DE00000000000AAAAAAAA00000000000000002B
:103DF00000000000010000000000000000000000C2
:103E000000000000000000000000000000000000B2
:043E100000000000AE
:04000005080002CD20
:00000001FF
